:100000000C94CC060C9410070C9410070C94100759
:100010000C9410070C9410070C9410070C94100704
:100020000C9410070C9410070C94B0160C948217C3
:100030000C94C2250C9410070C9410070C94100714
:100040000C9410070C9410070C9410070C941007D4
:100050000C9410070C9461260C9410070C94100754
:100060000C9410070C94FB090C9410070C941007C7
:100070000C9410070C9410070C9410070C941007A4
:100080000C9410070C9410070C9410070C94100794
:100090000C9410070C9410070C9410070C94100784
:1000A0000C9410070C9410070C9410072E0F330FAC
:1000B000380F3D0F420F470F4C0F510F560F5B0F7C
:1000C000600F650F6A0F6F0F740F790F7E0F830F2C
:1000D000880F8D0F920F970F9C0FA10FA60FAB0FDC
:1000E000B00FB50FBA0FBF0FC40FC90FCE0FD30F8C
:1000F000D80FDD0F2C0F2710E20FE40FE60FE80FEB
:10010000ED0FF20FF70FFC0F011005100A100F1082
:10011000141019101E10251025102510251025105B
:100120002510251025102510251025102510251027
:100130002510251025102510251025102310E71750
:100140000918F4180918F4184B186E18F418C31885
:10015000D6182F1C2F1C5D1C5D1CB91CF51CF81E2D
:10016000F81E0D1DF81E041E041ED21EF81EF81ED9
:10017000E61E0A00690025640052005000023500A6
:1001800001E3013500022B0001E2012B0001A9026D
:10019000A9007500010B020B01080208010F020FF4
:1001A000010F020F74FF0112021200018CF0A1C1B5
:1001B000A3F1A203C01F141A16041D1B062021154B
:1001C000080709190522231C170A0B11001E292BE9
:1001D000C3E1E2E32C2425180C0E0D100031352A62
:1001E00028C1E5E6E726271213330F36002D2E30FF
:1001F0002F343837003B0000A9AA0000003C3D0026
:1002000000A80000003E3F0000005557003A353975
:10021000E0E1E2E301404100464A545600494C2ADD
:100220002801E5E6E742434748504B4D004445C4AA
:10023000524F514E00010101010101010101010173
:1002400001012A0101010101014C50010001352B7E
:10025000C3E1E2E32C0101010152510100494C2AA2
:100260000101E5E6E701010101014F010001010182
:10027000010101010001010101010101010101016F
:1002800001012A0101010101010150010001352B89
:10029000C2E1E2E32C0101010152510100494C2A63
:1002A0000101E5E6E701010101014F010001010142
:1002B000010101010025630025730D0A00522C3154
:1002C0000D0A0053592C464646340D0A0053482C5B
:1002D000303033430D0A00537E2C360D0A0053573D
:1002E0002C383030300D0A00534D2C340D0A005399
:1002F000532C4B6579626F6172642F4D6F75736516
:100300000D0A00532D2C546D6B42540D0A005346B8
:100310002C310D0A002D2D2D0D0A004578697469C8
:100320006E6720636F6E666967206D6F6465202E4F
:100330002E2E0A002B0D0A00760D0A00242424001C
:10034000456E746572696E6720636F6E66696720BB
:100350006D6F6465202E2E2E0A00522C310D0A007E
:1003600053522C5A0D0A00555342206D6F64650A92
:10037000004175746F206D6F64650A002530327519
:100380000A00253032753A00253032753A00424174
:10039000543A2025756D560900757074696D653A7B
:1003A000202530327520253032753A253032753AA5
:1003B000253032750A00564255533A2025580A0016
:1003C00052656D6F746557616B657570456E6162DE
:1003D0006C65643A2025580A000A003F004C4F57CC
:1003E000004449534348470043484152470046555B
:1003F0004C4C00626174746572793A200055534226
:100400002053746174653A2025730A00636F6E6629
:1004100069675F6D6F64653A2025580A00726E3413
:10042000325F6175746F636F6E6E656374696E675A
:1004300028293A2025580A00726E34323A20257352
:100440000A00666F7263655F7573623A2025580A09
:100450000070726F746F636F6C3A2025730A000A24
:100460002D2D2D2D2D20524E2D343220696E666F8C
:10047000202D2D2D2D2D0A00753A20202020202002
:1004800020746F67676C6520466F726365205553F3
:1004900042206D6F64650A00703A202020202020E1
:1004A0002070616972696E670A00536C636B3A2051
:1004B000202020524E2D343220696E697469616C9F
:1004C000697A650A0044656C3A2020202020656E18
:1004D0007465722F6578697420524E2D3432206312
:1004E0006F6E666967206D6F64650A00623A20204E
:1004F00020202020206261747465727920766F6CF0
:10050000746167650A00693A20202020202020526B
:100510004E2D343220696E666F0A000A0A2D2D2D89
:100520002D2D20426C7565746F6F746820524E2DAE
:1005300034322048656C70202D2D2D2D2D0A00257C
:100540003032753A253032753A25303275092575C5
:100550006D560A004C4544207374617475733A20DB
:10056000253032580A002025303258002563005BC0
:10057000735D004B6579626F6172642073746172A0
:10058000740A00524E2D343220696E69740A000AD2
:1005900055534220696E69740A005B445D005B43F9
:1005A0005D001203480048004B00420020006D002F
:1005B0006F00640000000E0374002E006D002E001A
:1005C0006B002E00000004030904090274000401FA
:1005D00000A03209040000010301010009211101FA
:1005E00000012240000705810308000A09040100F8
:1005F0000103010200092111010001224D0007053C
:10060000820308000A090402000103000000092116
:10061000110100012236000705830308000A0904BE
:100620000300020300000009211101000122220041
:1006300007058403200001070504032000011201BF
:10064000100100000008EDFE424204010102000119
:100650000631FF0974A1010975150026FF009520D8
:10066000750881020976150026FF0095207508910E
:1006700002C005010980A101850216810026B7008C
:100680001A81002AB700751095018100C0050C0978
:1006900001A1018503160100269C021A01002A9C73
:1006A00002751095018100C005010902A10109012F
:1006B000A1000509190129051500250195057501F8
:1006C0008102950175038101050109300931158108
:1006D000257F95027508810609381581257F9501CA
:1006E00075088106050C0A38021581257F9501756C
:1006F000088106C0C005010906A101050719E02906
:10070000E71500250195087501810295017508819D
:1007100001050819012905950575019102950175D5
:100720000391010507190029FF150026FF00950612
:1007300075088100C0636F6E73756D65723A202510
:100740003034580A0073797374656D3A202530345B
:10075000580A000A002530325820006B6579626F14
:100760006172643A20004C45443A20253032580AE0
:1007700000253032583A202530386225730A00723D
:100780002F632030313233343536370A004F6E65EF
:1007900073686F743A2074696D656F75740A002907
:1007A0000A002575002F002575005D2800256400CE
:1007B0002000256400200025640020002564007CC2
:1007C0000025303258006D6F7573656B6579205B5D
:1007D00062746E7C782079207620685D287265705E
:1007E0002F61636C293A205B006D6B5F77686565EC
:1007F0006C5F74696D655F746F5F6D6178203D201B
:1008000025640A006D6B5F776865656C5F6D617864
:100810005F7370656564203D2025640A006D6B5F21
:1008200074696D655F746F5F6D6178203D2025642C
:100830000A006D6B5F6D61785F7370656564203D64
:100840002025640A006D6B5F696E74657276616C59
:10085000203D2025640A006D6B5F64656C61792022
:100860003D2025640A006D6B5F776865656C5F7479
:10087000696D655F746F5F6D6178203D2025640A46
:10088000006D6B5F776865656C5F6D61785F737035
:10089000656564203D2025640A006D6B5F74696D99
:1008A000655F746F5F6D6178203D2025640A006D7F
:1008B0006B5F6D61785F7370656564203D202564B2
:1008C0000A006D6B5F696E74657276616C203D2005
:1008D00025640A006D6B5F64656C6179203D20259D
:1008E000640A000A00257500363A20776865656C51
:1008F0005F74696D655F746F5F6D61783A20000A9F
:1009000000257500353A20776865656C5F6D617804
:100910005F73706565643A20000A00257500343AFB
:100920002074696D655F746F5F6D61783A20000AAD
:1009300000257500333A206D61785F7370656564DA
:100940003A20000A00257500323A20696E746572FB
:1009500076616C286D73293A20000A0025750031F4
:100960003A2064656C6179282A31306D73293A2008
:10097000000A092D2056616C756573202D0A004D03
:100980003E004D25643E20003F0073657420646581
:100990006661756C740A00433E2000776865726575
:1009A0002064656C74613A20637572736F723D25C3
:1009B000642C20776865656C3D25640A5365652065
:1009C000687474703A2F2F656E2E77696B69706545
:1009D0006469612E6F72672F77696B692F4D6F7530
:1009E00073655F6B6579730A000A092D204D6F7579
:1009F00073656B6579202D0A4553432F713A097150
:100A00007569740A313A0964656C6179282A313054
:100A10006D73290A323A09696E74657276616C28C1
:100A20006D73290A333A096D61785F737065656487
:100A30000A343A0974696D655F746F5F6D61780A95
:100A4000353A09776865656C5F6D61785F737065CD
:100A500065640A363A09776865656C5F74696D6527
:100A60005F746F5F6D61780A0A703A097072696E1F
:100A7000742076616C7565730A643A097365742035
:100A800064656661756C74730A75703A092B310A76
:100A9000646F776E3A092D310A706775703A092BC9
:100AA00031300A7067646F776E3A092D31300A0A67
:100AB0007370656564203D2064656C7461202A2034
:100AC0006D61785F7370656564202A202872657097
:100AD000656174202F2074696D655F746F5F6D614F
:100AE00078290A003F004D3E2000433E20004C255F
:100AF000640A000A092D20436F6E736F6C65202D08
:100B00000A4553432F713A09717569740A6D3A09A0
:100B10006D6F7573656B65790A000A092D204D614B
:100B2000676963202D0A643A0964656275670A780B
:100B30003A096465627567206D61747269780A6B41
:100B40003A096465627567206B6579626F617264EA
:100B50000A6D3A096465627567206D6F7573650A81
:100B6000763A0976657273696F6E0A733A0973741F
:100B7000617475730A633A09636F6E736F6C6520F5
:100B80006D6F64650A302D343A096C617965723095
:100B90002D34284631302D4634290A506175733A78
:100BA00009626F6F746C6F616465720A003F007454
:100BB000696D65725F72656164333228293A202558
:100BC00030346C580A006B6579626F6172645F69DA
:100BD000646C653A2025580A006B6579626F617212
:100BE000645F70726F746F636F6C3A2025580A00EF
:100BF000686F73745F6B6579626F6172645F6C6557
:100C0000647328293A2025580A000A092D205374B4
:100C100061747573202D0A004743433A20342E38FF
:100C20002E31204156522D4C4942433A20312E3824
:100C30002E3073766E204156525F415243483A201F
:100C4000617672350A004F5054494F4E533A204C4A
:100C5000554641204D4F5553454B45592045585415
:100C600052414B455920434F4E534F4C4520434F23
:100C70004D4D414E4420343039360A004255494CDE
:100C8000443A2066633932303134202832323A34E3
:100C9000323A3532204170722031312032303137D2
:100CA000290A005649443A2030784645454428747C
:100CB0002E6D2E6B2E29205049443A203078343244
:100CC00034322848484B42206D6F642920564552E3
:100CD0003A203078303130340A00444553433A20CA
:100CE000742E6D2E6B2E206B6579626F617264209D
:100CF0006669726D7761726520666F722048484B35
:100D000042206D6F640A000A092D205665727369CE
:100D10006F6E202D0A000A6D6F7573653A206F663D
:100D2000660A000A6D6F7573653A206F6E0A000AD5
:100D30006B6579626F6172643A206F66660A000AB9
:100D40006B6579626F6172643A206F6E0A000A6D9A
:100D500061747269783A206F66660A000A6D617480
:100D60007269783A206F6E0A000A64656275673AA4
:100D7000206F6E0A000A64656275673A206F6666C6
:100D80000A000A0A626F6F746C6F616465722E2EBE
:100D90002E2000433E20000011241FBECFEFDAE0DA
:100DA000DEBFCDBF04B603FE24C080915F039091E7
:100DB0006003A0916103B09162038730904BA7401C
:100DC000B04BB9F410925F0310926003109261036C
:100DD0001092620314BE84B7877F84BF88E10FB688
:100DE000F89480936000109260000FBEE0E0F8E39A
:100DF000099511E0A0E0B1E0ECE9FEE502C0059044
:100E00000D92AA39B107D9F723E0AAE9B1E001C0F0
:100E10001D92AF35B207E1F70E945F110C944C2F81
:100E20000C9400000FB680959AE0F8947BE27A95D6
:100E3000F1F708F0589A08F4589886959A95B1F702
:100E40000FBE08950FB680E8F894499BFECF4999EC
:100E5000FECF96E19A95F1F79CE29A95F1F7869587
:100E600049998068C8F70FBE08950FB680E8F894D6
:100E700096E19A95F1F79CE29A95F1F78695499952
:100E80008068C8F796E19A95F1F7499BFECF0FBEAF
:100E90000895FF93EF93E0919A01F0919B013097B1
:100EA00009F00995EF91FF910895FC01859180303B
:100EB00011F0EFDFFBCF0895FF27E0E230E247FFBC
:100EC0000CC0419597FF09C0EDE260957095809543
:100ED0009095611D711D811D911D27FF02C02195F7
:100EE00030E350E2AA27660F771F881F991FAA1FB9
:100EF000A41710F0A41B63955A95A9F7AA3008F01F
:100F0000A95FA05DAF93F39561157105810591050A
:100F100041F7ED3211F4EF93F395F21718F43F9384
:100F2000F395FBCF8F91B5DFFA95E1F70895E9913D
:100F3000F9918591803021F0853219F0AADFF9CF3F
:100F4000089520E0E89455915532C1F3503311F4DF
:100F5000689455915A3348F4505390F3220F022E5F
:100F6000220F220F200D250FF4CF0EF42195899129
:100F70009991533619F3533729F1533559F1BC017F
:100F800088279927E8945C3621F48991999168948F
:100F90005591543639F446EF7EF077FF0DC08FEF50
:100FA0009FEF0AC055374AE039F0583540E121F04B
:100FB000523642E009F00895FF93EF937DDFEF9101
:100FC000FF91B7CFFF93EF93FC0181918030B9F38C
:100FD00060DFFBCFFF93EF9368DFF1CFDF93CF9319
:100FE000CDB7DEB72596A3DFCF91DF910895FC0141
:100FF000613061F028F0623079F0633099F018C008
:1010000082818823A9F082E991E008958281882372
:1010100079F08DE891E008958281882361F088E875
:1010200091E008958281882349F080E891E0089555
:1010300080E090E0089585E891E008958DE791E0E3
:1010400008951F93CF93DF93EC01162F9A8180911F
:101050004103992329F080FF09C08BE791E004C088
:1010600080FF04C089E791E00E9455078091410309
:1010700080FF0FC08D8182958F701F928F9386E7BE
:1010800091E09F938F930E94EE070F900F900F9027
:101090000F908D8180FF08C08091410380FF04C0C4
:1010A00084E791E00E9455078091410380FF04C0CE
:1010B00082E791E00E945507111130C09A818D811D
:1010C000992361F0982F92959F7011F080FF26C0B0
:1010D00082E0DF91CF911F910C94DA1B982F9295AB
:1010E0009F70B1F080FD14C082E00E94CC240E9469
:1010F000FF2486E20E94081B86E20E94B21B82E067
:101100000E94D2240E94FF248D818F708D8306C09F
:1011100082E0DF91CF911F910C94E11BDF91CF9181
:101120001F91089514B88FEF85B9549A5C9808956B
:101130008FEF84B980E485B9549A5C9A8FE19EE47C
:101140000197F1F700C0000008958FEF84B980E4A3
:1011500085B957985F9A87B18F7387B988B1806CCA
:1011600088B92E9A2F980E949208E4EAF1E0119231
:1011700081E0EC3AF807D9F7ECE9F1E0119281E06F
:10118000E43AF807D9F784EA91E09093AF018093AD
:10119000AE018CE991E09093AD018093AC0108958C
:1011A0000F931F93CF93DF938091AC019091AD018A
:1011B0002091AE013091AF013093AD012093AC018D
:1011C0009093AF018093AE015C9B0E949808C0E0B1
:1011D000D0E001E010E080E090E045B1407C4C2B95
:1011E0009C0153E0220F331F5A95E1F7422B45B97A
:1011F000EAE1EA95F1F700C0E091AC01F091AD01B0
:10120000EC0FFD1F208130E0082E02C03595279598
:101210000A94E2F720FD2F9AF5E3FA95F1F7000022
:10122000A6B52E982AE12A95F1F700C02091AE01CB
:101230003091AF014F9B0EC0A801082E01C0440F92
:101240000A94EAF74095F901EC0FFD1F50815423F1
:1012500050830CC0F901EC0FFD1F6081A801082E1E
:1012600001C0440F0A94EAF7642B608346B56A2FE5
:1012700070E04A1718F046B550E004C046B550E09B
:1012800041505F4F461B570B4630510558F0E091D7
:10129000AC01F091AD01EC0FFD1F4081F901EC0FA5
:1012A000FD1F4083EAE1EA95F1F700C02F982E9ADE
:1012B000EBE2F1E03197F1F700C0000001968830D1
:1012C000910509F08ACFA091AE01B091AF01AC0FAA
:1012D000BD1FE091AC01F091AD01EC0FFD1F9C91A1
:1012E0008081981751F00E9400266093B00170939E
:1012F000B1018093B2019093B3012196C830D1051A
:1013000009F069CF5C9B1BC080915603853021F0AA
:1013100080915603811113C06091B0017091B101A9
:101320008091B2019091B3010E94352661317742DC
:101330008105910520F00E9492080E94832581E09A
:10134000DF91CF911F910F910895E091AE01F0913F
:10135000AF01E80FF11D808108950C9498080C945A
:101360009208569A81FF02C05E9A08955E98089589
:1013700088E08093CC001092CD00E9ECF0E0808111
:1013800080698083808188608083EAECF0E08081DE
:101390008083EBECF0E080818083559A5D987894AF
:1013A00008959091B5012091B4019217D1F030E0E9
:1013B000F901EA54FE4F80812F5F3F4F332720937E
:1013C000B401492F50E0921718F4241B350B03C0C9
:1013D000241B350B3395233031050CF05D9890E0DC
:1013E00008958FEF9FEF08959091C80095FFFCCF6F
:1013F0008093CE0008951F920F920FB60F92112482
:101400002F933F934F935F938F939F93EF93FF930C
:101410002091B50130E0C901019699274091B401AE
:10142000481741F09091CE00F901EA54FE4F9083A5
:101430008093B5015091B501842F90E0252F30E0C5
:10144000821B930B541708F0939503970CF45D9A45
:10145000FF91EF919F918F915F914F913F912F91CC
:101460000F900FBE0F901F9018958091D002089595
:1014700008958091D00208950895089508950895DB
:10148000CF93DF938D3C9105C1F1B8F4853B910575
:10149000B1F148F4833B9105D9F1843B9105D9F52D
:1014A000D0E0C0E23CC0873B910579F158F18C3C1B
:1014B000910589F5D0E0C8E032C08A3E9105C9F0B7
:1014C00040F4823E9105B9F0893E910521F5D0E1C5
:1014D00025C0813222E0920751F0833222E0920748
:1014E00021F08A389140B9F418C0D1E017C0D4E097
:1014F00015C0D0E213C0D0E411C0D0E80FC0D0E0D6
:10150000C1E00DC0D0E0C2E00AC0D0E0C4E007C036
:10151000D0E0C0E104C0D0E001C0D2E0C0E08DEF77
:101520000E94F40983E00E94F40983E00E94F40918
:101530008D2F0E94F4098C2FDF91CF910C94F40928
:10154000CF93DF93EC018DEF0E94F40985E00E94B8
:10155000F40982E00E94F40988810E94F4098981DB
:101560000E94F4098A810E94F4098B81DF91CF9156
:101570000C94F409CF93DF93EC018DEF0E94F409F2
:1015800089E00E94F40981E00E94F40988810E94A8
:10159000F40980E00E94F4098A810E94F4098B8199
:1015A0000E94F4098C810E94F4098D810E94F40943
:1015B0008E810E94F4098F81DF91CF910C94F40900
:1015C0000C94D109FF920F931F93CF93DF93EC01FB
:1015D0000E94F4258C01F12CC8010E940C268C1766
:1015E0009D07A0F40E94D1099C012F3F8FEF38077F
:1015F00051F02D3041F02A3049F0AF2DB0E0A85421
:10160000BD4F2C93F39486E18F1530F7EF2DF0E06A
:10161000E854FD4F108288EB92E0DF91CF911F914B
:101620000F91FF9008950C94F40981B3881F8827C7
:10163000881F0895879A8F9A089585B7806885BF17
:1016400085B7806885BF0E941A0B86988E9A81980C
:101650008998559A5D980C94B809879A8F9808953F
:101660008FB18695817008958FB186FB882780F9A8
:1016700008958093D0020895CF93DF93FC01849165
:10168000EF012196882321F00E94F409FE01F7CF93
:10169000DF91CF910895CF93DF93C5EBD2E00E9405
:1016A000D1098F3F2FEF920759F09F938F93DF93CC
:1016B000CF930E94EE070F900F900F900F90EFCFF7
:1016C000DF91CF9108950E943C0B2FEF89E698E1BE
:1016D000215080409040E1F700C0000084E690E097
:1016E0000E94E20A8093B6029093B7029F938F9371
:1016F00088EB92E09F938F930E94EE070E944B0B22
:101700000F900F900F900F908091B6029091B702BA
:1017100008950E94111990931501809314010E945D
:10172000191F80E091E00E940C190E942D0B0E946D
:10173000340B8111FCCF80E493E00E9455072FEF1A
:1017400085EB95E3215080409040E1F700C0000018
:101750008CE393E00E94630BEFEFFBE42DE1E1509B
:10176000F0402040E1F700C000000E944B0B88E3EE
:1017700093E00E94630BFC018081863721F084E3B3
:1017800093E00C94630B08958BE193E00E9455075E
:1017900085E193E00E94630B0E941A0B0E94191FBF
:1017A00080911401909115010C940C190C949C10CB
:1017B0008F929F92AF92BF92CF92DF92EF92FF9261
:1017C0000F931F93CF93DF9392E0B92EC6E6D5E037
:1017D0000CE615E0AA24A39423E0922E34E5C32E50
:1017E00035E0D32E0E94E00A7C018F3F2FEF920755
:1017F00009F446C08091D302813009F128F082308B
:1018000029F1833049F139C08EEFE816F10419F45B
:10181000A092D302E7CF90E8E916F10428F4FF92F2
:10182000EF921F930F9304C0FF92EF92DF93CF9339
:101830000E94EE070F900F900F900F90D3CF92E081
:10184000E916F104D1F4B092D302CCCFEA94EF2898
:10185000A1F49092D302C6CF8091410380FF0AC0C9
:10186000FF92EF92DF92CF920E94EE070F900F90BF
:101870000F900F908E2D0E94390B1092D302B2CF91
:101880008091D502811121C08091D40281111DC0A7
:101890000E94300B81110AC00E9411198A50914098
:1018A00029F00E94191F8AE091E00DC00E94300BC0
:1018B000882359F00E9411198651914031F00E94FD
:1018C000191F86E191E00E940C198091D10290913C
:1018D000D2020E940C26893E23E0920708F461C0E0
:1018E00028EE33E0B9010E94FC2E629FA001639FA5
:1018F000500D729F500D11248091D1029091D2020F
:10190000840F951F9093D2028093D1020E943911C7
:10191000833011F481E001C080E00E948B100E94AE
:10192000002628EE33E040E050E00E94242F4901D9
:101930005A018CE3C82ED12CE12CF12CCA01B9013B
:10194000A70196010E94242F672B682B692B49F56C
:101950000E9402112091410320FF23C09F938F9387
:101960001F921F92C501B40120E13EE040E050E02B
:101970000E94242FC22FA70196010E94242F3F937B
:101980002F931F92CF938FE395E09F938F930E94A5
:10199000EE078DB79EB70A960FB6F8949EBF0FBE9E
:1019A0008DBF0E94300B811107C00E94340B882329
:1019B00019F06E9A769802C06E9A769ADF91CF915E
:1019C0001F910F91FF90EF90DF90CF90BF90AF905D
:1019D0009F908F9008958F929F92AF92BF92CF92D7
:1019E000DF92EF92FF921F93CF93DF9300D000D04E
:1019F000CDB7DEB7833109F48CC008F05BC08B3003
:101A000009F466C08C3009F48FC0853009F0FCC140
:101A10000E94002628EE33E040E050E00E94242F90
:101A200049015A010E9402119F938F938EE893E01F
:101A30009F938F930E94EE07C501B40120E13EE021
:101A400040E050E00E94242F5F934F933F932F93E9
:101A500028E833E03F932F9369837A838C839B83B9
:101A60000E94EE074CE3C42ED12CE12CF12C6981AD
:101A70007A818C819B81A70196010E94242F5F931C
:101A80004F933F932F9382E893E09F938F930E940D
:101A9000EE07C501B401A70196010E94242F9F9370
:101AA0008F937F936F938CE793E09F938F930E9424
:101AB000EE0740C1883361F020F4883109F440C159
:101AC000A3C1873409F46EC18C3409F456C19CC19A
:101AD0008BE195E00E94550786E095E00E9455074E
:101AE0008CEE94E00E94550785EC94E00E94550727
:101AF0008AEA94E00E94550788E994E00E9455071D
:101B00008091D50281117EC188E794E00E9455073B
:101B10007EC10E94890B80E693E00E94630B8AE5F8
:101B200093E00E94630B6CC18FE594E00E9455071F
:101B30000E9411198A50914019F489E291E002C083
:101B40008FE291E09F938F9381E594E09F938F9331
:101B50000E94EE078091D4021F928F9382E494E05A
:101B60009F938F930E94EE070E94300B0FB6F8945C
:101B7000DEBF0FBECDBF811107C00E94340B88238A
:101B800031F08BE391E005C084E391E002C088E38B
:101B900091E09F938F9388E394E09F938F930E94AB
:101BA000EE070E94150B1F928F938DE194E09F9397
:101BB0008F930E94EE078091D5021F928F938CE045
:101BC00094E09F938F930E94EE07809156030FB687
:101BD000F894DEBF0FBECDBF8823B9F080915603C5
:101BE0008130B1F0809156038230A9F08091560384
:101BF0008330A1F080915603843099F08091560390
:101C0000853091F482E791E011C088E491E00EC044
:101C100080E491E00BC083E591E008C08BE591E0A2
:101C200005C085E691E002C080E791E09F938F9325
:101C30008DEF93E09F938F930E94EE0783EF93E0E5
:101C40009F938F930E94EE070E9439110F900F907F
:101C50000F900F900F900F90813059F038F0823034
:101C600059F0833061F48DED93E00BC08EEE93E07C
:101C700008C088EE93E005C081EE93E002C08BEDD2
:101C800093E09F938F930E94EE070F900F9089ED42
:101C900093E09F938F930E94EE07809154031F92CD
:101CA0008F9380EC93E09F938F930E94EE07809137
:101CB000D90081701F928F9386EB93E09F938F934F
:101CC0000E94EE070E94002628EE33E040E050E03C
:101CD0000E94242F69017A015CE3852E912CA12CAE
:101CE000B12CC701B601A50194010E94242F7F9356
:101CF0006F93C701B60120E13EE040E050E00E9452
:101D0000242F122FA50194010E94242F3F932F937B
:101D10001F921F93C701B60120E831E541E050E072
:101D20000E94242F3F932F9389E993E09F938F93F1
:101D30000E94EE070FB6F894DEBF0FBECDBF62C0A3
:101D40008091D502811163C08091D402882339F03B
:101D500081E793E00E9455071092D40253C087E6B2
:101D600093E00E94550781E08093D4020E94191FDE
:101D700086E191E00E940C1945C00E94150B882352
:101D800051F08C830E94890B91E0909351039093C2
:101D9000D5028C813DC00E94C40B10925103109259
:101DA000D50230C08091D502811102C00E94890BFA
:101DB0008EE093E00E94630B83E093E00E94630B4C
:101DC0008FEE92E00E94630B88EE92E00E94630B1C
:101DD0008EED92E00E94630B87ED92E00E94630B10
:101DE0008DEC92E00E94630B83EC92E00E94630B07
:101DF0008DEB92E00E94630B8091D502811102C0AD
:101E00000E94C40B81E004C08091D50201C080E033
:101E10000F900F900F900F90DF91CF911F91FF9037
:101E2000EF90DF90CF90BF90AF909F908F900895EC
:101E3000CF93C82F0E94B624827221E009F420E0DB
:101E40008C2F90E0FC013497E934F10508F0FDC0D7
:101E5000EA5AFF4F0C94462F8AE058C1222309F416
:101E6000F8C081E453C1222309F4F5C082E44EC1D5
:101E7000222309F4F2C083E449C1222309F4EFC00C
:101E800084E444C1222309F4ECC085E43FC1222349
:101E900009F4E9C086E43AC1222309F4E6C087E4E4
:101EA00035C1222309F4E3C088E430C1222309F4B8
:101EB000E0C089E42BC1222309F4DDC08AE426C1F5
:101EC000222309F4DAC08BE421C1222309F4D7C00C
:101ED0008CE41CC1222309F4D4C08DE417C1222351
:101EE00009F4D1C08EE412C1222309F4CEC08FE4DC
:101EF0000DC1222309F4CBC080E508C1222309F4D7
:101F0000C8C081E503C1222309F4C5C082E5FEC033
:101F1000222309F4C2C083E5F9C0222309F4BFC01B
:101F200084E5F4C0222309F4BCC085E5EFC0222378
:101F300009F4B9C086E5EAC0222309F4B6C087E5F2
:101F4000E5C0222309F4B3C088E5E0C0222309F4E8
:101F5000B0C089E5DBC0222309F4ADC08AE5D6C054
:101F6000222309F4AAC081E2D1C0222309F4A7C028
:101F700080E4CCC0222309F4A4C083E2C7C022239A
:101F800009F4A1C084E2C2C0222309F49EC085E204
:101F9000BDC0222309F49BC08EE5B8C0222309F4FA
:101FA00098C086E2B3C0222309F495C08AE2AEC08D
:101FB000222309F492C088E2A9C0222309F48FC029
:101FC00089E2A4C088E0A2C089E0A0C080E29EC0EF
:101FD000222309F486C08FE599C0222309F483C027
:101FE0008BE294C0222309F480C08BE78FC02223A8
:101FF00009F47DC08DE78AC0222309F47AC08CE7FA
:1020000085C02111FCCF8CE581C0222309F473C067
:102010008AE37CC0222309F470C082E277C02223C5
:1020200009F46DC08EE772C0222309F46AC08CE304
:102030006DC0222309F467C08EE368C0222309F42F
:1020400064C08FE363C080E061C080E25FC08BE169
:102050005DC081E65BC082E659C083E657C084E676
:1020600055C085E653C086E651C087E64FC088E676
:102070004DC089E64BC08AE649C08BE647C08CE676
:1020800045C08DE643C08EE641C08FE63FC080E785
:102090003DC081E73BC082E739C083E737C084E7B2
:1020A00035C085E733C086E731C087E72FC088E7B2
:1020B0002DC089E72BC08AE729C081E327C082E3CE
:1020C00025C083E323C084E321C085E31FC086E3EA
:1020D0001DC087E31BC088E319C089E317C080E3F4
:1020E00015C08DE213C08DE311C08BE50FC08DE5E7
:1020F0000DC08CE50BC08BE309C087E207C080E60A
:1021000005C08CE203C08EE201C08FE20E94130B77
:1021100081E0CF910895833019F4859A7D9A0895CE
:10212000813011F4859A06C0823019F4859A8D9A0F
:10213000089585988D98089581E00E948B102FEF67
:1021400081EE94E0215080409040E1F700C0000013
:1021500082E00E948B102FEF81EE94E021508040AE
:102160009040E1F700C0000081E00E948B102FEF4B
:1021700081EE94E0215080409040E1F700C00000E3
:1021800082E00E948B102FEF81EE94E0215080407E
:102190009040E1F700C0000080E00E948B1080ECCE
:1021A00080937C0087E080937A0081E980937E00B1
:1021B00081E080937F008BE380937D00849A8C98EC
:1021C00008958091D90080FF1BC020B391B38598FA
:1021D0008D9AEFE9FFE03197F1F700C000008FB171
:1021E00085FB882780F930B320723F7D232B20BBED
:1021F00021B390722F7D922B91BB91E08927089596
:1022000080E00895CF93DF9300D0CDB7DEB7849AF6
:102210008C9A80917A00806880937A008FE99FE0A1
:102220000197F1F700C0000080917A0080648093EC
:102230007A0080917A0086FDFCCF809178009091A1
:1022400079009A83898380917A008F7780937A00CE
:10225000849A8C9829813A8145E0429FC001439F2E
:10226000900D1124805591090F900F90DF91CF911F
:1022700008958091D90080FD0C94E1100E94021114
:102280008C3A2DE0920720F481E08093D60205C0BD
:1022900085379E4010F01092D6028091D602882396
:1022A00011F083E0089582E00895CF93C82F0E9433
:1022B00012078C2F0E94DF1180E0CF91089584B720
:1022C000877F84BF88E10FB6F894809360001092F6
:1022D00060000FBE90E080E80FB6F8948093610034
:1022E000909361000FBE0E9435160E949216809155
:1022F000E20084608093E20085E591E10E94582528
:10230000509A589A5198599A78948FEF9091560311
:102310008150943041F0EFE7FEE33197F1F700C0D0
:1023200000008111F3CF8FE895E00E9455070E94CD
:102330001D0B0E94D60B83E895E00E9455070E9472
:10234000CE190E94300B811103C08AE091E002C0D7
:1023500086E191E00E940C1983E795E00E94550701
:102360000E94300B882319F1809156038530F9F4CF
:102370008FE695E00E9455070E94AF090E948325D1
:102380000E9483250E9483250E9483250E94832525
:102390000E9483250E94832580915403882301F3A2
:1023A0000E94A9258823E1F20E948D14D9CF0E94B2
:1023B000D2190E94D80BD4CF8091E30208959FB721
:1023C000F8941092DA029FBF90915603943009F06E
:1023D00058C09091E9009F702091EC0020FF02C04E
:1023E00020E801C020E0292B94E09093E90090912F
:1023F000EB0090FF43C09091EE0097FF3FC090919B
:10240000D702992321F09091E80095FF37C01092F0
:10241000D70296E03091E80035FD15C030915603A3
:10242000343061F53091EB0035FD28C0915021F436
:1024300081E08093D70222C0EFE9FFE03197F1F706
:1024400000C00000E7CF8093F1008091E80085FD97
:102450000AC08091E80080FFFCCF8091E8008E7771
:102460008093E80006C08FB7F89491E09093DA0269
:102470008FBF2F702093E90080E008952F70209384
:10248000E9008FEF0895CF93DF9300D01F92CDB76F
:10249000DEB720915603243019F523E029839B836E
:1024A0008A832093E9008FEF9091E800815095FD99
:1024B00006C095ED9A95F1F700008111F5CF809156
:1024C000E80085FF0DC040E050E063E070E0CE0121
:1024D00001960E94A3148091E8008E778093E80013
:1024E0000F900F900F90DF91CF910895CF93DF93CE
:1024F00000D01F92CDB7DEB720915603243021F5CE
:1025000022E029839B838A8383E08093E9008FEF15
:102510009091E800815095FD06C095ED9A95F1F7F0
:1025200000008111F5CF8091E80085FF0DC040E0EB
:1025300050E063E070E0CE0101960E94A314809108
:10254000E8008E778093E8000F900F900F90DF9156
:10255000CF910895209156032430F1F422E0209386
:10256000E9002FEF3091E800215035FD06C035ED30
:102570003A95F1F700002111F5CF2091E80025FFF1
:102580000BC040E050E065E070E00E94A314809131
:10259000E8008E778093E8000895CF93DF93EC01F5
:1025A00080915603843039F581E08093E9008FEF04
:1025B0009091E800815095FD06C095ED9A95F1F750
:1025C00000008111F5CF8091E80085FF14C040E044
:1025D00050E068E070E0CE010E94A3148091E80012
:1025E0008E778093E80088E0FE01ABEDB2E00190C9
:1025F0000D928A95E1F7DF91CF9108958EE995E0EC
:102600000E94550780915503811109C00E9435161B
:102610000E9492168091E20084608093E200089507
:102620008AE995E00E945507109255030895089590
:102630008091D8028F5F8093D80262E30E94F02ECF
:10264000911135C01092D8028091DA02882379F175
:1026500080915603843049F58091E9008F70909104
:10266000EC0090FF02C090E801C090E0982B84E05D
:102670008093E9008091EB0080FF14C08091EE0010
:1026800087FF10C08091E80085FF03C01092F10021
:10269000F9CF8091E80080FF05C08091E8008E7737
:1026A0008093E8009F709093E9001092DA020895F9
:1026B00042E061EC81E00E94AF1542E061EC82E013
:1026C0000E94AF1542E061EC83E00E94AF1542E248
:1026D00061EC84E00C94AF1580915803833009F4C9
:1026E00053C030F4813071F0823009F48CC0089509
:1026F0008A3009F478C08B3009F45EC0893009F063
:102700009AC020C080915703813A09F094C080910B
:10271000E800877F8093E80080915B0390915C03E1
:10272000892B21F060E080E090E003C068E08BED51
:1027300092E070E00E94EC148091E8008B77809327
:10274000E800089580915703813209F074C08091A8
:102750005B0390915C03892B09F06DC08091E800C8
:10276000877F8093E8008091E80082FD05C080911A
:1027700056038111F8CF5FC08091F1008093E3028E
:102780008091E8008B7753C080915703813A09F01C
:1027900052C080915B0390915C03892B09F04BC080
:1027A0008091E800877F8093E8008091E80080FFB7
:1027B000FCCF8091200136C0809157038132D9F53A
:1027C00080915B0390915C03892BA9F58091E800CF
:1027D000877F8093E8000E94E415809159038093DD
:1027E00020010C94191F80915703813221F58091AB
:1027F000E800877F8093E8000E94E41580915A03E7
:102800008093E402089580915703813AA1F4809166
:10281000E800877F8093E8008091E80080FFFCCF8C
:102820008091E4028093F1008091E8008E7780939C
:10283000E8000C94E41508958091E3028093D90296
:102840001092E30280E00E94B1090E94911A0C9458
:10285000191F0C941C140E94BE258091D9028093EC
:10286000E30208950C942B14292F332723303105CC
:10287000A9F06CF42130310509F442C02230310551
:1028800009F043C084E790E02AEC35E042C02132F1
:102890003105C9F02232310519F137C0992781304D
:1028A000910541F08230910541F0892B71F5E6ECFC
:1028B000F5E005C0E6EBF5E002C0E2EAF5E0849160
:1028C00090E09F0126C0643000F5E62FF0E0EE0FA7
:1028D000FF1FE857FE4F2081318189E090E019C049
:1028E000643098F4E62FF0E0DF01AA0FBB1FA05878
:1028F000BE4F2D913C91E458FE4F808190E009C07D
:1029000082E190E02EE336E004C080E090E020E039
:1029100030E0FA0131832083089580E189BD82E1AE
:1029200089BD09B400FEFDCF8091D8008F7D8093D2
:10293000D8008091E00082608093E0008091E00008
:1029400081FDFCCF0895CF92DF92EF92FF920F931B
:102950001F93CF93DF937C018B01EA010E94051640
:10296000811131C0209731F088819981081B190BA2
:10297000E80EF91EC12CD12C0115110519F1809119
:10298000E80085FD14C08091E8008E778093E80010
:10299000209741F0888199818C0D9D1D99838883B2
:1029A00085E011C00E940516882331F30CC0F701A1
:1029B00081917F018093F10001501109FFEFCF1A3F
:1029C000DF0ADACF80E0DF91CF911F910F91FF9066
:1029D000EF90DF90CF90089520915D0330915E03DA
:1029E0002617370748F06115710539F42091E80082
:1029F0002E772093E80001C0B901FC0120E06115A9
:102A00007105B9F180915603882309F440C08530DF
:102A100009F43FC08091E80083FD3DC08091E8004B
:102A200082FF06C08091E80082FF26C080E0089502
:102A30008091E80080FFE3CF2091F3008091F200C5
:102A400090E0922B6115710551F08830910538F4B2
:102A500021912093F100615071090196F3CF21E09B
:102A6000089709F020E08091E8008E778093E800D5
:102A7000C6CF2111C7CFD6CF80915603882339F016
:102A8000853039F08091E80083FFCCCF04C082E02C
:102A9000089583E0089581E0089520915D033091C9
:102AA0005E032617370748F06115710539F4209148
:102AB000E8002E772093E80001C0B901FC0120E076
:102AC00061157105C1F180915603882309F441C055
:102AD000853009F440C08091E80083FD3EC08091BC
:102AE000E80082FF06C08091E80082FF27C080E0F6
:102AF00008958091E80080FFE3CF2091F30080915A
:102B0000F20090E0922B6115710559F08830910523
:102B100040F424912093F10031966150710901969F
:102B2000F2CF21E0089709F020E08091E8008E774D
:102B30008093E800C5CF2111C6CFD5CF8091560331
:102B4000882339F0853039F08091E80083FFCBCFBE
:102B500004C082E0089583E0089581E00895982FED
:102B6000973058F59093E900981739F07091EC0080
:102B70002091ED005091F00003C0242F762F50E0FB
:102B800021FF19C03091EB003E7F3093EB00309174
:102B9000ED003D7F3093ED003091EB0031603093DC
:102BA000EB007093EC002093ED005093F000209127
:102BB000EE0027FF07C09F5FD3CF8F708093E9009F
:102BC00081E0089580E008958091570387FD05C056
:102BD0008091E80080FF0EC012C08091E80082FD65
:102BE00005C0809156038111F8CF08958091E800C7
:102BF0008B7708C0809156038111EACF08958091A8
:102C0000E8008E778093E80008958091E400909129
:102C1000E50045E62091EC0020FF21C02091E8006E
:102C200020FD21C020915603222389F0253089F010
:102C30002091EB0025FD0FC02091E4003091E500CC
:102C40002817390739F3415041F0C901E3CF82E039
:102C5000089583E0089581E0089584E00895209127
:102C6000E80022FFDFCF80E008950E94A3160E94B3
:102C7000AB16E0EEF0E0808181608083E8EDF0E06B
:102C800080818F77808319BCA7EDB0E08C918E7F17
:102C90008C9380818F7E80831092550308950F93CB
:102CA0001F93CF93DF930E94A3160E94AB16C8ED2B
:102CB000D0E088818F778883888180688883888145
:102CC0008F7D888319BC1092560310925203109284
:102CD00054031092530300EE10E0F80180818B7FC3
:102CE000808388818160888342E060E080E00E9488
:102CF000AF15E1EEF0E080818E7F8083E2EEF0E0C0
:102D0000808181608083808188608083F8018081F8
:102D10008E7F8083888180618883DF91CF911F912E
:102D20000F910895E8EDF0E080818F7E8083E7EDDC
:102D3000F0E080818160808384E082BF81E08093C5
:102D400055030C944F16E8EDF0E080818E7F808370
:102D50001092E20008951092DA001092E1000895B6
:102D60001F920F920FB60F9211242F933F934F9300
:102D70005F936F937F938F939F93AF93BF93EF93E3
:102D8000FF938091E10082FF0BC08091E20082FFFF
:102D900007C08091E1008B7F8093E1000E941813AF
:102DA0008091DA0080FF1FC08091D80080FF1BC097
:102DB0008091DA008E7F8093DA008091D90080FFC5
:102DC0000DC080E189BD82E189BD09B400FEFDCF5F
:102DD00081E0809356030E94FE1205C019BC109238
:102DE00056030E9410138091E10080FF19C080916A
:102DF000E20080FF15C08091E2008E7F8093E200A8
:102E00008091E20080618093E2008091D80080622E
:102E10008093D80019BC85E0809356030E94291442
:102E20008091E10084FF30C08091E20084FF2CC0DB
:102E300080E189BD82E189BD09B400FEFDCF8091AA
:102E4000D8008F7D8093D8008091E1008F7E8093A1
:102E5000E1008091E2008F7E8093E2008091E200A9
:102E600081608093E20080915203882311F084E016
:102E700007C08091E30087FF02C083E001C081E0CA
:102E8000809356030E9432148091E10083FF29C091
:102E90008091E20083FF25C08091E100877F8093CD
:102EA000E10082E080935603109252038091E1008A
:102EB0008E7F8093E1008091E2008E7F8093E2001C
:102EC0008091E20080618093E20042E060E080E077
:102ED0000E94AF158091F00088608093F0000E94FE
:102EE0001713FF91EF91BF91AF919F918F917F91B8
:102EF0006F915F914F913F912F910F900FBE0F9067
:102F00001F9018951F920F920FB60F9211242F93B6
:102F10003F934F935F936F937F938F939F93AF9361
:102F2000BF93CF93EF93FF93C091E900CF7080914F
:102F3000EC001092E9008091F000877F8093F00010
:102F400078940E94BE171092E9008091F00088608A
:102F50008093F000C093E900FF91EF91CF91BF9172
:102F6000AF919F918F917F916F915F914F913F9121
:102F70002F910F900FBE0F901F9018951F93CF9316
:102F8000DF93CDB7DEB7AA970FB6F894DEBF0FBEBA
:102F9000CDBFE7E5F3E08091F100819323E0EF35C9
:102FA000F207C9F70E946C138091E80083FF1CC1EF
:102FB0002091570330915803832F90E08A30910578
:102FC00008F012C1FC01E156FF4F0C94462F203847
:102FD00081F0223809F008C180915B038F708093E3
:102FE000E9008091EB0085FB882780F91092E900C9
:102FF00006C0809153039091540391118260909187
:10300000E800977F9093E8008093F1001092F10020
:10301000C5C0822F8D7F09F0E7C0222319F022302E
:1030200061F0E2C080915903813009F0DDC0333096
:1030300009F080E08093540328C0809159038111E6
:1030400024C020915B032F7009F4CEC02093E900C7
:103050008091EB0080FF19C08091EB00333011F4B8
:10306000806211C080618093EB0081E090E0022ECD
:1030700001C0880F0A94EAF78093EA001092EA00F0
:103080008091EB0088608093EB001092E9008091C2
:10309000E800877F86C02111A7C0109159031F77D0
:1030A0008091E3008078812B8093E3008091E80099
:1030B000877F8093E8000E94E4158091E80080FFFC
:1030C000FCCF8091E30080688093E300112311F02E
:1030D00083E001C082E08093560386C020582230EE
:1030E00008F082C08091590390915A038C3D23E0EF
:1030F000920779F583E08A838AE289834FB7F8944F
:10310000DE01139620E03EE051E2E32FF0E0509321
:103110005700E49120FF03C0E295EF703F5FEF702E
:103120008E2F90E0EA3010F0C79601C0C0968D93C4
:103130009D932F5F243149F74FBF8091E800877F2F
:103140008093E8006AE270E0CE0101960E94EC14E0
:1031500014C0AE014F5F5F4F60915B030E94341457
:10316000009709F441C02091E800277F2093E800F0
:10317000BC0189819A810E944D158091E8008B776E
:103180008093E80031C0203879F58091E800877F8E
:103190008093E800809152038093F1008091E800D1
:1031A0008E778093E8000E94E4151EC021111CC098
:1031B000909159039230C0F48091E800877F80930A
:1031C000E800909352030E94E4158091520381110C
:1031D00004C08091E30087FF02C084E001C081E069
:1031E000809356030E9458138091E80083FF0AC021
:1031F0008091E800877F8093E8008091EB008062F7
:103200008093EB00AA960FB6F894DEBF0FBECDBF39
:10321000DF91CF911F9108959093EA028093E90284
:1032200008958091E9029091EA020895E091E902FF
:10323000F091EA02309721F00190F081E02D09949D
:1032400080E00895FF920F931F93CF93DF938C013B
:10325000E091E902F091EA02309799F10280F3815E
:10326000E02D09958091410382FF2BC080FF04C0AF
:103270008BE597E00E945507E80188E0F82E05E508
:1032800017E08091410380FF0BC088811F928F93CC
:103290001F930F930E94EE070F900F900F900F90C7
:1032A000FA942196F110EDCF8091410380FF09C07F
:1032B00083E597E0DF91CF911F910F91FF900C94E0
:1032C0005507DF91CF911F910F91FF900895E091E5
:1032D000E902F091EA02309721F00480F581E02DB7
:1032E00009940895CF93DF93EC018091E7029091C8
:1032F000E802C817D90709F1D093E802C093E702A2
:10330000E091E902F091EA023097B9F00680F78186
:10331000E02DCE0109958091410382FF0EC080FF10
:103320000CC0DF93CF9385E497E09F938F930E9427
:10333000EE070F900F900F900F90DF91CF910895AF
:10334000CF93DF93EC018091E5029091E602C817DC
:10335000D90709F1D093E602C093E502E091E902B2
:10336000F091EA023097B9F00084F185E02DCE01AA
:1033700009958091410382FF0EC080FF0CC0DF934E
:10338000CF9385E397E09F938F930E94EE070F9072
:103390000F900F900F90DF91CF9108950E94EB2531
:1033A0000C94A508CF92DF92EF92FF920F931F9398
:1033B000CF93DF9300D000D000D0CDB7DEB70E940E
:1033C000D0083CEEE32E32E0F32E00E010E0C02EF9
:1033D000802F0E94A509F701D1907F01D826B1F472
:1033E0000F5F1F4F0830110591F78FEF89838A8394
:1033F0001B820E94F4258160782F9D838C834981F4
:103400005A816B818D810E94C61A48C090914103F8
:1034100091FF04C08E830E94921A8E8120E030E0DA
:103420004D2D50E0922FBA01022E02C0759567957E
:103430000A94E2F760FF2CC02983CA82EE24E39449
:10344000F12C02C0EE0CFF1C9A95E2F790E08E2161
:103450009F2121E0892B09F420E02B830E94F42591
:103460008160782F9D838C8349815A816B818D8106
:103470000E94C61A49815A816B817C818D810E948C
:103480007025F801E451FD4F80818E25808306C0B0
:103490002F5F3F4F2830310529F6A2CF0E946F25BC
:1034A0000E945F291091EB020E941619181741F132
:1034B0000E9416198093EB029091410392FF0EC077
:1034C00090FF0CC01F928F9386E697E09F938F9397
:1034D0000E94EE070F900F900F900F908091EB02DB
:1034E00026960FB6F894DEBF0FBECDBFDF91CF9109
:1034F0001F910F91FF90EF90DF90CF900C9481255A
:1035000026960FB6F894DEBF0FBECDBFDF91CF91E8
:103510001F910F91FF90EF90DF90CF9008950C9442
:10352000B1090895EF92FF920F931F93CF93DF930A
:103530008FE797E00E945507C0E0D0E08EE2E82ECA
:1035400081E0F82E01E717E08C2F0E94A5090E9468
:103550005D25FF92EF921F928F93DF93CF931F937E
:103560000F930E94EE0721968DB79EB708960FB66F
:10357000F8949EBF0FBE8DBFC830D10529F7DF91EB
:10358000CF911F910F91FF90EF900895CF93DF930C
:10359000CDB7DEB72B970FB6F894DEBF0FBECDBF09
:1035A0004F83588769877A878B878A859B85892B84
:1035B00031F05F3F11F080E003C04F3FE1F781E061
:1035C000811107C04F81588569857A858B850E9456
:1035D0007025DE01119686E0FD0111928A95E9F7CA
:1035E00085E0FE01379601900D928A95E1F74981B9
:1035F0005A816B817C818D819E810E94F7212B965F
:103600000FB6F894DEBF0FBECDBFDF91CF91089506
:10361000CF93C82F882309F4A3C08CEF8C0F813A75
:1036200048F48C2F0E947C2C81119AC08C2F0E9410
:1036300074240CC080E28C0F883058F4C77081E08D
:1036400001C0880FCA95EAF70E94B924CF910C9463
:10365000FF248BE58C0F833078F4C53A29F0C63A05
:1036600031F482E890E005C081E890E002C083E890
:1036700090E0CF910C94721988E58C0F853108F099
:103680006FC0C83A61F1C93A69F1CA3A71F1CB3AEF
:1036900079F1CC3A81F1CD3A89F1CE3A91F1CF3A34
:1036A00099F1C13BA1F1C03BA9F1C23BB1F1C33BD0
:1036B000B9F1C43BC1F1C53BC9F1C63BD1F1C73B30
:1036C000D9F1C83BE1F1C93BE9F1CA3BF1F1CB3B90
:1036D000F9F1CC3B09F03FC08AE292E03EC082EEB5
:1036E00090E03BC089EE90E038C08AEE90E035C0B3
:1036F00085EB90E032C086EB90E02FC083EB90E04A
:103700002CC084EB90E029C087EB90E026C08CECC5
:1037100090E023C08DEC90E020C083E891E01DC0D4
:103720008AE891E01AC082E991E017C084E991E04B
:1037300014C081E292E011C083E292E00EC084E204
:1037400092E00BC085E292E008C086E292E005C0FC
:1037500087E292E002C080E090E0CF910C94A01943
:10376000CF910895882329F19CEF980F913A18F48E
:103770000E9495240DC090E2980F983058F48770FD
:1037800091E001C0990F8A95EAF7892F0E94BF2422
:103790000C94FF249BE5980F933020F480E090E098
:1037A0000C947219885A853120F480E090E00C94D2
:1037B000A0190895882321F00E94B9240C94FF24B5
:1037C0000895882321F00E94BF240C94FF240895BB
:1037D000CF92DF92EF92FF920F931F93CF93DF93DD
:1037E000CDB7DEB728970FB6F894DEBF0FBECDBFBA
:1037F0008C0185E0F801DE01119601900D928A9509
:10380000E1F7F80140813181F280258122952F7006
:1038100083819481892B31F03F3F31F481E04F3F28
:1038200019F403C081E001C080E080FDE1C249835A
:103830003A8389819A812F830E9432249E838887CC
:103840000E9431240E9459234E81E42FE295EF70AB
:10385000F0E0E755FF4F2F8168850C94462F842FA9
:10386000807F142F1F70882311F01295107FFF2086
:1038700059F0112309F471C2812F68870E94CC246A
:103880000E94FF24688569C2862F0E94B21B112303
:1038900009F4AEC2812F0E94D22428960FB6F89464
:1038A000DEBF0FBECDBFDF91CF911F910F91FF9073
:1038B000EF90DF90CF900C94FF24842F807F942F83
:1038C0009F70E92E803219F0E29480EFE82266239F
:1038D00019F0613001F129C0FF20A9F08E2D2223BB
:1038E00049F1213039F528960FB6F894DEBF0FBEA6
:1038F000CDBFDF91CF911F910F91FF90EF90DF909F
:10390000CF900C94DC24222319F0213009F470C2EA
:103910000E94E5242CC0FF20E9F0263008F068C2A0
:103920000E94B6248E2129F022C0FF20F1F021113F
:1039300015C08E2D28960FB6F894DEBF0FBECDBFF2
:10394000DF91CF911F910F91FF90EF90DF90CF907B
:103950000C94DA1B253008F04BC209C0F8018581B0
:1039600080FFFBC18F708583E4CF21110AC28E2DA9
:1039700078C1242F26952695237030E02115310536
:1039800021F021303105C9F033C2FF2021F0862F0C
:10399000942F937002C080E090E028960FB6F894C0
:1039A000DEBF0FBECDBFDF91CF911F910F91FF9072
:1039B000EF90DF90CF900C947219FF2021F0862FAA
:1039C000942F937002C080E090E028960FB6F89490
:1039D000DEBF0FBECDBFDF91CF911F910F91FF9042
:1039E000EF90DF90CF900C94A019862FFF2019F054
:1039F0000E94E52702C00E944D2828960FB6F89431
:103A0000DEBF0FBECDBFDF91CF911F910F91FF9011
:103A1000EF90DF90CF900C94D228842F837009F020
:103A200076C0F110E5C1262F229526952770220F2A
:103A3000220F862F8F70C82ED12CE12CF12C022E54
:103A400004C0CC0CDD1CEE1CFF1C0A94D2F764FFF2
:103A500010C06FE070E080E090E004C0660F771F58
:103A6000881F991F2A95D2F760957095809590953B
:103A700003C060E070E0CB01242F269526952370CB
:103A8000422F50E042305105D1F04330510559F1F9
:103A90006C297D298E299F294130510541F12896B5
:103AA0000FB6F894DEBF0FBECDBFDF91CF911F914F
:103AB0000F91FF90EF90DF90CF900C946E236C29C4
:103AC0007D298E299F2928960FB6F894DEBF0FBE58
:103AD000CDBFDF91CF911F910F91FF90EF90DF90BD
:103AE000CF900C9480230E946E23C701B6012896C4
:103AF0000FB6F894DEBF0FBECDBFDF91CF911F91FF
:103B00000F91FF90EF90DF90CF900C945C23FF20FB
:103B100019F0842F817001C08695882309F468C14B
:103B2000262F229526952770220F220F862F8F7021
:103B3000C82ED12CE12CF12C022E04C0CC0CDD1CA3
:103B4000EE1CFF1C0A94D2F764FF10C06FE070E017
:103B500080E090E004C0660F771F881F991F2A95A8
:103B6000D2F7609570958095909503C060E070E005
:103B7000CB01242F269526952370422F50E042300A
:103B80005105D1F04330510559F16C297D298E2919
:103B90009F294130510541F128960FB6F894DEBFB8
:103BA0000FBECDBFDF91CF911F910F91FF90EF908E
:103BB000DF90CF900C940D246C297D298E299F29AC
:103BC00028960FB6F894DEBF0FBECDBFDF91CF9120
:103BD0001F910F91FF90EF90DF90CF900C941F24D6
:103BE0000E940D24C701B60128960FB6F894DEBFD7
:103BF0000FBECDBFDF91CF911F910F91FF90EF903E
:103C0000DF90CF900C94FB23603FD9F128F480E43F
:103C1000860F803250F09CC0623F09F461C008F406
:103C20004BC0633F09F470C093C0162F1071842FEE
:103C30008F716887FF2059F00E94A6236885862F20
:103C4000112319F08295807F75CE8F7073CE0E94FC
:103C5000C1236885862F112319F08295807F01C0CA
:103C60008F7028960FB6F894DEBF0FBECDBFDF91E0
:103C7000CF911F910F91FF90EF90DF90CF900C9418
:103C8000E11BFF20A9F0253008F0B2C0842F8F710E
:103C900028960FB6F894DEBF0FBECDBFDF91CF914F
:103CA0001F910F91FF90EF90DF90CF900C94E02345
:103CB000263008F09DC0EACFFF20A1F0842F8F713D
:103CC00028960FB6F894DEBF0FBECDBFDF91CF911F
:103CD0001F910F91FF90EF90DF90CF900C94A6234F
:103CE000FF2061F3842F8F7128960FB6F894DEBF02
:103CF0000FBECDBFDF91CF911F910F91FF90EF903D
:103D0000DF90CF900C94C123FF2091F0842F8F710E
:103D100028960FB6F894DEBF0FBECDBFDF91CF91CE
:103D20001F910F91FF90EF90DF90CF900C9497230D
:103D300028960FB6F894DEBF0FBECDBFDF91CF91AE
:103D40001F910F91FF90EF90DF90CF900C949223F2
:103D5000FF20A1F0222309F4B1CF862F28960FB6B9
:103D6000F894DEBF0FBECDBFDF91CF911F910F91B1
:103D7000FF90EF90DF90CF900C94081B222309F462
:103D8000B1CF862F28960FB6F894DEBF0FBECDBFF9
:103D9000DF91CF911F910F91FF90EF90DF90CF9027
:103DA0000C94B21B4F70C8010E94F70728960FB6FB
:103DB000F894DEBF0FBECDBFDF91CF911F910F9161
:103DC000FF90EF90DF90CF900C94A4224F70C80129
:103DD00028960FB6F894DEBF0FBECDBFDF91CF910E
:103DE0001F910F91FF90EF90DF90CF900C942108DE
:103DF00028960FB6F894DEBF0FBECDBFDF91CF91EE
:103E00001F910F91FF90EF90DF90CF9008950E9447
:103E1000D9240E94A8240E94FF240E94002A0E9404
:103E2000D22880E090E00E94721980E090E00C942B
:103E3000A0190E94C9240C94071F0E943224292F24
:103E400022952F7030E02C3031054CF42A303105AA
:103E5000C4F4225031092230310540F021C02C3009
:103E60003105D1F02F303105B9F01AC0853A28F468
:103E70008430C0F4823028F415C090E2980F983056
:103E800088F0883E30F4803E68F48450813A40F4F3
:103E900009C0803F29F406C093FB882780F9089564
:103EA00080E0089581E00895CF93DF9300D000D0A3
:103EB0001F92CDB7DEB70F900F900F900F900F901D
:103EC000DF91CF910895CF93DF9300D000D000D041
:103ED000CDB7DEB726960FB6F894DEBF0FBECDBFC6
:103EE000DF91CF9108951F93CF93DF93C091F40298
:103EF00016E08091F502C81799F0D0E01C9FF00100
:103F00001D9FF00D1124EA50FD4F408151816281C7
:103F10007381848195810E94631F2196C770E9CFC8
:103F2000DF91CF911F91089540912603509127036F
:103F3000609128037091290380912A0390912B03AB
:103F40000C94631FCF9380912B0382958F7009F09F
:103F50005FC080912803882309F45AC02091F4029D
:103F6000A091F502609126037091270380912903A7
:103F700090912A0331E06F3F09F030E0B32FC6E0A3
:103F80002A1709F445C0009721F07F3F21F44B2FF9
:103F900003C041E001C040E030E040FD35C0C29FB9
:103FA000F001C39FF00D1124EA50FD4F41817413BD
:103FB0002BC04081641328C04281411125C0438138
:103FC00054814817590710F441505109481B590BA7
:103FD0004C325140C8F480912B038F7080618093E4
:103FE0002B0386E0829FF001839FF00D1124E550A2
:103FF000FD4F80818F708061808386E293E00E9414
:10400000E81BCF910C94731F2F5F3F4F2770B8CFE1
:10401000CF910895CF92DF92EF92FF920F931F936B
:10402000CF93DF93CDB7DEB762970FB6F894DEBFBC
:104030000FBECDBF8C0185E0F801DE011D96019019
:104040000D928A95E1F7D8014C9111965C911197E8
:1040500012966C9112971396ED90FC9014977091B4
:104060002603E09127032091290330912A0321158B
:10407000310531F0EF3F31F481E07F3F19F403C0A7
:1040800081E001C080E0B82FB170CB2E80FD6DC102
:10409000D0902803DD2009F4F6C0F0912B03E2163E
:1040A000F30638F0C701821B930B8C32914048F025
:1040B0009CC0209530952E0D3F1D2C32314008F0CC
:1040C00094C08F2F807F09F053C0E51315C074137F
:1040D00013C0D62E611110C0FF70F061F0932B0356
:1040E0000E94941F86E293E00E94E81B80912B03BC
:1040F000D80115968C936BC1EF2831F05F3F31F4F6
:1041000081E04F3F19F403C081E001C080E080FDF1
:1041100003C081E0862701C080E0B82FB170FB2E7C
:1041200080FF1CC08091F4022091F50236E08217D6
:1041300009F428C190E0389FF001399FF00D112457
:10414000EA50FD4F7181571306C07081471303C0B9
:104150007281671303C001968770E9CFD62E66235C
:1041600009F435C180912B03816080932B0353C0E8
:10417000E51308C0741306C0611104C0D801159678
:10418000FC93AEC04D875E878D859E856A8B0E94AD
:104190001D1F6A89882329F1D62E662311F12091EB
:1041A0002B03822F82958F7090E002970CF460C0F1
:1041B000809126039091270398878F831986FB8629
:1041C000EA862C87CE01079651C0E51731F14D875D
:1041D0005E878D859E856A8B0E941D1F6A8981116D
:1041E0002EC0C8010E94E81BA4C08F2F807F69F7F2
:1041F0007E2DF98AE88A89890E94541F86E293E01D
:104200000E94E81BE6E2F3E086E0DF011D928A955A
:10421000E9F70E94941FD12CDAC07413D8CF611132
:10422000D6CFD8011596FC93C8010E94E81BE6E2A0
:10423000F3E086E0DF011D928A95E9F7C8C0D62E2B
:10424000662379F220912B03822F82958F7090E064
:10425000029774F080912603909127039A838983B3
:104260001B82FD82EC822E83CE0101960E94E81B08
:1042700086E0F801A6E2B3E001900D928A95E1F79D
:104280000E94A21F6FC0E216F30640F0C701821B16
:10429000930B9C012C32314048F057C0209530954B
:1042A0002E0D3F1D2C32314008F04FC0D62E662314
:1042B00009F497CFE51329C0741327C080912B030D
:1042C00080FD1AC0982F92959F70B1F0F8018583F8
:1042D0009F3031F09F5F9295907F8F70892B8583FF
:1042E000C8010E94E81B86E0F801A6E2B3E0019055
:1042F0000D928A95E1F736C086E0F801A6E2B3E0B8
:1043000001900D928A95E1F762C04D875E878D8599
:104310009E850E941D1F882379F086E0F801A6E2A1
:10432000B3E001900D928A95E1F70E94A21F0E94CE
:10433000941FDD24D3944BC080912B038160809324
:104340002B03C8010E94E81B42C07E2DF98AE88A2F
:1043500089890E94541FE6E2F3E086E0DF011D92A6
:104360008A95E9F70E94941F32C0662309F439CF79
:104370004D875E878D859E850E941D1F882309F4C9
:1043800030CFCBCF4D875E878D859E850E943224AE
:10439000292F22952F7030E0223031052CF49F70A8
:1043A00041F0811106C00CC0243031052CF49F70FF
:1043B00049F4805E883020F0C8010E94E81BCF2CB1
:1043C000DC2C05C0F8019581907F99F7F9CF8D2DF0
:1043D00062960FB6F894DEBF0FBECDBFDF91CF91CE
:1043E0001F910F91FF90EF90DF90CF9008951F9352
:1043F000CF93DF93CDB7DEB72C970FB6F894DEBF1F
:104400000FBECDBF4F83588769877A878B879C877C
:10441000CE0107960E940A208823C1F02F8138859B
:104420008A859B85892B31F03F3F11F080E003C0E6
:104430002F3FE1F781E0811147C04F8158856985A1
:104440007A858B859C850E94631F3EC086E0FE01B5
:104450003796DE01119601900D928A95E1F7FF8162
:10446000E8854A855B854115510531F0EF3F31F410
:1044700081E0FF3F19F403C081E001C080E080FDCE
:1044800023C02091F50230E0C90101968770992779
:104490006091F40270E086179707F1F1F983EA83DF
:1044A0005D834C8396E0929FD001939FB00D1124C1
:1044B000AA50BD4FFE01319601900D929A95E1F7F9
:1044C0008093F5020E94731F16E08091F402909190
:1044D000F502891779F1189FC00111248A509D4F68
:1044E0000E940A20882331F1E091F4021E9FF0011E
:1044F0001124EA50FD4F4081518162817381848192
:1045000095810E94631F8091F40290E0019687706C
:1045100099278093F402D9CF0E94191F1092F502B7
:104520001092F402E6E2F3E086E0DF011D928A9544
:10453000E9F7CACF2C960FB6F894DEBF0FBECDBFF9
:10454000DF91CF911F910895DF92EF92FF920F9329
:104550001F93CF93DF93FC01009709F48AC0E12CED
:10456000F12CDD24D394EF0121968491853709F451
:1045700061C058F4843708F04EC0843008F06AC037
:104580008130D1F0823071F174C0883709F45DC098
:1045900050F4863709F455C0873709F06AC08E2D6C
:1045A0000E94C62454C09CE7980F903708F061C061
:1045B0008F770E94B21B50C08F010E5F1F4FFE010C
:1045C000849190E2980F983050F48770FD2D01C0CF
:1045D000FF0F8A95EAF78F2F0E94CC2415C00E9406
:1045E000081B14C08F010E5F1F4FFE01849190E2E3
:1045F000980F983068F48770FD2D01C0FF0F8A95E1
:10460000EAF78F2F0E94D2240E94FF24E80124C0E1
:104610000E94B21BFBCF9F012E5F3F4FFE01C49152
:10462000CC2369F08FE99FE00197F1F700C000000B
:10463000C150F6CF9F012E5F3F4FFE01F490E9017C
:104640000BC00E94B624E82E07C00E94C9240E9415
:10465000FF2402C00E94081B9F2D992341F0EFE91F
:10466000FFE03197F1F700C000009150F6CFFE0156
:104670007ACFDF91CF911F910F91FF90EF90DF9054
:1046800008956093300370933103809332039093C5
:1046900033030E947F250C94071F60932C037093B3
:1046A0002D0380932E0390932F030E9480250C945A
:1046B000071F08950C9441230F931F93009130031B
:1046C000109131032091320330913303602B712B11
:1046D000822B932B1F910F910C9441230F931F93C7
:1046E0000091300310913103209132033091330354
:1046F00060237123822393231F910F910C944123F4
:104700000F931F93009130031091310320913203D6
:104710003091330360277127822793271F910F91D0
:104720000C94412360E070E0CB010C944D2341E0F8
:1047300050E060E070E004C0440F551F661F771F13
:104740008A95D2F7CB01BA010C944D2341E050E099
:1047500060E070E004C0440F551F661F771F8A9504
:10476000D2F780912C0390912D03A0912E03B0914C
:104770002F03482B592B6A2B7B2BCB01BA010C94AE
:104780004D2341E050E060E070E004C0440F551F4D
:10479000661F771F8A95D2F7409550956095709562
:1047A00080912C0390912D03A0912E03B0912F03A3
:1047B000482359236A237B23CB01BA010C944D2350
:1047C00041E050E060E070E004C0440F551F661FF8
:1047D000771F8A95D2F780912C0390912D03A09199
:1047E0002E03B0912F03482759276A277B27CB0137
:1047F000BA010C944D230F931F9300912C03109139
:104800002D0320912E0330912F03602B712B822BCF
:10481000932B1F910F910C944D230F931F93009195
:104820002C0310912D0320912E0330912F03602330
:104830007123822393231F910F910C944D230F9387
:104840001F9300912C0310912D0320912E03309182
:104850002F0360277127822793271F910F910C94B4
:104860004D230895CF92DF92EF92FF920F931F9303
:10487000CF93DF93EC01C0903003D0903103E090F0
:104880003203F090330380912C0390912D03A0917B
:104890002E03B0912F03C82AD92AEA2AFB2A0FE156
:1048A00010E0B701A601002E04C0769567955795D4
:1048B00047950A94D2F740FF07C0BE01802F0E949F
:1048C000C4268130910539F40150110950F7BE0119
:1048D00080E00E94C426DF91CF911F910F91FF903D
:1048E000EF90DF90CF9008954091210150912201E7
:1048F00020E030E09FEFFA01E20FF31F62816817BA
:1049000099F09F3F19F4611101C0922F2F5F3F4F23
:104910002630310581F79F3F39F0FA01E90FF11D8B
:1049200097FDFA9582830895089540912101509151
:10493000220120E030E0FA01E20FF31F9281981388
:1049400001C012822F5F3F4F26303105A1F7089535
:1049500081E090E0E0912101F0912201E80FF91F40
:104960001082019688309105A9F70895809140033F
:10497000089590914003982B90934003089580955B
:1049800090914003982390934003089580934003AF
:10499000089510924003089590913F03982B9093AF
:1049A0003F030895809590913F03982390933F0390
:1049B000089510923F030895809336030E94F425D2
:1049C0009093350380933403089510923603109228
:1049D0003503109234030895409121015091220132
:1049E00020E030E080E0FA01E20FF31F91819111A5
:1049F0008F5F2F5F3F4F27303105A9F70895E09172
:104A00002101F0912201809140038083E0912101F6
:104A1000F0912201808190913F03892B80838091C6
:104A20003603882309F43EC00E94F4252091340304
:104A3000309135038217930760F00E94F42520918E
:104A4000340330913503821B930B8C32914070F408
:104A50001BC00E94F425209134033091350320952A
:104A60003095280F391F2C32314070F0809141036E
:104A700080FF08C08DE897E09F938F930E94EE0718
:104A80000F900F900E94E524E0912101F091220106
:104A9000808190913603892B80830E94EC248111C0
:104AA0000E94E52480912101909122010C94221909
:104AB00090939B0180939A0108958295982F9C7CF6
:104AC00096959695837344E0849F90011124922BD0
:104AD000892F8A7A86959575990F892B089508955F
:104AE000CF93DF9300D000D01F92CDB7DEB70F90E9
:104AF0000F900F900F900F90DF91CF910895089530
:104B000008950C948F1A80915603843009F1109205
:104B1000420320E488E190E00FB6F894A8958093D2
:104B200060000FBE2093600083B7817F846083BFE5
:104B300083B7816083BF7894889583B78E7F83BF66
:104B400088E10FB6F89480936000109260000FBE69
:104B50000895CF930E94AD090E94D0080E94AF092A
:104B6000C0E08C2F0E94A509811105C0CF5FC8301D
:104B7000C1F780E001C081E0CF9108950E94911AB1
:104B80000C94191F1F920F920FB60F9211248F933E
:104B90009F93AF93BF9380914203811113C0809183
:104BA000430390914403A0914503B091460341967D
:104BB000A11DB11D8093430390934403A09345032B
:104BC000B0934603BF91AF919F918F910F900FBE0D
:104BD0000F901F90189582E084BD93E095BD9AEFE9
:104BE00097BD80936E0008952FB7F894809143038A
:104BF00090914403A0914503B09146032FBF0895BF
:104C00002FB7F8946091430370914403809145035A
:104C1000909146032FBF0895CF92DF92EF92FF92BB
:104C20000F931F932FB7F89440914303509144037F
:104C300060914503709146032FBF6A017B01EE240A
:104C4000FF248C0120E030E0C016D106E206F30616
:104C500010F441505109481B590BCA011F910F9183
:104C6000FF90EF90DF90CF900895CF92DF92EF9278
:104C7000FF920F931F934FB7F89400914303109145
:104C8000440320914503309146034FBF68017901E9
:104C9000C61AD70AE80AF90A0617170728073907B4
:104CA00018F0C701B60106C0C701B601615071090D
:104CB000810991091F910F91FF90EF90DF90CF90A4
:104CC00008951F920F920FB60F9211248F939F9306
:104CD000AF93BF938091430390914403A091450308
:104CE000B09146030196A11DB11D8093430390939B
:104CF0004403A0934503B0934603BF91AF919F91A6
:104D00008F910F900FBE0F901F9018950E9435162F
:104D1000F8942FEF87EA91E6215080409040E1F728
:104D200000C0000087E090EBDC0180935F0390936C
:104D30006003A0936103B09362032CE088E190E0EC
:104D40000FB6F894A895809360000FBE2093600082
:104D5000FFCFE72FF0E098E0899FE00DF11D1124CF
:104D600083E0EE0FFF1F8A95E1F7E60FF11DEB548C
:104D7000FE4F84910895E82FF0E0EE0FFF1FE55DF0
:104D8000FF4F8591949108950E94A92690E4980F71
:104D9000903218F40E94BB2608958D3B60F4883A47
:104DA000A0F5853A38F5843010F5813009F088C0D7
:104DB00021E030E087C0883E98F4803EC0F48F3B0D
:104DC00009F07EC00E94191F2FEF80E792E021506A
:104DD00080409040E1F700C000000E94862670C02D
:104DE000803F08F46DC0282F30E030656BC0282F5D
:104DF00030E068C0853A21F0863A21F492E803C099
:104E000091E801C093E880E458C0883A51F1893AAA
:104E100051F18A3A51F18B3A51F18C3A51F18D3A74
:104E200051F18E3A51F18F3A51F1813B51F1803B72
:104E300051F1823B51F1833B51F1843B51F1853B70
:104E400051F1863B59F1873B59F1883B59F1893B38
:104E500059F18A3B59F18B3B59F18C3B61F59AE250
:104E600028C092EE29C099EE27C09AEE25C095EB96
:104E700023C096EB21C093EB1FC094EB1DC097EBB2
:104E80001BC09CEC19C09DEC17C093E805C09AE8C4
:104E900003C092E901C094E985E40FC091E209C022
:104EA00093E207C094E205C095E203C096E201C018
:104EB00097E286E402C090E084E4292F382F02C0F4
:104EC00020E030E0C90108958091490380FF0BC0C4
:104ED0006091260185E0689FB00111247595679562
:104EE000759567952AC081FF09C06091260185E00C
:104EF000689FB0011124759567951FC082FF07C098
:104F00006091260185E0689FB001112416C0409190
:104F10004A034423C9F060912501461788F7209180
:104F2000260185E0289F90011124429FC001439FE4
:104F3000900D112470E00E94102F6038710540F42C
:104F40006115710539F002C065E070E0862F0895A3
:104F50008FE7089581E008958091490380FF08C09C
:104F60006091240170E0759567957595679521C0EE
:104F700081FF06C06091240170E07595679519C0A6
:104F800082FF04C06091240170E010C080914A0348
:104F90008823C1F0609123018617A0F79091240126
:104FA000989FC001112470E00E94102F6038710595
:104FB00028F46115710521F0862F08958FE7089573
:104FC00081E0089561E070E0F4CF803F21F40E9419
:104FD0006427819504C0813F29F40E94642780934F
:104FE0004D030895823F21F40E946427819504C0F7
:104FF000833F29F40E94642780934C030895893FDE
:1050000019F40E94AC2705C08A3F31F40E94AC27F6
:10501000819580934E0308958B3F21F40E94AC2725
:10502000819504C08C3F29F40E94AC2780934F03E4
:105030000895843F21F480914B03816017C0853F20
:1050400021F480914B03826011C0863F21F480914E
:105050004B0384600BC0873F21F480914B03886031
:1050600005C0883F31F480914B03806180934B03EE
:1050700008958D3F21F48091490381600BC08E3FDC
:1050800021F480914903826005C08F3F29F480910B
:1050900049038460809349030895803F39F48091E7
:1050A0004D0387FF6CC010924D0369C0813F29F406
:1050B00080914D031816BCF362C090914C03823F5F
:1050C00029F497FF5CC010924C0359C0833F19F438
:1050D0001916CCF354C0893F41F480914E03181641
:1050E0000CF04DC010924E034AC08A3F29F48091C3
:1050F0004E0387FF44C0F6CF8B3F39F480914F03B6
:1051000087FF3DC010924F033AC08C3F29F4809135
:105110004F031816BCF333C0843F21F480914B0336
:105120008E7F17C0853F21F480914B038D7F11C086
:10513000863F21F480914B038B7F0BC0873F21F486
:1051400080914B03877F05C0883F31F480914B03EA
:105150008F7E80934B0313C08D3F21F480914903D0
:105160008E7F0BC08E3F21F4809149038D7F05C057
:105170008F3F29F4809149038B7F8093490380916D
:105180004C0381110EC080914D0381110AC08091A2
:105190004E03811106C080914F03811102C010920D
:1051A0004A0308958091410383FF7EC086EC97E017
:1051B0000E94550780914B031F928F9381EC97E0DB
:1051C0009F938F930E94EE078FEB97E00E94550705
:1051D00020914C03822F992787FD90959F932F93C1
:1051E0008CEB97E09F938F930E94EE078AEB97E0FA
:1051F0000E94550720914D03822F992787FD909596
:105200009F932F9387EB97E09F938F930E94EE07D6
:1052100085EB97E00E94550720914E03822F992736
:1052200087FD90959F932F9382EB97E09F938F93A9
:105230000E94EE0780EB97E00E94550720914F03F4
:10524000822F992787FD90959F932F938DEA97E062
:105250009F938F930E94EE078AEA97E00E9455077A
:1052600080914A031F928F9387EA97E09F938F93D1
:105270000E94EE0785EA97E00E9455078091490356
:105280001F928F9382EA97E09F938F930E94EE077D
:105290008FE997E00E9455078DB79EB74C960FB6E1
:1052A000F8949EBF0FBE8DBF8BE493E00E946719F8
:1052B0000E94F425909348038093470308951F9319
:1052C000CF93DF9380914703909148030E940C266F
:1052D00040914A03442321F02091270130E006C089
:1052E000209128015AE0259F9001112482179307ED
:1052F00008F482C080914C0310914D03D0914E036D
:10530000C0914F03811107C0111105C0D11103C015
:10531000CC2309F471C04F3F19F04F5F40934A030B
:10532000181624F40E94642780934C0380914C0348
:1053300087FF05C00E946427819580934C03111656
:1053400024F40E94642780934D0380914D0387FFCE
:1053500005C00E946427819580934D0360914C03A2
:10536000662339F110914D03112319F1772767FD59
:105370007095872F972F0E94012E23E333E343E399
:105380005FE30E94652E0E94CE2D60934C03612F37
:10539000772767FD7095872F972F0E94012E23E3B3
:1053A00033E343E35FE30E94652E0E94CE2D6093BA
:1053B0004D031D1624F40E94AC2780934E03809168
:1053C0004E0387FF05C00E94AC27819580934E0352
:1053D0001C1624F40E94AC2780934F0380914F0346
:1053E00087FF05C00E94AC27819580934F03DF9112
:1053F000CF911F910C94D228DF91CF911F910895E6
:10540000EBE4F3E085E0DF011D928A95E9F7109265
:105410004A0310924903089589EE99E00E945507C6
:105420001F9281E08F931F9285E08F938BE999E023
:105430009F938F930E94EE070F900F900F900F9005
:105440000F900F9008958330E9F128F4813061F0D6
:10545000823009F10895853009F462C008F449C02A
:10546000863009F474C0089520912801862F90E0B9
:10547000820F911D8F3F910520F4620F60932801E8
:1054800003C08FEF80932801809128011F928F9392
:1054900084ED98E072C020912701862F90E0820F62
:1054A000911D8F3F910520F4620F6093270103C087
:1054B0008FEF80932701809127011F928F9382ECB9
:1054C00098E05BC020912601862F90E0820F911D0D
:1054D0008F3F910520F4620F6093260103C08FEF88
:1054E00080932601809126011F928F938FEA98E086
:1054F00044C020912501862F90E0820F911D8F3F9F
:10550000910520F4620F6093250103C08FEF809313
:105510002501809125011F928F938AE998E02DC083
:1055200020912401862F90E0820F911D8F3F9105DD
:1055300020F4620F6093240103C08FEF8093240155
:10554000809124011F928F9381E898E016C02091EA
:105550002301862F90E0820F911D8F3F910520F44B
:10556000620F6093230103C08FEF8093230180912A
:1055700023011F928F9386E698E09F938F930E945A
:10558000EE070F900F900F900F900895833081F1E8
:1055900028F4813059F08230D1F00895853009F433
:1055A00049C0B8F1863009F456C0089580912801A9
:1055B000681720F4861B8093280102C010922801EE
:1055C000809128011F928F9387E598E054C08091C5
:1055D0002701681720F4861B8093270102C01092D0
:1055E0002701809127011F928F9385E498E043C0A3
:1055F00080912601681720F4861B8093260102C043
:1056000010922601809126011F928F9382E398E0E9
:1056100032C080912501681720F4861B80932501F4
:1056200002C010922501809125011F928F938DE178
:1056300098E021C080912401681720F4861B809394
:10564000240102C010922401809124011F928F93A3
:1056500084E098E010C080912301681720F4861B35
:105660008093230102C010922301809123011F9295
:105670008F9389EE97E09F938F930E94EE070F9090
:105680000F900F900F900895CF93C82F1F928F9374
:105690002EEE3AE03F932F930E94EE0761E070E018
:1056A00080E090E004C0660F771F881F991FCA959D
:1056B000D2F70E945A230F900F900F900F90CF9126
:1056C0000C94191FCF93873288F58E3108F008C1EA
:1056D0008E3009F486C0D8F4873009F460C08B306E
:1056E00009F44FC0863009F0FFC080914103817FEB
:1056F0008E7F8093410383EF9AE00E94550783E9F0
:105700009DE00E94550781E08093510346C0863199
:1057100009F4ADC020F4803109F478C0E5C08931C6
:1057200009F48EC08B3109F449C0DEC0883349F1D9
:1057300050F4893209F4D2C0853309F4CFC08732DE
:1057400009F0D2C0CBC0833409F4C8C028F48A332E
:1057500008F4CAC08953C5C0883409F0C5C00E9486
:10576000191F82E89DE00E9455072FEF83ED90E31B
:10577000215080409040E1F700C000000E94862642
:105780000CC08AE19BE03FC089E69DE00E9455077E
:1057900080914103816080934103C1E0AAC0809160
:1057A0004103C82FC17080FFEFCF85E79DE00E94C5
:1057B000550780914103817F8E7F3CC080914103DA
:1057C00081FBCC27C0F991E0C927C0FB81F9809308
:1057D0004103CC2319F08CE59DE027C08EE49DE0C9
:1057E00012C08091410382FBCC27C0F991E0C92708
:1057F000C0FB82F980934103CC2319F08FE39DE035
:1058000014C08FE29DE00E945507C7CF80914103ED
:1058100083FBCC27C0F991E0C927C0FB83F98093B3
:105820004103CC2351F083E29DE00E945507809113
:1058300041038160809341035CC086E19DE0E3CF3A
:1058400087E09DE00E9455078AED9CE00E94550785
:1058500083EA9CE00E9455078CE79CE00E94550774
:1058600086E49CE00E94550788E19CE0CCCF8AE06A
:105870009CE00E9455070E9416191F928F9380EF9B
:105880009BE09F938F930E94EE07809120011F92CF
:105890008F9389ED9BE09F938F930E94EE078091F9
:1058A000E4021F928F9386EC9BE09F938F930E945C
:1058B000EE070E9400269F938F937F936F938FEA4A
:1058C0009BE09F938F930E94EE078DB79EB7429601
:1058D0000FB6F8949EBF0FBE8DBF5FCF80E001C0B2
:1058E0008D510E94442B59CF8DEA9BE00E945507B1
:1058F000C0E08C2FCF910895CF93C82F8091510392
:10590000813071F020F0823009F448C03FC1A0918D
:105910002101B09122018C91823209F039C107C076
:10592000A0912101B09122018C91823249F48C2FF7
:105930000E94EB0C81112FC08C2F0E94622B2CC077
:105940008C2F0E94180F811126C0C431E1F070F431
:10595000CB3081F0C031D1F40E940C2A86EE9AE05F
:105960000E94550782E08093510315C0C93259F057
:10597000C83361F483EF9AE00E9455078AEE9AE0FB
:105980000E94550708C01092510304C184EE9AE0AA
:105990000E945507FFC081E08170FEC0C43228F527
:1059A000CE3108F0C1C0CB30A1F1D0F4C73009F03E
:1059B000D3C08EE18093280182E3809327018AE09F
:1059C0008093260184E18093250188E0809324015F
:1059D00088E2809323018AE899E00E945507BFC0BE
:1059E000C33149F1C431C1F0B7C0CB3409F4A9C007
:1059F00028F4C93289F0C83361F0AEC0C13509F46A
:105A00009EC0C23509F499C0CE3409F0A5C06AE041
:105A10009EC00E940C2AA3C080915003882319F0D5
:105A2000109250039CC087E999E00E94550781E0DD
:105A300080935103B1C081E799E00E9455078FE53B
:105A400099E00E945507809128011F928F938CE561
:105A500099E09F938F930E94EE078AE599E00E9458
:105A6000550788E499E00E945507809127011F920D
:105A70008F9385E499E09F938F930E94EE0783E4D0
:105A800099E00E94550784E399E00E9455078091B0
:105A900026011F928F9381E399E09F938F930E9439
:105AA000EE078FE299E00E9455078EE199E00E948F
:105AB0005507809125011F928F938BE199E09F9369
:105AC0008F930E94EE0789E199E00E94550784E0D8
:105AD00099E00E945507809124011F928F9381E0E5
