:100000000C9440070C9484070C9484070C94840788
:100010000C9484070C9484070C9484070C94840734
:100020000C9484070C9484070C9457170C9429188B
:100030000C9469260C9484070C9484070C94840710
:100040000C9484070C9484070C9484070C94840704
:100050000C9484070C9408270C9484070C94840750
:100060000C9484070C94A20A0C9484070C948407C3
:100070000C9484070C9484070C9484070C948407D4
:100080000C9484070C9484070C9484070C948407C4
:100090000C9484070C9484070C9484070C948407B4
:1000A0000C9484070C9484070C948407A308B1086B
:1000B000C808D508E108F00804091509D50FDA0FBA
:1000C000DF0FE40FE90FEE0FF30FF80FFD0F021033
:1000D00007100C10111016101B10201025102A10DC
:1000E0002F10341039103E10431048104D1052108C
:1000F00057105C10611066106B10701075107A103C
:100100007F108410D30FCE1089108B108D108F109C
:10011000941099109E10A310A810AC10B110B61036
:10012000BB10C010C510CC10CC10CC10CC10CC1013
:10013000CC10CC10CC10CC10CC10CC10CC10CC10DF
:10014000CC10CC10CC10CC10CC10CC10CA108E1807
:10015000B0189B19B0189B19F21815199B196A1938
:100160007D19D61CD61C041D041D601D9C1D9F1FDF
:100170009F1FB41D9F1FAB1EAB1E791F9F1F9F1F8C
:100180008D1F02350001E3013500022B0001E20161
:100190002B0001A902A9007500010B020B01080246
:1001A00008010F020F010F020F74FF01120212006B
:1001B000018CC8A1C1A2000000000000F1A600004F
:1001C0000000000002F001F000F003F00000000069
:1001D00004F005F006F007F01F141A16041D1B06A4
:1001E000202115080709190522231C170A0B1100E5
:1001F0001E292BC2E1E2C12C2425180C0E0D100083
:1002000031352A28C6E5E6E726271213330F3600D4
:100210002D2E302F343837001F141A16041D1B06DC
:10022000202115080709190522231C170A0B1100A4
:100230001E352BE0E1E2012C2425180C0E0D1000D8
:1002400031352A2801E5E6E726271213330F360059
:100250002D2E302F34383700010101010101010139
:1002600001D201D0010101D101D3010101CA010074
:1002700001292B01E1E2E32C01010101CCCB0100BA
:10028000494C2A0101E5E6E70101010101CD010028
:100290000101010101010100000000000000000057
:1002A000000000000000000000000000000000004E
:1002B000000000000000000000000000000000003E
:1002C000000000000000000000000000000000002E
:1002D000000000000000000000000000000000001E
:1002E000000000000000000000000000000000000E
:1002F00000000000000000000000000000000000FE
:1003000000000000000000000000000000000000ED
:1003100000000000000000000000000000000000DD
:1003200000000000000000000000000000000000CD
:1003300000000000000000000000000000000000BD
:1003400000000000000000000000000000000000AD
:1003500000000000000000003B0000A9AA0000000F
:100360003C3D0000A80000003E3F00000055570043
:100370003AA539E0E1E2E301404100464A54560023
:10038000494C2A2801E5E6E742434748504B4D00D7
:100390004445C4524F514E0025630025730D0A0099
:1003A000522C310D0A0053592C464646340D0A0092
:1003B00053482C303033430D0A00537E2C360D0A3F
:1003C0000053572C383030300D0A00534D2C340D6B
:1003D0000A0053532C4B6579626F6172642F4D6F25
:1003E0007573650D0A00532D2C546D6B42540D0A24
:1003F0000053462C310D0A002D2D2D0D0A00457895
:100400006974696E6720636F6E666967206D6F64DB
:1004100065202E2E2E0A002B0D0A00760D0A0024D0
:10042000242400456E746572696E6720636F6E6682
:100430006967206D6F6465202E2E2E0A00522C31C4
:100440000D0A0053522C5A0D0A00555342206D6F6D
:1004500064650A004175746F206D6F64650A00253C
:100460003032750A00253032753A00253032753A3F
:10047000004241543A2025756D5609007570746923
:100480006D653A202530327520253032753A253099
:1004900032753A253032750A00564255533A2025B6
:1004A000580A0052656D6F746557616B65757045CC
:1004B0006E61626C65643A2025580A000A003F00AC
:1004C0004C4F570044495343484700434841524723
:1004D0000046554C4C00626174746572793A200094
:1004E0005553422053746174653A2025730A0063A2
:1004F0006F6E6669675F6D6F64653A2025580A0004
:10050000726E34325F6175746F636F6E6E656374A3
:10051000696E6728293A2025580A00726E34323AEB
:100520002025730A00666F7263655F7573623A20F7
:1005300025580A0070726F746F636F6C3A202573D0
:100540000A000A2D2D2D2D2D20524E2D34322069DA
:100550006E666F202D2D2D2D2D0A00753A2020203E
:1005600020202020746F67676C6520466F7263657A
:1005700020555342206D6F64650A00703A20202098
:100580002020202070616972696E670A00536C63D5
:100590006B3A20202020524E2D343220696E69742F
:1005A00069616C697A650A0044656C3A20202020F4
:1005B00020656E7465722F6578697420524E2D34F3
:1005C0003220636F6E666967206D6F64650A006232
:1005D0003A202020202020206261747465727920E6
:1005E000766F6C746167650A00693A2020202020CC
:1005F0002020524E2D343220696E666F0A000A0A9E
:100600002D2D2D2D2D20426C7565746F6F74682013
:10061000524E2D34322048656C70202D2D2D2D2DFD
:100620000A00253032753A253032753A2530327558
:100630000925756D560A004C454420737461747524
:10064000733A20253032580A0020253032580025D0
:1006500063005B735D004B6579626F617264207348
:10066000746172740A00524E2D343220696E6974BE
:100670000A000A55534220696E69740A005B445DA2
:10068000005B435D001203480048004B004200201D
:10069000006D006F00640000000E0374002E006DFA
:1006A000002E006B002E00000004030904090274F0
:1006B00000040100A0320904000001030101000947
:1006C00021110100012240000705810308000A09E9
:1006D0000401000103010200092111010001224D62
:1006E000000705820308000A090402000103000054
:1006F00000092111010001223600070583030800CB
:100700000A0904030002030000000921110100018D
:1007100022220007058403200001070504032000AE
:10072000011201100100000008EDFE424204010127
:100730000200010631FF0974A1010975150026FFA9
:10074000009520750881020976150026FF00952086
:1007500075089102C005010980A10185021681007A
:1007600026B7001A81002AB700751095018100C0D4
:10077000050C0901A1018503160100269C021A013E
:10078000002A9C02751095018100C005010902A193
:10079000010901A100050919012905150025019587
:1007A0000575018102950175038101050109300973
:1007B000311581257F950275088106093815812537
:1007C0007F950175088106050C0A38021581257F81
:1007D000950175088106C0C005010906A10105073C
:1007E00019E029E715002501950875018102950199
:1007F0007508810105081901290595057501910202
:100800009501750391010507190029FF150026FFC1
:1008100000950675088100C0636F6E73756D657213
:100820003A20253034580A0073797374656D3A2084
:10083000253034580A000A002530325820006B65F4
:1008400079626F6172643A20004C45443A20253049
:1008500032580A00253032583A2025303862257344
:100860000A00722F632030313233343536370A00B4
:100870004F6E6573686F743A2074696D656F757437
:100880000A00290A002575002F002575005D280043
:100890002564002000256400200025640020002538
:1008A00064007C0025303258006D6F7573656B6590
:1008B00079205B62746E7C782079207620685D28D0
:1008C0007265702F61636C293A205B006D6B5F77F6
:1008D0006865656C5F74696D655F746F5F6D617885
:1008E000203D2025640A006D6B5F776865656C5F4D
:1008F0006D61785F7370656564203D2025640A0032
:100900006D6B5F74696D655F746F5F6D6178203DBD
:100910002025640A006D6B5F6D61785F737065659B
:1009200064203D2025640A006D6B5F696E746572FA
:1009300076616C203D2025640A006D6B5F64656CF8
:100940006179203D2025640A006D6B5F77686565DD
:100950006C5F74696D655F746F5F6D6178203D20B9
:1009600025640A006D6B5F776865656C5F6D617803
:100970005F7370656564203D2025640A006D6B5FC0
:1009800074696D655F746F5F6D6178203D202564CB
:100990000A006D6B5F6D61785F7370656564203D03
:1009A0002025640A006D6B5F696E74657276616CF8
:1009B000203D2025640A006D6B5F64656C617920C1
:1009C0003D2025640A000A00257500363A20776824
:1009D00065656C5F74696D655F746F5F6D61783AB2
:1009E00020000A00257500353A20776865656C5F40
:1009F0006D61785F73706565643A20000A00257543
:100A000000343A2074696D655F746F5F6D61783A88
:100A100020000A00257500333A206D61785F7370FD
:100A20006565643A20000A00257500323A20696E37
:100A300074657276616C286D73293A20000A00256E
:100A40007500313A2064656C6179282A31306D7304
:100A5000293A20000A092D2056616C756573202DF6
:100A60000A004D3E004D25643E20003F0073657432
:100A70002064656661756C740A00433E20007768E7
:100A80006572652064656C74613A20637572736F7A
:100A9000723D25642C20776865656C3D25640A539A
:100AA000656520687474703A2F2F656E2E77696BB8
:100AB0006970656469612E6F72672F77696B692F42
:100AC0004D6F7573655F6B6579730A000A092D2098
:100AD0004D6F7573656B6579202D0A4553432F71F2
:100AE0003A09717569740A313A0964656C6179284B
:100AF0002A31306D73290A323A09696E746572764B
:100B0000616C286D73290A333A096D61785F7370DF
:100B10006565640A343A0974696D655F746F5F6D69
:100B200061780A353A09776865656C5F6D61785F51
:100B300073706565640A363A09776865656C5F7439
:100B4000696D655F746F5F6D61780A0A703A09704C
:100B500072696E742076616C7565730A643A097304
:100B600065742064656661756C74730A75703A0902
:100B70002B310A646F776E3A092D310A70677570F0
:100B80003A092B31300A7067646F776E3A092D315C
:100B9000300A0A7370656564203D2064656C746179
:100BA000202A206D61785F7370656564202A202893
:100BB000726570656174202F2074696D655F746F54
:100BC0005F6D6178290A003F004D3E2000433E20C2
:100BD000004C25640A000A092D20436F6E736F6C68
:100BE00065202D0A4553432F713A09717569740ABE
:100BF0006D3A096D6F7573656B65790A000A092D89
:100C0000204D61676963202D0A643A096465627545
:100C1000670A783A096465627567206D6174726964
:100C2000780A6B3A096465627567206B6579626F53
:100C30006172640A6D3A096465627567206D6F754B
:100C400073650A763A0976657273696F6E0A733A4C
:100C5000097374617475730A633A09636F6E736F15
:100C60006C65206D6F64650A302D343A096C6179CA
:100C70006572302D34284631302D4634290A5061B2
:100C800075733A09626F6F746C6F616465720A0004
:100C90003F0074696D65725F726561643332282943
:100CA0003A202530346C580A006B6579626F6172A6
:100CB000645F69646C653A2025580A006B65796247
:100CC0006F6172645F70726F746F636F6C3A20252E
:100CD000580A00686F73745F6B6579626F61726444
:100CE0005F6C65647328293A2025580A000A092D8B
:100CF00020537461747573202D0A004743433A20D2
:100D0000342E382E31204156522D4C4942433A2040
:100D1000312E382E3073766E204156525F41524349
:100D2000483A20617672350A004F5054494F4E536D
:100D30003A204C554641204D4F5553454B4559207F
:100D400045585452414B455920434F4E534F4C4503
:100D500020434F4D4D414E4420343039360A004235
:100D600055494C443A20313362316338332D64693C
:100D7000727479202831393A33303A323320417055
:100D8000722031392032303137290A005649443A2D
:100D90002030784645454428742E6D2E6B2E292030
:100DA0005049443A203078343234322848484B4253
:100DB000206D6F6429205645523A2030783031300A
:100DC000340A00444553433A20742E6D2E6B2E2076
:100DD0006B6579626F617264206669726D776172AA
:100DE0006520666F722048484B42206D6F640A0090
:100DF0000A092D2056657273696F6E202D0A000A4C
:100E00006D6F7573653A206F66660A000A6D6F75BF
:100E100073653A206F6E0A000A6B6579626F6172C2
:100E2000643A206F66660A000A6B6579626F6172C8
:100E3000643A206F6E0A000A6D61747269783A2014
:100E40006F66660A000A6D61747269783A206F6E87
:100E50000A000A64656275673A206F6E0A000A64C8
:100E6000656275673A206F66660A000A0A626F6FEC
:100E7000746C6F616465722E2E2E2000433E20003C
:100E800011241FBECFEFDAE0DEBFCDBF04B603FEF4
:100E900024C08091600390916103A0916203B0919E
:100EA00063038730904BA740B04BB9F410926003B6
:100EB00010926103109262031092630314BE84B710
:100EC000877F84BF88E10FB6F8948093600010920A
:100ED00060000FBEE0E0F8E3099511E0A0E0B1E0AA
:100EE000EAEEFFE502C005900D92AA39B107D9F7E5
:100EF00023E0AAE9B1E001C01D92A036B207E1F7F4
:100F00000E9406120C94F32F0C9400000FB68095EB
:100F10009AE0F8947BE27A95F1F708F0589A08F491
:100F2000589886959A95B1F70FBE08950FB680E848
:100F3000F894499BFECF4999FECF96E19A95F1F737
:100F40009CE29A95F1F7869549998068C8F70FBE9B
:100F500008950FB680E8F89496E19A95F1F79CE22F
:100F60009A95F1F7869549998068C8F796E19A9520
:100F7000F1F7499BFECF0FBE0895FF93EF93E091E9
:100F80009A01F0919B01309709F00995EF91FF913B
:100F90000895FC018591803011F0EFDFFBCF0895BB
:100FA000FF27E0E230E247FF0CC0419597FF09C000
:100FB000EDE26095709580959095611D711D811D84
:100FC000911D27FF02C0219530E350E2AA27660F4A
:100FD000771F881F991FAA1FA41710F0A41B6395E1
:100FE0005A95A9F7AA3008F0A95FA05DAF93F395D1
:100FF000611571058105910541F7ED3211F4EF930B
:10100000F395F21718F43F93F395FBCF8F91B5DF6B
:10101000FA95E1F70895E991F9918591803021F0F1
:10102000853219F0AADFF9CF089520E0E8945591B0
:101030005532C1F3503311F4689455915A3348F442
:10104000505390F3220F022E220F220F200D250F56
:10105000F4CF0EF4219589919991533619F35337B2
:1010600029F1533559F1BC0188279927E8945C365A
:1010700021F48991999168945591543639F446EF49
:101080007EF077FF0DC08FEF9FEF0AC055374AE023
:1010900039F0583540E121F0523642E009F0089528
:1010A000FF93EF937DDFEF91FF91B7CFFF93EF9326
:1010B000FC0181918030B9F360DFFBCFFF93EF93A8
:1010C00068DFF1CFDF93CF93CDB7DEB72596A3DFEF
:1010D000CF91DF910895FC01613061F028F062301A
:1010E00079F0633099F018C082818823A9F087E9EC
:1010F00091E008958281882379F082E991E0089552
:101100008281882361F08DE891E0089582818823AF
:1011100049F085E891E0089580E090E008958AE83C
:1011200091E0089582E891E00895CF93DF93EC0178
:10113000462F50E04830510508F098C0FA01EA5AAD
:10114000FF4F0C94ED2F0E945D25817180939C01CF
:101150009A81992321F00E94662582E50DC082E5DF
:101160007BC00E945D25817180939C019A819923A7
:1011700069F00E94662581E50E941B250E94A62534
:1011800080919C01DF91CF910C94602581E564C032
:101190000E945D25817180939C019A81992309F4B5
:1011A0005AC00E94662580E5E7CF0E945D258171C7
:1011B00080939C019A819923B1F10E9466258FE466
:1011C000DBCF0E945D25817180939C019A819923D8
:1011D00051F10E94662584E00E9473258FE40EC0C1
:1011E0000E945D25817180939C019A81992399F1D8
:1011F0000E94662584E00E94732580E50E941B25DD
:101200000E94A62584E024C00E945D258171809300
:101210009C019A81992339F00E94662588E00E94FA
:1012200073258FE410C08FE417C00E945D25817183
:1012300080939C019A81992371F00E94662588E031
:101240000E94732580E50E941B250E94A62588E048
:101250000E94792595CF80E50E943C2580919C01D4
:101260000E94811CDF91CF910C94A625DF91CF9134
:10127000089514B88FEF85B9549A5C9808958FEF4C
:1012800084B980E485B9549A5C9A8FE19EE4019711
:10129000F1F700C0000008958FEF84B980E485B9AC
:1012A00057985F9A87B18F7387B988B1806C88B976
:1012B0002E9A2F980E943909E5EAF1E0119281E017
:1012C000ED3AF807D9F7EDE9F1E0119281E0E53A5E
:1012D000F807D9F785EA91E09093B0018093AF01C8
:1012E0008DE991E09093AE018093AD0108950F9345
:1012F0001F93CF93DF938091AD019091AE01209128
:10130000AF013091B0013093AE012093AD019093C5
:10131000B0018093AF015C9B0E943F09C0E0D0E028
:1013200001E010E080E090E045B1407C4C2B9C0156
:1013300053E0220F331F5A95E1F7422B45B9EAE1FA
:10134000EA95F1F700C0E091AD01F091AE01EC0F2C
:10135000FD1F208130E0082E02C0359527950A94A4
:10136000E2F720FD2F9AF5E3FA95F1F70000A6B514
:101370002E982AE12A95F1F700C02091AF01309113
:10138000B0014F9B0EC0A801082E01C0440F0A9463
:10139000EAF74095F901EC0FFD1F5081542350836B
:1013A0000CC0F901EC0FFD1F6081A801082E01C0DF
:1013B000440F0A94EAF7642B608346B56A2F70E005
:1013C0004A1718F046B550E004C046B550E0415009
:1013D0005F4F461B570B4630510558F0E091AD0169
:1013E000F091AE01EC0FFD1F4081F901EC0FFD1FE4
:1013F0004083EAE1EA95F1F700C02F982E9AEBE2DC
:10140000F1E03197F1F700C00000019688309105B6
:1014100009F08ACFA091AF01B091B001AC0FBD1F10
:10142000E091AD01F091AE01EC0FFD1F9C91808128
:10143000981751F00E94A7266093B1017093B201F2
:101440008093B3019093B4012196C830D10509F07F
:1014500069CF5C9B1BC080915703853021F0809140
:101460005703811113C06091B1017091B201809155
:10147000B3019091B4010E94DC266131774281056D
:10148000910520F00E9439090E942A2681E0DF910F
:10149000CF911F910F910895E091AF01F091B001AC
:1014A000E80FF11D808108950C943F090C943909CF
:1014B000569A81FF02C05E9A08955E98089588E06A
:1014C0008093CC001092CD00E9ECF0E0808180693F
:1014D0008083808188608083EAECF0E08081808373
:1014E000EBECF0E080818083559A5D9878940895C4
:1014F0009091B6012091B5019217D1F030E0F90139
:10150000E954FE4F80812F5F3F4F33272093B50171
:10151000492F50E0921718F4241B350B03C0241BED
:10152000350B3395233031050CF05D9890E008952C
:101530008FEF9FEF08959091C80095FFFCCF8093A7
:10154000CE0008951F920F920FB60F9211242F9381
:101550003F934F935F938F939F93EF93FF932091CC
:10156000B60130E0C901019699274091B5014817AD
:1015700041F09091CE00F901E954FE4F90838093A1
:10158000B6015091B601842F90E0252F30E0821BE8
:10159000930B541708F0939503970CF45D9AFF9101
:1015A000EF919F918F915F914F913F912F910F906C
:1015B0000FBE0F901F9018958091D1020895089545
:1015C0008091D10208950895089508950895CF93C4
:1015D000DF938D3C9105C1F1B8F4853B9105B1F1E4
:1015E00048F4833B9105D9F1843B9105D9F5D0E0CE
:1015F000C0E23CC0873B910579F158F18C3C9105E4
:1016000089F5D0E0C8E032C08A3E9105C9F040F4C7
:10161000823E9105B9F0893E910521F5D0E125C0C2
:10162000813222E0920751F0833222E0920721F0CA
:101630008A389140B9F418C0D1E017C0D4E015C081
:10164000D0E213C0D0E411C0D0E80FC0D0E0C1E0B8
:101650000DC0D0E0C2E00AC0D0E0C4E007C0D0E0D6
:10166000C0E104C0D0E001C0D2E0C0E08DEF0E9434
:101670009B0A83E00E949B0A83E00E949B0A8D2FB5
:101680000E949B0A8C2FDF91CF910C949B0ACF93E1
:10169000DF93EC018DEF0E949B0A85E00E949B0A7C
:1016A00082E00E949B0A88810E949B0A89810E9495
:1016B0009B0A8A810E949B0A8B81DF91CF910C94B7
:1016C0009B0ACF93DF93EC018DEF0E949B0A89E088
:1016D0000E949B0A81E00E949B0A88810E949B0ACB
:1016E00080E00E949B0A8A810E949B0A8B810E9453
:1016F0009B0A8C810E949B0A8D810E949B0A8E818D
:101700000E949B0A8F81DF91CF910C949B0A0C94CD
:10171000780AFF920F931F93CF93DF93EC010E94FF
:101720009B268C01F12CC8010E94B3268C179D07C3
:10173000A0F40E94780A9C012F3F8FEF380751F0E8
:101740002D3041F02A3049F0AF2DB0E0A754BD4F05
:101750002C93F39486E18F1530F7EF2DF0E0E754EA
:10176000FD4F108289EB92E0DF91CF911F910F9195
:10177000FF9008950C949B0A81B3881F8827881FC7
:101780000895879A8F9A089585B7806885BF85B731
:10179000806885BF0E94C10B86988E9A819889982F
:1017A000559A5D980C945F0A879A8F9808958FB127
:1017B0008695817008958FB186FB882780F90895FA
:1017C0008093D1020895CF93DF93FC018491EF01C0
:1017D0002196882321F00E949B0AFE01F7CFDF911A
:1017E000CF910895CF93DF93C8E9D3E00E94780AA0
:1017F0008F3F2FEF920759F09F938F93DF93CF93F3
:101800000E9462080F900F900F900F90EFCFDF9122
:10181000CF9108950E94E30B2FEF89E698E12150C4
:1018200080409040E1F700C0000084E690E00E9414
:10183000890B8093B7029093B8029F938F938BE9A3
:1018400093E09F938F930E9462080E94F20B0F9087
:101850000F900F900F908091B7029091B802089569
:101860000E94B81990931501809314010E94C01F23
:1018700080E091E00E94B3190E94D40B0E94DB0B20
:101880008111FCCF83E294E00E94C9072FEF85EB22
:1018900095E3215080409040E1F700C000008FE1C7
:1018A00094E00E940A0CEFEFFBE42DE1E150F040E0
:1018B0002040E1F700C000000E94F20B8BE194E0B1
:1018C0000E940A0CFC018081863721F087E194E0B8
:1018D0000C940A0C08958EEF93E00E94C90788EFDC
:1018E00093E00E940A0C0E94C10B0E94C01F8091CD
:1018F0001401909115010C94B3190C9443118F921B
:101900009F92AF92BF92CF92DF92EF92FF920F938E
:101910001F93CF93DF9392E0B92EC9E4D6E00FE492
:1019200016E0AA24A39423E0922E37E3C32E36E0D8
:10193000D32E0E94870B7C018F3F2FEF920709F473
:1019400046C08091D402813009F128F0823029F11B
:10195000833049F139C08EEFE816F10419F4A092F2
:10196000D402E7CF90E8E916F10428F4FF92EF9251
:101970001F930F9304C0FF92EF92DF93CF930E94C7
:1019800062080F900F900F900F90D3CF92E0E9165E
:10199000F104D1F4B092D402CCCFEA94EF28A1F4B0
:1019A0009092D402C6CF8091420380FF0AC0FF927A
:1019B000EF92DF92CF920E9462080F900F900F90EB
:1019C0000F908E2D0E94E00B1092D402B2CF809126
:1019D000D602811121C08091D50281111DC00E94C3
:1019E000D70B81110AC00E94B8198A50914029F082
:1019F0000E94C01F8AE091E00DC00E94D70B88238F
:101A000059F00E94B8198651914031F00E94C01FD0
:101A100086E191E00E94B3198091D2029091D302A5
:101A20000E94B326893E23E0920708F461C028EEA5
:101A300033E0B9010E94A32F629FA001639F500D64
:101A4000729F500D11248091D2029091D302840F85
:101A5000951F9093D3028093D2020E94E0118330AD
:101A600011F481E001C080E00E9432110E94A7269B
:101A700028EE33E040E050E00E94CB2F49015A01AC
:101A80008CE3C82ED12CE12CF12CCA01B901A7019D
:101A900096010E94CB2F672B682B692B49F50E947A
:101AA000A9112091420320FF23C09F938F931F927F
:101AB0001F92C501B40120E13EE040E050E00E94E9
:101AC000CB2FC22FA70196010E94CB2F3F932F93BC
:101AD0001F92CF9382E296E09F938F930E946208B9
:101AE0008DB79EB70A960FB6F8949EBF0FBE8DBFF6
:101AF0000E94D70B811107C00E94DB0B882319F0CD
:101B00006E9A769802C06E9A769ADF91CF911F9165
:101B10000F91FF90EF90DF90CF90BF90AF909F908C
:101B20008F9008958F929F92AF92BF92CF92DF9243
:101B3000EF92FF921F93CF93DF9300D000D0CDB7E9
:101B4000DEB7833109F48CC008F05BC08B3009F438
:101B500066C08C3009F48FC0853009F0FCC10E944A
:101B6000A72628EE33E040E050E00E94CB2F490149
:101B70005A010E94A9119F938F9381E794E09F934C
:101B80008F930E946208C501B40120E13EE040E06D
:101B900050E00E94CB2F5F934F933F932F932BE600
:101BA00034E03F932F9369837A838C839B830E94D5
:101BB00062084CE3C42ED12CE12CF12C69817A818E
:101BC0008C819B81A70196010E94CB2F5F934F933D
:101BD0003F932F9385E694E09F938F930E94620832
:101BE000C501B401A70196010E94CB2F9F938F934B
:101BF0007F936F938FE594E09F938F930E94620889
:101C000040C1883361F020F4883109F440C1A3C198
:101C1000873409F46EC18C3409F456C19CC18EEF2F
:101C200095E00E94C90789EE95E00E94C9078FECF4
:101C300095E00E94C90788EA95E00E94C9078DE8EF
:101C400095E00E94C9078BE795E00E94C907809143
:101C5000D60281117EC18BE595E00E94C9077EC145
:101C60000E94300C83E494E00E940A0C8DE394E01F
:101C70000E940A0C6CC182E495E00E94C9070E9490
:101C8000B8198A50914019F489E291E002C08FE2BC
:101C900091E09F938F9384E395E09F938F930E94AD
:101CA00062088091D5021F928F9385E295E09F9301
:101CB0008F930E9462080E94D70B0FB6F894DEBF84
:101CC0000FBECDBF811107C00E94DB0B882331F00E
:101CD0008BE391E005C084E391E002C088E391E0EA
:101CE0009F938F938BE195E09F938F930E9462085F
:101CF0000E94BC0B1F928F9380E095E09F938F937F
:101D00000E9462088091D6021F928F938FEE94E01A
:101D10009F938F930E946208809157030FB6F894A7
:101D2000DEBF0FBECDBF8823B9F08091570381304D
:101D3000B1F0809157038230A9F08091570383302E
:101D4000A1F080915703843099F08091570385303A
:101D500091F482E791E011C088E491E00EC080E444
:101D600091E00BC083E591E008C08BE591E005C0F0
:101D700085E691E002C080E791E09F938F9380EE2B
:101D800094E09F938F930E94620886ED94E09F9366
:101D90008F930E9462080E94E0110F900F900F90A5
:101DA0000F900F900F90813059F038F0823059F039
:101DB000833061F480EC94E00BC081ED94E008C0C6
:101DC0008BEC94E005C084EC94E002C08EEB94E0D0
:101DD0009F938F930E9462080F900F908CEB94E07A
:101DE0009F938F930E946208809155031F928F9357
:101DF00083EA94E09F938F930E9462088091D900B8
:101E000081701F928F9389E994E09F938F930E9432
:101E100062080E94A72628EE33E040E050E00E94CE
:101E2000CB2F69017A015CE3852E912CA12CB12C7A
:101E3000C701B601A50194010E94CB2F7F936F9338
:101E4000C701B60120E13EE040E050E00E94CB2F08
:101E5000122FA50194010E94CB2F3F932F931F9225
:101E60001F93C701B60120E831E541E050E00E9430
:101E7000CB2F3F932F938CE794E09F938F930E94F7
:101E800062080FB6F894DEBF0FBECDBF62C080916E
:101E9000D602811163C08091D502882339F084E590
:101EA00094E00E94C9071092D50253C08AE494E0DE
:101EB0000E94C90781E08093D5020E94C01F86E17D
:101EC00091E00E94B31945C00E94BC0B882351F0D9
:101ED0008C830E94300C91E0909352039093D60231
:101EE0008C813DC00E946B0C109252031092D6025E
:101EF00030C08091D602811102C00E94300C81EF67
:101F000093E00E940A0C86EE93E00E940A0C82ED98
:101F100093E00E940A0C8BEC93E00E940A0C81EC87
:101F200093E00E940A0C8AEB93E00E940A0C80EB7B
:101F300093E00E940A0C86EA93E00E940A0C80EA71
:101F400093E00E940A0C8091D602811102C00E9487
:101F50006B0C81E004C08091D60201C080E00F903C
:101F60000F900F900F90DF91CF911F91FF90EF9006
:101F7000DF90CF90BF90AF909F908F900895CF93B8
:101F8000C82F0E945D25827221E009F420E08C2F89
:101F900090E0FC013497E934F10508F0FDC0E25A05
:101FA000FF4F0C94ED2F8AE058C1222309F4F8C0AA
:101FB00081E453C1222309F4F5C082E44EC12223F7
:101FC00009F4F2C083E449C1222309F4EFC084E498
:101FD00044C1222309F4ECC085E43FC1222309F463
:101FE000E9C086E43AC1222309F4E6C087E435C19A
:101FF000222309F4E3C088E430C1222309F4E0C0BD
:1020000089E42BC1222309F4DDC08AE426C12223FE
:1020100009F4DAC08BE421C1222309F4D7C08CE48F
:102020001CC1222309F4D4C08DE417C1222309F472
:10203000D1C08EE412C1222309F4CEC08FE40DC1B9
:10204000222309F4CBC080E508C1222309F4C8C0CB
:1020500081E503C1222309F4C5C082E5FEC0222325
:1020600009F4C2C083E5F9C0222309F4BFC084E5A6
:10207000F4C0222309F4BCC085E5EFC0222309F493
:10208000B9C086E5EAC0222309F4B6C087E5E5C0F9
:10209000222309F4B3C088E5E0C0222309F4B0C0CC
:1020A00089E5DBC0222309F4ADC08AE5D6C022232E
:1020B00009F4AAC081E2D1C0222309F4A7C080E4B8
:1020C000CCC0222309F4A4C083E2C7C0222309F4B0
:1020D000A1C084E2C2C0222309F49EC085E2BDC033
:1020E000222309F49BC08EE5B8C0222309F498C0CE
:1020F00086E2B3C0222309F495C08AE2AEC022234F
:1021000009F492C088E2A9C0222309F48FC089E2B1
:10211000A4C088E0A2C089E0A0C080E29EC02223C3
:1021200009F486C08FE599C0222309F483C08BE2AD
:1021300094C0222309F480C08BE78FC0222309F4C6
:102140007DC08DE78AC0222309F47AC08CE785C060
:102150002111FCCF8CE581C0222309F473C08AE3EE
:102160007CC0222309F470C082E277C0222309F4E4
:102170006DC08EE772C0222309F46AC08CE36DC083
:10218000222309F467C08EE368C0222309F464C0E7
:102190008FE363C080E061C080E25FC08BE15DC01F
:1021A00081E65BC082E659C083E657C084E655C02D
:1021B00085E653C086E651C087E64FC088E64DC02D
:1021C00089E64BC08AE649C08BE647C08CE645C02D
:1021D0008DE643C08EE641C08FE63FC080E73DC03C
:1021E00081E73BC082E739C083E737C084E735C069
:1021F00085E733C086E731C087E72FC088E72DC069
:1022000089E72BC08AE729C081E327C082E325C084
:1022100083E323C084E321C085E31FC086E31DC0A0
:1022200087E31BC088E319C089E317C080E315C0AA
:102230008DE213C08DE311C08BE50FC08DE50DC09D
:102240008CE50BC08BE309C087E207C080E605C0C0
:102250008CE203C08EE201C08FE20E94BA0B81E0E3
:10226000CF910895833019F4859A7D9A089581302D
:1022700011F4859A06C0823019F4859A8D9A0895D2
:1022800085988D98089581E00E9432112FEF81EE9C
:1022900094E0215080409040E1F700C0000082E0CF
:1022A0000E9432112FEF81EE94E021508040904047
:1022B000E1F700C0000081E00E9432112FEF81EEB3
:1022C00094E0215080409040E1F700C0000082E09F
:1022D0000E9432112FEF81EE94E021508040904017
:1022E000E1F700C0000080E00E94321180EC809392
:1022F0007C0087E080937A0081E980937E0081E012
:1023000080937F008BE380937D00849A8C9808955E
:102310008091D90080FF1BC020B391B385988D9A1E
:10232000EFE9FFE03197F1F700C000008FB185FBC6
:10233000882780F930B320723F7D232B20BB21B347
:1023400090722F7D922B91BB91E08927089580E0B8
:102350000895CF93DF9300D0CDB7DEB7849A8C9ADF
:1023600080917A00806880937A008FE99FE00197DE
:10237000F1F700C0000080917A00806480937A00B9
:1023800080917A0086FDFCCF809178009091790051
:102390009A83898380917A008F7780937A00849AD8
:1023A0008C9829813A8145E0429FC001439F900D5E
:1023B0001124805591090F900F90DF91CF910895CE
:1023C0008091D90080FD0C9488110E94A9118C3A4B
:1023D0002DE0920720F481E08093D70205C0853775
:1023E0009E4010F01092D7028091D702882311F0FE
:1023F00083E0089582E00895CF93C82F0E94860756
:102400008C2F0E94861280E0CF91089584B7877F39
:1024100084BF88E10FB6F89480936000109260004A
:102420000FBE90E080E80FB6F8948093610090931F
:1024300061000FBE0E94DC160E9439178091E200F5
:1024400084608093E2008CEF91E10E94FF25509A16
:10245000589A5198599A78948FEF909157038150D8
:10246000943041F0EFE7FEE33197F1F700C0000050
:102470008111F3CF82E796E00E94C9070E94C40B46
:102480000E947D0C86E696E00E94C9070E94751A9C
:102490000E94D70B811103C08AE091E002C086E15F
:1024A00091E00E94B31986E596E00E94C9070E9458
:1024B000D70B882319F1809157038530F9F482E511
:1024C00096E00E94C9070E94560A0E942A260E948E
:1024D0002A260E942A260E942A260E942A260E9434
:1024E0002A260E942A2680915503882301F30E9400
:1024F00050268823E1F20E943415D9CF0E94791A20
:102500000E947F0CD4CF8091E40208959FB7F89485
:102510001092DB029FBF90915703943009F058C08E
:102520009091E9009F702091EC0020FF02C020E80C
:1025300001C020E0292B94E09093E9009091EB00FA
:1025400090FF43C09091EE0097FF3FC09091D8025A
:10255000992321F09091E80095FF37C01092D8029E
:1025600096E03091E80035FD15C0309157033430C6
:1025700061F53091EB0035FD28C0915021F481E0E8
:102580008093D80222C0EFE9FFE03197F1F700C055
:102590000000E7CF8093F1008091E80085FD0AC03C
:1025A0008091E80080FFFCCF8091E8008E778093D7
:1025B000E80006C08FB7F89491E09093DB028FBFDC
:1025C0002F702093E90080E008952F702093E90098
:1025D0008FEF0895CF93DF9300D01F92CDB7DEB772
:1025E00020915703243019F523E029839B838A83A4
:1025F0002093E9008FEF9091E800815095FD06C08F
:1026000095ED9A95F1F700008111F5CF8091E800E2
:1026100085FF0DC040E050E063E070E0CE01019620
:102620000E944A158091E8008E778093E8000F9011
:102630000F900F90DF91CF910895CF93DF9300D04B
:102640001F92CDB7DEB720915703243021F522E049
:1026500029839B838A8383E08093E9008FEF9091A5
:10266000E800815095FD06C095ED9A95F1F70000C0
:102670008111F5CF8091E80085FF0DC040E050E06A
:1026800063E070E0CE0101960E944A158091E80057
:102690008E778093E8000F900F900F90DF91CF918D
:1026A0000895209157032430F1F422E02093E900AB
:1026B0002FEF3091E800215035FD06C035ED3A95F9
:1026C000F1F700002111F5CF2091E80025FF0BC0A4
:1026D00040E050E065E070E00E944A158091E8001B
:1026E0008E778093E8000895CF93DF93EC0180917B
:1026F0005703843039F581E08093E9008FEF9091A2
:10270000E800815095FD06C095ED9A95F1F700001F
:102710008111F5CF8091E80085FF14C040E050E0C2
:1027200068E070E0CE010E944A158091E8008E7743
:102730008093E80088E0FE01ACEDB2E001900D92DC
:102740008A95E1F7DF91CF91089581E896E00E94A4
:10275000C90780915603811109C00E94DC160E94AE
:1027600039178091E20084608093E20008958DE73C
:1027700096E00E94C907109256030895089580912B
:10278000D9028F5F8093D90262E30E94972F911143
:1027900035C01092D9028091DB02882379F18091B3
:1027A0005703843049F58091E9008F709091EC00D7
:1027B00090FF02C090E801C090E0982B84E08093E5
:1027C000E9008091EB0080FF14C08091EE0087FF4C
:1027D00010C08091E80085FF03C01092F100F9CF8E
:1027E0008091E80080FF05C08091E8008E7780939B
:1027F000E8009F709093E9001092DB02089542E098
:1028000061EC81E00E94561642E061EC82E00E9499
:10281000561642E061EC83E00E94561642E261ECFB
:1028200084E00C94561680915903833009F453C008
:1028300030F4813071F0823009F48CC008958A3010
:1028400009F478C08B3009F45EC0893009F09AC071
:1028500020C080915803813A09F094C08091E8002B
:10286000877F8093E80080915C0390915D03892BC2
:1028700021F060E080E090E003C068E08CED92E041
:1028800070E00E9493158091E8008B778093E800B8
:10289000089580915803813209F074C080915C03DF
:1028A00090915D03892B09F06DC08091E800877FCE
:1028B0008093E8008091E80082FD05C08091570375
:1028C0008111F8CF5FC08091F1008093E402809184
:1028D000E8008B7753C080915803813A09F052C0C9
:1028E00080915C0390915D03892B09F04BC080912E
:1028F000E800877F8093E8008091E80080FFFCCFAC
:102900008091200136C0809158038132D9F58091A1
:102910005C0390915D03892BA9F58091E800877F86
:102920008093E8000E948B1680915A0380932001C7
:102930000C94C01F80915803813221F58091E800EA
:10294000877F8093E8000E948B1680915B038093C1
:10295000E502089580915803813AA1F48091E8003E
:10296000877F8093E8008091E80080FFFCCF809112
:10297000E5028093F1008091E8008E778093E80073
:102980000C948B1608958091E4028093DA021092E1
:10299000E40280E00E94580A0E94381B0C94C01F79
:1029A0000C94C3140E9465268091DA028093E4029D
:1029B00008950C94D214292F332723303105A9F020
:1029C0006CF42130310509F442C02230310509F0A0
:1029D00043C084E790E02DEA36E042C02132310561
:1029E000C9F02232310519F137C09927813091059C
:1029F00041F08230910541F0892B71F5E9EAF6E06A
:102A000005C0E9E9F6E002C0E5E8F6E0849190E06F
:102A10009F0126C0643000F5E62FF0E0EE0FFF1FA7
:102A2000E857FE4F2081318189E090E019C0643081
:102A300098F4E62FF0E0DF01AA0FBB1FA058BE4FAD
:102A40002D913C91E458FE4F808190E009C082E1D5
:102A500090E021E237E004C080E090E020E030E048
:102A6000FA0131832083089580E189BD82E189BD27
:102A700009B400FEFDCF8091D8008F7D8093D800EF
:102A80008091E00082608093E0008091E00081FD11
:102A9000FCCF0895CF92DF92EF92FF920F931F9396
:102AA000CF93DF937C018B01EA010E94AC16811168
:102AB00031C0209731F088819981081B190BE80EED
:102AC000F91EC12CD12C0115110519F18091E800D6
:102AD00085FD14C08091E8008E778093E8002097F0
:102AE00041F0888199818C0D9D1D9983888385E0B3
:102AF00011C00E94AC16882331F30CC0F7018191FC
:102B00007F018093F10001501109FFEFCF1ADF0A16
:102B1000DACF80E0DF91CF911F910F91FF90EF907E
:102B2000DF90CF90089520915E0330915F032617C8
:102B3000370748F06115710539F42091E8002E77C8
:102B40002093E80001C0B901FC0120E06115710586
:102B5000B9F180915703882309F440C0853009F406
:102B60003FC08091E80083FD3DC08091E80082FF76
:102B700006C08091E80082FF26C080E00895809121
:102B8000E80080FFE3CF2091F3008091F20090E015
:102B9000922B6115710551F08830910538F421911F
:102BA0002093F100615071090196F3CF21E008975D
:102BB00009F020E08091E8008E778093E800C6CF8E
:102BC0002111C7CFD6CF80915703882339F08530A4
:102BD00039F08091E80083FFCCCF04C082E00895F3
:102BE00083E0089581E0089520915E0330915F03B2
:102BF0002617370748F06115710539F42091E80070
:102C00002E772093E80001C0B901FC0120E0611596
:102C10007105C1F180915703882309F441C08530C3
:102C200009F440C08091E80083FD3EC08091E80037
:102C300082FF06C08091E80082FF27C080E00895EF
:102C40008091E80080FFE3CF2091F3008091F200B3
:102C500090E0922B6115710559F08830910540F490
:102C600024912093F1003196615071090196F2CFC1
:102C700021E0089709F020E08091E8008E778093AA
:102C8000E800C5CF2111C6CFD5CF80915703882347
:102C900039F0853039F08091E80083FFCBCF04C054
:102CA00082E0089583E0089581E00895982F973099
:102CB00058F59093E900981739F07091EC00209145
:102CC000ED005091F00003C0242F762F50E021FF3B
:102CD00019C03091EB003E7F3093EB003091ED0056
:102CE0003D7F3093ED003091EB0031603093EB008D
:102CF0007093EC002093ED005093F0002091EE00D3
:102D000027FF07C09F5FD3CF8F708093E90081E0DA
:102D1000089580E008958091580387FD05C0809153
:102D2000E80080FF0EC012C08091E80082FD05C05F
:102D3000809157038111F8CF08958091E8008B7737
:102D400008C0809157038111EACF08958091E8006F
:102D50008E778093E80008958091E4009091E500DB
:102D600045E62091EC0020FF21C02091E80020FDE5
:102D700021C020915703222389F0253089F020912A
:102D8000EB0025FD0FC02091E4003091E5002817ED
:102D9000390739F3415041F0C901E3CF82E008958A
:102DA00083E0089581E0089584E008952091E8008B
:102DB00022FFDFCF80E008950E944A170E94521739
:102DC000E0EEF0E0808181608083E8EDF0E08081DA
:102DD0008F77808319BCA7EDB0E08C918E7F8C93A8
:102DE00080818F7E80831092560308950F931F93E6
:102DF000CF93DF930E944A170E945217C8EDD0E08C
:102E000088818F77888388818068888388818F7D97
:102E1000888319BC109257031092530310925503E4
:102E20001092540300EE10E0F80180818B7F8083C4
:102E300088818160888342E060E080E00E945616CD
:102E4000E1EEF0E080818E7F8083E2EEF0E0808131
:102E500081608083808188608083F80180818E7F9B
:102E60008083888180618883DF91CF911F910F914A
:102E70000895E8EDF0E080818F7E8083E7EDF0E05B
:102E800080818160808384E082BF81E080935603EB
:102E90000C94F616E8EDF0E080818E7F808310922E
:102EA000E20008951092DA001092E10008951F9256
:102EB0000F920FB60F9211242F933F934F935F936E
:102EC0006F937F938F939F93AF93BF93EF93FF93F2
:102ED0008091E10082FF0BC08091E20082FF07C079
:102EE0008091E1008B7F8093E1000E94BF1380916D
:102EF000DA0080FF1FC08091D80080FF1BC0809146
:102F0000DA008E7F8093DA008091D90080FF0DC0B7
:102F100080E189BD82E189BD09B400FEFDCF81E079
:102F2000809357030E94A51305C019BC1092570344
:102F30000E94B7138091E10080FF19C08091E200E8
:102F400080FF15C08091E2008E7F8093E200809127
:102F5000E20080618093E2008091D80080628093DB
:102F6000D80019BC85E0809357030E94D01480914B
:102F7000E10084FF30C08091E20084FF2CC080E13A
:102F800089BD82E189BD09B400FEFDCF8091D800E2
:102F90008F7D8093D8008091E1008F7E8093E10047
:102FA0008091E2008F7E8093E2008091E200816058
:102FB0008093E20080915303882311F084E007C0DE
:102FC0008091E30087FF02C083E001C081E080932D
:102FD00057030E94D9148091E10083FF29C080919A
:102FE000E20083FF25C08091E100877F8093E100AC
:102FF00082E080935703109253038091E1008E7F0B
:103000008093E1008091E2008E7F8093E2008091C6
:10301000E20080618093E20042E060E080E00E9494
:1030200056168091F00088608093F0000E94BE13D5
:10303000FF91EF91BF91AF919F918F917F916F9190
:103040005F914F913F912F910F900FBE0F901F9066
:1030500018951F920F920FB60F9211242F933F9342
:103060004F935F936F937F938F939F93AF93BF9390
:10307000CF93EF93FF93C091E900CF708091EC0064
:103080001092E9008091F000877F8093F00078949F
:103090000E9465181092E9008091F000886080938A
:1030A000F000C093E900FF91EF91CF91BF91AF91F4
:1030B0009F918F917F916F915F914F913F912F9150
:1030C0000F900FBE0F901F9018951F93CF93DF9313
:1030D000CDB7DEB7AA970FB6F894DEBF0FBECDBF4F
:1030E000E8E5F3E08091F100819323E0E036F20718
:1030F000C9F70E9413148091E80083FF1CC120913E
:10310000580330915903832F90E08A30910508F0DD
:1031100012C1FC01E955FF4F0C94ED2F203881F0CE
:10312000223809F008C180915C038F708093E90018
:103130008091EB0085FB882780F91092E90006C09A
:103140008091540390915503911182609091E80011
:10315000977F9093E8008093F1001092F100C5C032
:10316000822F8D7F09F0E7C0222319F0223061F011
:10317000E2C080915A03813009F0DDC0333009F09C
:1031800080E08093550328C080915A03811124C0A8
:1031900020915C032F7009F4CEC02093E900809148
:1031A000EB0080FF19C08091EB00333011F4806296
:1031B00011C080618093EB0081E090E0022E01C09D
:1031C000880F0A94EAF78093EA001092EA0080914F
:1031D000EB0088608093EB001092E9008091E8009A
:1031E000877F86C02111A7C010915A031F77809155
:1031F000E3008078812B8093E3008091E800877F53
:103200008093E8000E948B168091E80080FFFCCF3D
:103210008091E30080688093E300112311F083E044
:1032200001C082E08093570386C02058223008F006
:1032300082C080915A0390915B038C3D23E09207FA
:1032400079F583E08A838AE289834FB7F894DE01B7
:10325000139620E03EE051E2E32FF0E05093570058
:10326000E49120FF03C0E295EF703F5FEF708E2F77
:1032700090E0EA3010F0C79601C0C0968D939D9300
:103280002F5F243149F74FBF8091E800877F8093FB
:10329000E8006AE270E0CE0101960E94931514C026
:1032A000AE014F5F5F4F60915C030E94DB1400979B
:1032B00009F441C02091E800277F2093E800BC0179
:1032C00089819A810E94F4158091E8008B77809320
:1032D000E80031C0203879F58091E800877F80933D
:1032E000E800809153038093F1008091E8008E778D
:1032F0008093E8000E948B161EC021111CC0909183
:103300005A039230C0F48091E800877F8093E800F0
:10331000909353030E948B1680915303811104C034
:103320008091E30087FF02C084E001C081E08093C8
:1033300057030E94FF138091E80083FF0AC0809129
:10334000E800877F8093E8008091EB0080628093A3
:10335000EB00AA960FB6F894DEBF0FBECDBFDF918B
:10336000CF911F9108959093EB028093EA02089504
:103370008091EA029091EB020895E091EA02F091C7
:10338000EB02309721F00190F081E02D099480E06C
:103390000895FF920F931F93CF93DF938C01E091D9
:1033A000EA02F091EB02309799F10280F381E02D6F
:1033B00009958091420382FF2BC080FF04C08EE3F9
:1033C00098E00E94C907E80188E0F82E08E318E0B9
:1033D0008091420380FF0BC088811F928F931F93BF
:1033E0000F930E9462080F900F900F900F90FA9425
:1033F0002196F110EDCF8091420380FF09C086E352
:1034000098E0DF91CF911F910F91FF900C94C90725
:10341000DF91CF911F910F91FF900895E091EA0203
:10342000F091EB02309721F00480F581E02D0994B2
:103430000895CF93DF93EC018091E8029091E90227
:10344000C817D90709F1D093E902C093E802E091C7
:10345000EA02F091EB023097B9F00680F781E02D97
:10346000CE0109958091420382FF0EC080FF0CC0FF
:10347000DF93CF9388E298E09F938F930E94620836
:103480000F900F900F900F90DF91CF910895CF93F1
:10349000DF93EC018091E6029091E702C817D9070B
:1034A00009F1D093E702C093E602E091EA02F091BD
:1034B000EB023097B9F00084F185E02DCE0109953B
:1034C0008091420382FF0EC080FF0CC0DF93CF9338
:1034D00088E198E09F938F930E9462080F900F906D
:1034E0000F900F90DF91CF9108950E9492260C9437
:1034F0004C09CF92DF92EF92FF920F931F93CF93DD
:10350000DF9300D000D000D0CDB7DEB70E9477099E
:103510003DEEE32E32E0F32E00E010E0C02E802FCF
:103520000E944C0AF701D1907F01D826B1F40F5FB9
:103530001F4F0830110591F78FEF89838A831B8213
:103540000E949B268160782F9D838C8349815A81BC
:103550006B818D810E946D1B48C09091420391FF49
:1035600004C08E830E94391B8E8120E030E04D2DF7
:1035700050E0922FBA01022E02C0759567950A9409
:10358000E2F760FF2CC02983CA82EE24E394F12C79
:1035900002C0EE0CFF1C9A95E2F790E08E219F216D
:1035A00021E0892B09F420E02B830E949B26816077
:1035B000782F9D838C8349815A816B818D810E94F4
:1035C0006D1B49815A816B817C818D810E941726F8
:1035D000F801E351FD4F80818E25808306C02F5F67
:1035E0003F4F2830310529F6A2CF0E9416260E94AF
:1035F000062A1091EC020E94BD19181741F10E9491
:10360000BD198093EC029091420392FF0EC090FF8F
:103610000CC01F928F9389E498E09F938F930E9430
:1036200062080F900F900F900F908091EC022696F9
:103630000FB6F894DEBF0FBECDBFDF91CF911F91C3
:103640000F91FF90EF90DF90CF900C942826269654
:103650000FB6F894DEBF0FBECDBFDF91CF911F91A3
:103660000F91FF90EF90DF90CF9008950C94580A3F
:103670000895EF92FF920F931F93CF93DF9382E60B
:1036800098E00E94C907C0E0D0E08EE2E82E81E019
:10369000F82E04E518E08C2F0E944C0A0E940426A4
:1036A000FF92EF921F928F93DF93CF931F930F930D
:1036B0000E94620821968DB79EB708960FB6F894BF
:1036C0009EBF0FBE8DBFC830D10529F7DF91CF91C6
:1036D0001F910F91FF90EF900895CF93DF93CDB797
:1036E000DEB72B970FB6F894DEBF0FBECDBF4F836A
:1036F000588769877A878B878A859B85892B31F0E4
:103700005F3F11F080E003C04F3FE1F781E081119E
:1037100007C04F81588569857A858B850E94172659
:10372000DE01119686E0FD0111928A95E9F785E0A8
:10373000FE01379601900D928A95E1F749815A81F1
:103740006B817C818D819E810E949E222B960FB67B
:10375000F894DEBF0FBECDBFDF91CF910895CF9318
:10376000C82F882309F4A3C08CEF8C0F813A48F44A
:103770008C2F0E94232D81119AC08C2F0E941B2513
:103780000CC080E28C0F883058F4C77081E001C013
:10379000880FCA95EAF70E946025CF910C94A62560
:1037A0008BE58C0F833078F4C53A29F0C63A31F4B2
:1037B00082E890E005C081E890E002C083E890E0F4
:1037C000CF910C94191A88E58C0F853108F06FC0E1
:1037D000C83A61F1C93A69F1CA3A71F1CB3A79F163
:1037E000CC3A81F1CD3A89F1CE3A91F1CF3A99F1C3
:1037F000C13BA1F1C03BA9F1C23BB1F1C33BB9F15F
:10380000C43BC1F1C53BC9F1C63BD1F1C73BD9F1BE
:10381000C83BE1F1C93BE9F1CA3BF1F1CB3BF9F11E
:10382000CC3B09F03FC08AE292E03EC082EE90E0DD
:103830003BC089EE90E038C08AEE90E035C085EB61
:1038400090E032C086EB90E02FC083EB90E02CC07C
:1038500084EB90E029C087EB90E026C08CEC90E0F0
:1038600023C08DEC90E020C083E891E01DC08AE881
:1038700091E01AC082E991E017C084E991E014C098
:1038800081E292E011C083E292E00EC084E292E015
:103890000BC085E292E008C086E292E005C087E2B4
:1038A00092E002C080E090E0CF910C94471ACF9153
:1038B0000895882329F19CEF980F913A18F40E94FB
:1038C0003C250DC090E2980F983058F4877091E035
:1038D00001C0990F8A95EAF7892F0E9466250C94FA
:1038E000A6259BE5980F933020F480E090E00C949F
:1038F000191A885A853120F480E090E00C94471A18
:103900000895882321F00E9460250C94A62508952F
:10391000882321F00E9466250C94A6250895CF9255
:10392000DF92EF92FF920F931F93CF93DF93CDB768
:10393000DEB728970FB6F894DEBF0FBECDBF8C015F
:1039400085E0F801DE01119601900D928A95E1F76C
:10395000F80140813181F280258122952F70838189
:103960009481892B31F03F3F31F481E04F3F19F4CE
:1039700003C081E001C080E080FDE1C249833A8359
:1039800089819A812F830E94D9249E8388870E94EF
:10399000D8240E9400244E81E42FE295EF70F0E0DD
:1039A000EF54FF4F2F8168850C94ED2F842F807F7B
:1039B000142F1F70882311F01295107FFF2059F0EB
:1039C000112309F471C2812F68870E9473250E9418
:1039D000A625688569C2862F0E94591C112309F407
:1039E000AEC2812F0E94792528960FB6F894DEBFCB
:1039F0000FBECDBFDF91CF911F910F91FF90EF9040
:103A0000DF90CF900C94A625842F807F942F9F70F9
:103A1000E92E803219F0E29480EFE822662319F053
:103A2000613001F129C0FF20A9F08E2D222349F138
:103A3000213039F528960FB6F894DEBF0FBECDBF02
:103A4000DF91CF911F910F91FF90EF90DF90CF907A
:103A50000C948325222319F0213009F470C20E94AE
:103A60008C252CC0FF20E9F0263008F068C20E94A7
:103A70005D258E2129F022C0FF20F1F0211115C013
:103A80008E2D28960FB6F894DEBF0FBECDBFDF9106
:103A9000CF911F910F91FF90EF90DF90CF900C94FA
:103AA000811C253008F04BC209C0F801858180FFD8
:103AB000FBC18F708583E4CF21110AC28E2D78C19E
:103AC000242F26952695237030E02115310521F00D
:103AD00021303105C9F033C2FF2021F0862F942F09
:103AE000937002C080E090E028960FB6F894DEBF95
:103AF0000FBECDBFDF91CF911F910F91FF90EF903F
:103B0000DF90CF900C94191AFF2021F0862F942F6C
:103B1000937002C080E090E028960FB6F894DEBF64
:103B20000FBECDBFDF91CF911F910F91FF90EF900E
:103B3000DF90CF900C94471A862FFF2019F00E9437
:103B40008C2802C00E94F42828960FB6F894DEBF95
:103B50000FBECDBFDF91CF911F910F91FF90EF90DE
:103B6000DF90CF900C947929842F837009F076C070
:103B7000F110E5C1262F229526952770220F220FDE
:103B8000862F8F70C82ED12CE12CF12C022E04C070
:103B9000CC0CDD1CEE1CFF1C0A94D2F764FF10C095
:103BA0006FE070E080E090E004C0660F771F881F30
:103BB000991F2A95D2F7609570958095909503C0CE
:103BC00060E070E0CB01242F269526952370422FCC
:103BD00050E042305105D1F04330510559F16C2984
:103BE0007D298E299F294130510541F128960FB634
:103BF000F894DEBF0FBECDBFDF91CF911F910F9123
:103C0000FF90EF90DF90CF900C9415246C297D29C4
:103C10008E299F2928960FB6F894DEBF0FBECDBF20
:103C2000DF91CF911F910F91FF90EF90DF90CF9098
:103C30000C9427240E941524C701B60128960FB6BC
:103C4000F894DEBF0FBECDBFDF91CF911F910F91D2
:103C5000FF90EF90DF90CF900C940324FF2019F099
:103C6000842F817001C08695882309F468C1262FAE
:103C7000229526952770220F220F862F8F70C82E2F
:103C8000D12CE12CF12C022E04C0CC0CDD1CEE1C3E
:103C9000FF1C0A94D2F764FF10C06FE070E080E070
:103CA00090E004C0660F771F881F991F2A95D2F7EE
:103CB000609570958095909503C060E070E0CB01B1
:103CC000242F269526952370422F50E0423051052F
:103CD000D1F04330510559F16C297D298E299F2956
:103CE0004130510541F128960FB6F894DEBF0FBE62
:103CF000CDBFDF91CF911F910F91FF90EF90DF909B
:103D0000CF900C94B4246C297D298E299F29289664
:103D10000FB6F894DEBF0FBECDBFDF91CF911F91DC
:103D20000F91FF90EF90DF90CF900C94C6240E94EB
:103D3000B424C701B60128960FB6F894DEBF0FBEB3
:103D4000CDBFDF91CF911F910F91FF90EF90DF904A
:103D5000CF900C94A224603FD9F128F480E4860F20
:103D6000803250F09CC0623F09F461C008F44BC03F
:103D7000633F09F470C093C0162F1071842F8F71A8
:103D80006887FF2059F00E944D246885862F1123F3
:103D900019F08295807F75CE8F7073CE0E94682453
:103DA0006885862F112319F08295807F01C08F705E
:103DB00028960FB6F894DEBF0FBECDBFDF91CF912E
:103DC0001F910F91FF90EF90DF90CF900C94881C83
:103DD000FF20A9F0253008F0B2C0842F8F712896FB
:103DE0000FB6F894DEBF0FBECDBFDF91CF911F910C
:103DF0000F91FF90EF90DF90CF900C9487242630A6
:103E000008F09DC0EACFFF20A1F0842F8F71289683
:103E10000FB6F894DEBF0FBECDBFDF91CF911F91DB
:103E20000F91FF90EF90DF90CF900C944D24FF20E6
:103E300061F3842F8F7128960FB6F894DEBF0FBE02
:103E4000CDBFDF91CF911F910F91FF90EF90DF9049
:103E5000CF900C946824FF2091F0842F8F712896C6
:103E60000FB6F894DEBF0FBECDBFDF91CF911F918B
:103E70000F91FF90EF90DF90CF900C943E24289606
:103E80000FB6F894DEBF0FBECDBFDF91CF911F916B
:103E90000F91FF90EF90DF90CF900C943924FF208A
:103EA000A1F0222309F4B1CF862F28960FB6F894FB
:103EB000DEBF0FBECDBFDF91CF911F910F91FF905D
:103EC000EF90DF90CF900C94AF1B222309F4B1CF79
:103ED000862F28960FB6F894DEBF0FBECDBFDF91B8
:103EE000CF911F910F91FF90EF90DF90CF900C94A6
:103EF000591C4F70C8010E946B0828960FB6F894A1
:103F0000DEBF0FBECDBFDF91CF911F910F91FF900C
:103F1000EF90DF90CF900C944B234F70C801289600
:103F20000FB6F894DEBF0FBECDBFDF91CF911F91CA
:103F30000F91FF90EF90DF90CF900C94950828960A
:103F40000FB6F894DEBF0FBECDBFDF91CF911F91AA
:103F50000F91FF90EF90DF90CF9008950E94802501
:103F60000E944F250E94A6250E94A72A0E94792917
:103F700080E090E00E94191A80E090E00C94471ACB
:103F80000E9470250C94AE1F0E94D924292F2295DF
:103F90002F7030E02C3031054CF42A303105C4F458
:103FA000225031092230310540F021C02C3031053A
:103FB000D1F02F303105B9F01AC0853A28F4843099
:103FC000C0F4823028F415C090E2980F983088F041
:103FD000883E30F4803E68F48450813A40F409C051
:103FE000803F29F406C093FB882780F9089580E07C
:103FF000089581E00895CF93DF9300D000D01F9201
:10400000CDB7DEB70F900F900F900F900F90DF910C
:10401000CF910895CF93DF9300D000D000D0CDB7DB
:10402000DEB726960FB6F894DEBF0FBECDBFDF9188
:10403000CF9108951F93CF93DF93C091F50216E0BF
:104040008091F602C81799F0D0E01C9FF0011D9FE7
:10405000F00D1124E950FD4F40815181628173813F
:10406000848195810E940A202196C770E9CFDF9153
:10407000CF911F910895409127035091280360919B
:10408000290370912A0380912B0390912C030C94A7
:104090000A20CF9380912C0382958F7009F05FC026
:1040A00080912903882309F45AC02091F502A09138
:1040B000F602609127037091280380912A03909162
:1040C0002B0331E06F3F09F030E0B32FC6E02A1731
:1040D00009F445C0009721F07F3F21F44B2F03C026
:1040E00041E001C040E030E040FD35C0C29FF0013A
:1040F000C39FF00D1124E950FD4F418174132BC073
:104100004081641328C04281411125C043815481FC
:104110004817590710F441505109481B590B4C32AC
:104120005140C8F480912C038F70806180932C03E0
:1041300086E0829FF001839FF00D1124E450FD4F33
:1041400080818F708061808387E293E00E948F1C62
:10415000CF910C941A202F5F3F4F2770B8CFCF918B
:104160000895CF92DF92EF92FF920F931F93CF9318
:10417000DF93CDB7DEB762970FB6F894DEBF0FBE00
:10418000CDBF8C0185E0F801DE011D9601900D92F6
:104190008A95E1F7D8014C9111965C91119712968E
:1041A0006C9112971396ED90FC90149770912703E1
:1041B000E091280320912A0330912B03211531052A
:1041C00031F0EF3F31F481E07F3F19F403C081E02B
:1041D00001C080E0B82FB170CB2E80FD6DC1D090B2
:1041E0002903DD2009F4F6C0F0912C03E216F30652
:1041F00038F0C701821B930B8C32914048F09CC071
:10420000209530952E0D3F1D2C32314008F094C082
:104210008F2F807F09F053C0E51315C0741313C0AE
:10422000D62E611110C0FF70F061F0932C030E9434
:104230003B2087E293E00E948F1C80912C03D801E1
:1042400015968C936BC1EF2831F05F3F31F481E01C
:104250004F3F19F403C081E001C080E080FD03C03E
:1042600081E0862701C080E0B82FB170FB2E80FF6F
:104270001CC08091F5022091F60236E0821709F405
:1042800028C190E0389FF001399FF00D1124E950CA
:10429000FD4F7181571306C07081471303C07281AF
:1042A000671303C001968770E9CFD62E662309F401
:1042B00035C180912C03816080932C0353C0E5139A
:1042C00008C0741306C0611104C0D8011596FC9390
:1042D000AEC04D875E878D859E856A8B0E94C41F08
:1042E0006A89882329F1D62E662311F120912C03A7
:1042F000822F82958F7090E002970CF460C08091BD
:1043000027039091280398878F831986FB86EA8676
:104310002C87CE01079651C0E51731F14D875E8796
:104320008D859E856A8B0E94C41F6A8981112EC06B
:10433000C8010E948F1CA4C08F2F807F69F77E2D3B
:10434000F98AE88A89890E94FB1F87E293E00E942C
:104350008F1CE7E2F3E086E0DF011D928A95E9F722
:104360000E943B20D12CDAC07413D8CF6111D6CF74
:10437000D8011596FC93C8010E948F1CE7E2F3E078
:1043800086E0DF011D928A95E9F7C8C0D62E662324
:1043900079F220912C03822F82958F7090E0029702
:1043A00074F080912703909128039A8389831B825C
:1043B000FD82EC822E83CE0101960E948F1C86E046
:1043C000F801A7E2B3E001900D928A95E1F70E940F
:1043D00049206FC0E216F30640F0C701821B930B21
:1043E0009C012C32314048F057C0209530952E0D5D
:1043F0003F1D2C32314008F04FC0D62E662309F401
:1044000097CFE51329C0741327C080912C0380FD3A
:104410001AC0982F92959F70B1F0F80185839F3054
:1044200031F09F5F9295907F8F70892B8583C801B3
:104430000E948F1C86E0F801A7E2B3E001900D9284
:104440008A95E1F736C086E0F801A7E2B3E0019073
:104450000D928A95E1F762C04D875E878D859E85B6
:104460000E94C41F882379F086E0F801A7E2B3E038
:1044700001900D928A95E1F70E9449200E943B200D
:10448000DD24D3944BC080912C03816080932C0356
:10449000C8010E948F1C42C07E2DF98AE88A898952
:1044A0000E94FB1FE7E2F3E086E0DF011D928A95A0
:1044B000E9F70E943B2032C0662309F439CF4D87CB
:1044C0005E878D859E850E94C41F882309F430CFA6
:1044D000CBCF4D875E878D859E850E94D924292F5D
:1044E00022952F7030E0223031052CF49F7041F07E
:1044F000811106C00CC0243031052CF49F7049F4A2
:10450000805E883020F0C8010E948F1CCF2CDC2CEC
:1045100005C0F8019581907F99F7F9CF8D2D6296AE
:104520000FB6F894DEBF0FBECDBFDF91CF911F91C4
:104530000F91FF90EF90DF90CF9008951F93CF934E
:10454000DF93CDB7DEB72C970FB6F894DEBF0FBE62
:10455000CDBF4F83588769877A878B879C87CE0129
:1045600007960E94B1208823C1F02F8138858A8563
:104570009B85892B31F03F3F11F080E003C02F3F36
:10458000E1F781E0811147C04F81588569857A85BF
:104590008B859C850E940A203EC086E0FE013796EE
:1045A000DE01119601900D928A95E1F7FF81E88571
:1045B0004A855B854115510531F0EF3F31F481E0CB
:1045C000FF3F19F403C081E001C080E080FD23C0FB
:1045D0002091F60230E0C901019687709927609119
:1045E000F50270E086179707F1F1F983EA835D839E
:1045F0004C8396E0929FD001939FB00D1124A95057
:10460000BD4FFE01319601900D929A95E1F780938E
:10461000F6020E941A2016E08091F5029091F602AF
:10462000891779F1189FC001112489509D4F0E946C
:10463000B120882331F1E091F5021E9FF001112491
:10464000E950FD4F40815181628173818481958160
:104650000E940A208091F50290E0019687709927C8
:104660008093F502D9CF0E94C01F1092F6021092DB
:10467000F502E7E2F3E086E0DF011D928A95E9F7B3
:10468000CACF2C960FB6F894DEBF0FBECDBFDF9118
:10469000CF911F910895DF92EF92FF920F931F9396
:1046A000CF93DF93FC01009709F48AC0E12CF12C31
:1046B000DD24D394EF0121968491853709F461C0FC
:1046C00058F4843708F04EC0843008F06AC0813056
:1046D000D1F0823071F174C0883709F45DC050F4B4
:1046E000863709F455C0873709F06AC08E2D0E94BD
:1046F0006D2554C09CE7980F903708F061C08F7704
:104700000E94591C50C08F010E5F1F4FFE01849103
:1047100090E2980F983050F48770FD2D01C0FF0F84
:104720008A95EAF78F2F0E94732515C00E94AF1B50
:1047300014C08F010E5F1F4FFE01849190E2980F0D
:10474000983068F48770FD2D01C0FF0F8A95EAF755
:104750008F2F0E9479250E94A625E80124C00E947F
:10476000591CFBCF9F012E5F3F4FFE01C491CC230C
:1047700069F08FE99FE00197F1F700C00000C15098
:10478000F6CF9F012E5F3F4FFE01F490E9010BC071
:104790000E945D25E82E07C00E9470250E94A62574
:1047A00002C00E94AF1B9F2D992341F0EFE9FFE06B
:1047B0003197F1F700C000009150F6CFFE017ACF9B
:1047C000DF91CF911F910F91FF90EF90DF900895AF
:1047D00060933103709332038093330390933403D7
:1047E0000E9426260C94AE1F60932D0370932E0317
:1047F00080932F03909330030E9427260C94AE1FC2
:1048000008950C94E8230F931F93009131031091A6
:1048100032032091330330913403602B712B822BB0
:10482000932B1F910F910C94E8230F931F930091EA
:10483000310310913203209133033091340360230C
:104840007123822393231F910F910C94E8230F93DC
:104850001F93009131031091320320913303309163
:10486000340360277127822793271F910F910C949F
:10487000E82360E070E0CB010C94F42341E050E0C9
:1048800060E070E004C0440F551F661F771F8A95D3
:10489000D2F7CB01BA010C94F42341E050E060E080
:1048A00070E004C0440F551F661F771F8A95D2F72A
:1048B00080912D0390912E03A0912F03B09130038E
:1048C000482B592B6A2B7B2BCB01BA010C94F42378
:1048D00041E050E060E070E004C0440F551F661FE7
:1048E000771F8A95D2F74095509560957095809185
:1048F0002D0390912E03A0912F03B09130034823F4
:1049000059236A237B23CB01BA010C94F42341E0A1
:1049100050E060E070E004C0440F551F661F771F31
:104920008A95D2F780912D0390912E03A0912F03A9
:10493000B0913003482759276A277B27CB01BA015A
:104940000C94F4230F931F9300912D0310912E03C9
:1049500020912F0330913003602B712B822B932BEE
:104960001F910F910C94F4230F931F9300912D032B
:1049700010912E0320912F03309130036023712377
:10498000822393231F910F910C94F4230F931F9371
:1049900000912D0310912E0320912F0330913003AD
:1049A00060277127822793271F910F910C94F4237E
:1049B0000895CF92DF92EF92FF920F931F93CF93C0
:1049C000DF93EC01C0903103D0903203E0903303C9
:1049D000F090340380912D0390912E03A0912F032A
:1049E000B0913003C82AD92AEA2AFB2A0FE110E045
:1049F000B701A601002E04C0769567955795479597
:104A00000A94D2F740FF07C0BE01802F0E946B2797
:104A10008130910539F40150110950F7BE0180E051
:104A20000E946B27DF91CF911F910F91FF90EF9024
:104A3000DF90CF900895409121015091220120E014
:104A400030E09FEFFA01E20FF31F6281681799F0DF
:104A50009F3F19F4611101C0922F2F5F3F4F263005
:104A6000310581F79F3F39F0FA01E90FF11D97FDFC
:104A7000FA95828308950895409121015091220171
:104A800020E030E0FA01E20FF31F9281981301C099
:104A900012822F5F3F4F26303105A1F7089581E044
:104AA00090E0E0912101F0912201E80FF91F1082BE
:104AB000019688309105A9F70895809141030895E2
:104AC00090914103982B9093410308958095909184
:104AD00041039823909341030895809341030895DF
:104AE00010924103089590914003982B90934003B6
:104AF00008958095909140039823909340030895E2
:104B0000109240030895809337030E949B26909350
:104B100036038093350308951092370310923603BD
:104B2000109235030895409121015091220120E017
:104B300030E080E0FA01E20FF31F918191118F5F65
:104B40002F5F3F4F27303105A9F70895E0912101EC
:104B5000F0912201809141038083E0912101F09145
:104B60002201808190914003892B808380913703BB
:104B7000882309F43EC00E949B2620913503309182
:104B800036038217930760F00E949B26209135031D
:104B900030913603821B930B8C32914070F41BC012
:104BA0000E949B2620913503309136032095309545
:104BB000280F391F2C32314070F08091420380FF62
:104BC00008C080E798E09F938F930E9462080F903F
:104BD0000F900E948C25E0912101F09122018081AB
:104BE00090913703892B80830E94932581110E9425
:104BF0008C2580912101909122010C94C9199093E8
:104C00009B0180939A0108958295982F9C7C96959C
:104C10009695837344E0849F90011124922B892FF1
:104C20008A7A86959575990F892B08950895CF9363
:104C3000DF9300D000D01F92CDB7DEB70F900F905A
:104C40000F900F900F90DF91CF91089508950895E0
:104C50000C94361B80915703843009F11092430362
:104C600020E488E190E00FB6F894A8958093600066
:104C70000FBE2093600083B7817F846083BF83B7BA
:104C8000816083BF7894889583B78E7F83BF88E1E6
:104C90000FB6F89480936000109260000FBE0895E4
:104CA000CF930E94540A0E9477090E94560AC0E0DE
:104CB0008C2F0E944C0A811105C0CF5FC830C1F70C
:104CC00080E001C081E0CF9108950E94381B0C94D0
:104CD000C01F1F920F920FB60F9211248F939F93B4
:104CE000AF93BF9380914303811113C0809144031C
:104CF00090914503A0914603B09147034196A11DB1
:104D0000B11D8093440390934503A0934603B09351
:104D10004703BF91AF919F918F910F900FBE0F905E
:104D20001F90189582E084BD93E095BD9AEF97BDE2
:104D300080936E0008952FB7F8948091440390916A
:104D40004503A0914603B09147032FBF08952FB7A5
:104D5000F8946091440370914503809146039091CB
:104D600047032FBF0895CF92DF92EF92FF920F93E8
:104D70001F932FB7F89440914403509145036091DD
:104D80004603709147032FBF6A017B01EE24FF2485
:104D90008C0120E030E0C016D106E206F30610F4E4
:104DA00041505109481B590BCA011F910F91FF90A7
:104DB000EF90DF90CF900895CF92DF92EF92FF9225
:104DC0000F931F934FB7F89400914403109145033C
:104DD00020914603309147034FBF68017901C61AFD
:104DE000D70AE80AF90A061717072807390718F03B
:104DF000C701B60106C0C701B6016150710981093A
:104E000091091F910F91FF90EF90DF90CF9008953F
:104E10001F920F920FB60F9211248F939F93AF930F
:104E2000BF938091440390914503A0914603B091B4
:104E300047030196A11DB11D809344039093450340
:104E4000A0934603B0934703BF91AF919F918F9179
:104E50000F900FBE0F901F9018950E94DC16F894CB
:104E60002FEF87EA91E6215080409040E1F700C0A3
:104E7000000087E090EBDC01809360039093610376
:104E8000A0936203B09363032CE088E190E00FB637
:104E9000F894A895809360000FBE20936000FFCF28
:104EA000E72FF0E098E0899FE00DF11D112483E0E9
:104EB000EE0FFF1F8A95E1F7E60FF11DE852FE4F56
:104EC00084910895E82FF0E0EE0FFF1FE05DFF4FA3
:104ED0008591949108950E94502790E4980F903204
:104EE00018F40E94622708958D3B60F4883AA0F57B
:104EF000853A38F5843010F5813009F088C021E01A
:104F000030E087C0883E98F4803EC0F48F3B09F0C3
:104F10007EC00E94C01F2FEF80E792E021508040AA
:104F20009040E1F700C000000E942D2770C0803F34
:104F300008F46DC0282F30E030656BC0282F30E0BA
:104F400068C0853A21F0863A21F492E803C091E8DE
:104F500001C093E880E458C0883A51F1893A51F190
:104F60008A3A51F18B3A51F18C3A51F18D3A51F123
:104F70008E3A51F18F3A51F1813B51F1803B51F121
:104F8000823B51F1833B51F1843B51F1853B51F11F
:104F9000863B59F1873B59F1883B59F1893B59F1DF
:104FA0008A3B59F18B3B59F18C3B61F59AE228C061
:104FB00092EE29C099EE27C09AEE25C095EB23C04A
:104FC00096EB21C093EB1FC094EB1DC097EB1BC069
:104FD0009CEC19C09DEC17C093E805C09AE803C08B
:104FE00092E901C094E985E40FC091E209C093E21F
:104FF00007C094E205C095E203C096E201C097E2C3
:1050000086E402C090E084E4292F382F02C020E01B
:1050100030E0C901089580914A0380FF0BC0609180
:10502000260185E0689FB0011124759567957595F7
:1050300067952AC081FF09C06091260185E0689FBD
:10504000B0011124759567951FC082FF07C060915C
:10505000260185E0689FB001112416C040914B03E2
:105060004423C9F060912501461788F72091260155
:1050700085E0289F90011124429FC001439F900D1D
:10508000112470E00E94B72F6038710540F461155B
:10509000710539F002C065E070E0862F08958FE752
:1050A000089581E0089580914A0380FF08C06091CF
:1050B000240170E0759567957595679521C081FF0E
:1050C00006C06091240170E07595679519C082FF54
:1050D00004C06091240170E010C080914B038823CC
:1050E000C1F0609123018617A0F790912401989F49
:1050F000C001112470E00E94B72F6038710528F4B8
:105100006115710521F0862F08958FE7089581E0DC
:10511000089561E070E0F4CF803F21F40E940B28F5
:10512000819504C0813F29F40E940B2880934E038F
:105130000895823F21F40E940B28819504C0833F8B
:1051400029F40E940B2880934D030895893F19F498
:105150000E94532805C08A3F31F40E94532881954C
:1051600080934F0308958B3F21F40E94532881952B
:1051700004C08C3F29F40E94532880935003089563
:10518000843F21F480914C03816017C0853F21F456
:1051900080914C03826011C0863F21F480914C03C2
:1051A00084600BC0873F21F480914C03886005C068
:1051B000883F31F480914C03806180934C030895C3
:1051C0008D3F21F480914A0381600BC08E3F21F412
:1051D00080914A03826005C08F3F29F480914A0381
:1051E000846080934A030895803F39F480914E0390
:1051F00087FF6CC010924E0369C0813F29F48091F3
:105200004E031816BCF362C090914D03823F29F4FF
:1052100097FF5CC010924D0359C0833F19F41916D3
:10522000CCF354C0893F41F480914F0318160CF021
:105230004DC010924F034AC08A3F29F480914F031A
:1052400087FF44C0F6CF8B3F39F48091500387FF2E
:105250003DC0109250033AC08C3F29F48091500316
:105260001816BCF333C0843F21F480914C038E7F29
:1052700017C0853F21F480914C038D7F11C0863F7C
:1052800021F480914C038B7F0BC0873F21F48091E8
:105290004C03877F05C0883F31F480914C038F7E9B
:1052A00080934C0313C08D3F21F480914A038E7F7D
:1052B0000BC08E3F21F480914A038D7F05C08F3F44
:1052C00029F480914A038B7F80934A0380914D0398
:1052D00081110EC080914E0381110AC080914F034D
:1052E000811106C080915003811102C010924B03BE
:1052F00008958091420383FF7EC089EA98E00E946E
:10530000C90780914C031F928F9384EA98E09F9382
:105310008F930E94620882EA98E00E94C907209158
:105320004D03822F992787FD90959F932F938FE9A7
:1053300098E09F938F930E9462088DE998E00E9405
:10534000C90720914E03822F992787FD90959F933F
:105350002F938AE998E09F938F930E94620888E9CF
:1053600098E00E94C90720914F03822F992787FD5B
:1053700090959F932F9385E998E09F938F930E9438
:10538000620883E998E00E94C90720915003822FA8
:10539000992787FD90959F932F9380E998E09F939D
:1053A0008F930E9462088DE898E00E94C90780915F
:1053B0004B031F928F938AE898E09F938F930E94EC
:1053C000620888E898E00E94C90780914A031F920A
:1053D0008F9385E898E09F938F930E94620882E8FC
:1053E00098E00E94C9078DB79EB74C960FB6F89407
:1053F0009EBF0FBE8DBF8CE493E00E940E1A0E94E8
:105400009B26909349038093480308951F93CF935D
:10541000DF9380914803909149030E94B326409105
:105420004B03442321F02091270130E006C0209156
:1054300028015AE0259F900111248217930708F450
:1054400082C080914D0310914E03D0914F03C091C3
:105450005003811107C0111105C0D11103C0CC2325
:1054600009F471C04F3F19F04F5F40934B0318167A
:1054700024F40E940B2880934D0380914D0387FFF5
:1054800005C00E940B28819580934D03111624F4CA
:105490000E940B2880934E0380914E0387FF05C026
:1054A0000E940B28819580934E0360914D036623E3
:1054B00039F110914E03112319F1772767FD70958B
:1054C000872F972F0E94A82E23E333E343E35FE364
:1054D0000E940C2F0E94752E60934D03612F772739
:1054E00067FD7095872F972F0E94A82E23E333E343
:1054F00043E35FE30E940C2F0E94752E60934E03DE
:105500001D1624F40E94532880934F0380914F036B
:1055100087FF05C00E945328819580934F031C1676
:1055200024F40E945328809350038091500387FFF6
:1055300005C00E945328819580935003DF91CF913D
:105540001F910C947929DF91CF911F910895ECE47C
:10555000F3E085E0DF011D928A95E9F710924B0395
:1055600010924A0308958CEC9AE00E94C9071F929A
:1055700081E08F931F9285E08F938EE79AE09F934F
:105580008F930E9462080F900F900F900F900F90D2
:105590000F9008958330E9F128F4813061F0823072
:1055A00009F10895853009F462C008F449C08630D5
:1055B00009F474C0089520912801862F90E0820F8D
:1055C000911D8F3F910520F4620F6093280103C065
:1055D0008FEF80932801809128011F928F9387EB92
:1055E00099E072C020912701862F90E0820F911DD3
:1055F0008F3F910520F4620F6093270103C08FEF66
:1056000080932701809127011F928F9385EA99E06B
:105610005BC020912601862F90E0820F911D8F3F65
:10562000910520F4620F6093260103C08FEF8093F1
:105630002601809126011F928F9382E999E044C050
:1056400020912501862F90E0820F911D8F3F9105BB
:1056500020F4620F6093250103C08FEF8093250132
:10566000809125011F928F938DE799E02DC02091A5
:105670002401862F90E0820F911D8F3F910520F429
:10568000620F6093240103C08FEF80932401809107
:1056900024011F928F9384E699E016C02091230184
:1056A000862F90E0820F911D8F3F910520F4620FAD
:1056B0006093230103C08FEF809323018091230126
:1056C0001F928F9389E499E09F938F930E946208C1
:1056D0000F900F900F900F900895833081F128F470
:1056E000813059F08230D1F00895853009F449C0F5
:1056F000B8F1863009F456C00895809128016817E2
:1057000020F4861B8093280102C01092280180910A
:1057100028011F928F938AE399E054C0809127015A
:10572000681720F4861B8093270102C0109227017E
:10573000809127011F928F9388E299E043C0809166
:105740002601681720F4861B8093260102C0109260
:105750002601809126011F928F9385E199E032C046
:1057600080912501681720F4861B8093250102C0D3
:1057700010922501809125011F928F9380E099E07E
:1057800021C080912401681720F4861B8093240196
:1057900002C010922401809124011F928F9387EE02
:1057A00098E010C080912301681720F4861B809335
:1057B000230102C010922301809123011F928F9335
:1057C0008CEC98E09F938F930E9462080F900F904B
:1057D0000F900F900895CF93C82F1F928F9321EDB4
:1057E0003BE03F932F930E94620861E070E080E00D
:1057F00090E004C0660F771F881F991FCA95D2F7E3
:105800000E9401240F900F900F900F90CF910C9455
:10581000C01FCF93873288F58E3108F008C18E30D3
:1058200009F486C0D8F4873009F460C08B3009F4DD
:105830004FC0863009F0FFC080914203817F8E7F88
:105840008093420386ED9BE00E94C9078CE79EE0AF
:105850000E94C90781E08093520346C0863109F453
:10586000ADC020F4803109F478C0E5C0893109F475
:105870008EC08B3109F449C0DEC0883349F150F441
:10588000893209F4D2C0853309F4CFC0873209F0D8
:10589000D2C0CBC0833409F4C8C028F48A3308F4DA
:1058A000CAC08953C5C0883409F0C5C00E94C01F52
:1058B0008BE69EE00E94C9072FEF83ED90E3215015
:1058C00080409040E1F700C000000E942D270CC0EE
:1058D0008DEF9BE03FC082E59EE00E94C90780916A
:1058E0004203816080934203C1E0AAC080914203D9
:1058F000C82FC17080FFEFCF8EE59EE00E94C907E0
:1059000080914203817F8E7F3CC08091420381FB66
:10591000CC27C0F991E0C927C0FB81F980934203ED
:10592000CC2319F085E49EE027C087E39EE012C0F7
:105930008091420382FBCC27C0F991E0C927C0FBCC
:1059400082F980934203CC2319F088E29EE014C0D0
:1059500088E19EE00E94C907C7CF8091420383FB84
:10596000CC27C0F991E0C927C0FB83F9809342039B
:10597000CC2351F08CE09EE00E94C9078091420345
:105980008160809342035CC08FEF9DE0E3CF80EFA6
:105990009DE00E94C90783EC9DE00E94C9078CE846
:1059A0009DE00E94C9078FE59DE00E94C90789E23A
:1059B0009DE00E94C9078BEF9CE0CCCF8DEE9CE070
:1059C0000E94C9070E94BD191F928F9383ED9CE02E
:1059D0009F938F930E946208809120011F928F9362
:1059E0008CEB9CE09F938F930E9462088091E5026C
:1059F0001F928F9389EA9CE09F938F930E94620885
:105A00000E94A7269F938F937F936F9382E99CE0D8
:105A10009F938F930E9462088DB79EB742960FB6F0
:105A2000F8949EBF0FBE8DBF5FCF80E001C08D5147
:105A30000E94EB2B59CF80E99CE00E94C907C0E08F
:105A40008C2FCF910895CF93C82F8091520381302E
:105A500071F020F0823009F448C03FC1A0912101CB
:105A6000B09122018C91823209F039C107C0A09116
:105A70002101B09122018C91823249F48C2F0E9435
:105A8000920D81112FC08C2F0E94092C2CC08C2FBD
:105A90000E94BF0F811126C0C431E1F070F4CB30F9
:105AA00081F0C031D1F40E94B32A89EC9BE00E94BE
:105AB000C90782E08093520315C0C93259F0C83338
:105AC00061F486ED9BE00E94C9078DEC9BE00E948B
:105AD000C90708C01092520304C187EC9BE00E94E2
