:100000000C94A9050C94ED050C94ED050C94ED05EC
:100010000C94ED050C94ED050C94ED050C94ED0598
:100020000C94ED050C94ED050C94870D0C94590E71
:100030000C94F81C0C94ED050C94ED050C94ED0556
:100040000C94ED050C94ED050C94ED050C94ED0568
:100050000C94ED050C94971D0C94ED050C94ED0596
:100060000C94ED050C94ED050C94ED050C94ED0548
:100070000C94ED050C94ED050C94ED050C94ED0538
:100080000C94ED050C94ED050C94ED050C94ED0528
:100090000C94ED050C94ED050C94ED050C94ED0518
:1000A0000C94ED050C94ED050C94ED05BE0EE00EE0
:1000B000CB0FE00ECB0F220F450FCB0F9A0FAD0FDA
:1000C00004130413321332138E13CA13CD15CD1536
:1000D000E213CD15D914D914A715CD15CD15BB151F
:1000E0000A00690025640052005000022B0001E262
:1000F000012B0001A902A9007500010B020B0108E8
:100100000208010F020F010F020F74FF0112021209
:1001100000018CF0A138A233A32CA4F1A428310053
:100120002202C050044F041F141A16041D1B06207F
:100130002115080709190522231C170A0B11001E97
:10014000292BC2E1E2E32C2425180C0E0D100031FE
:10015000352A28C1E5E6E726271213330F36002D8E
:100160002E302F343837003B0000A9AA0000003C95
:100170003D0000A80000003E3F0000005557003A37
:100180003539E0E1E2E301404100464A5456004976
:100190004C2A2801E5E6E742434748504B4D0044CE
:1001A0004500524F514E00010101010101010101C1
:1001B000010101012A0101010101010150010001B8
:1001C000352BC2E1E2E32C0101010152510100494A
:1001D0004C2A0101E5E6E701010101014F0100019F
:1001E000010101010101003B0000FEFD0000003C97
:1001F0003D0000FFFF00F63E3FFB000000F5003A27
:1002000035C8E0E1E2E3F44041FAF0F1F2F40049EC
:100210004CC82801E501014243F9FCC3F3C900447D
:1002200045CAC90000CA003B0000A9AA0000003C62
:100230003D0000A80000F63E3FFB000000F5003A3C
:1002400035C8E0E1E2E3014041FAF0F1F2F400499F
:100250004CC82801E501014243F9FCF4F3C900440C
:1002600045F8F70000CA004B6579626F617264203F
:1002700073746172742E0A0055534220636F6E6668
:100280006967757265642E0A000D0A696E69740AE1
:10029000005B445D005B435D001203480048004B77
:1002A00000420020006D006F00640000000E037427
:1002B000002E006D002E006B002E000000040309CC
:1002C0000409028D00050100A032090400000103A9
:1002D00001010009211101000122400007058103ED
:1002E00008000A09040100010301020009211101AB
:1002F0000001224D000705820308000A09040200DC
:100300000103000000092111010001223600070548
:10031000830308000A090403000203000000092106
:1003200011010001222200070584032000010705B6
:100330000403200001090404000103000000092156
:100340001101000122390007058503200001120177
:10035000100100000008EDFEFECA040101020001C8
:1003600005010906A101050719E029E71500250186
:100370009508750181020508190129059505750182
:1003800091029501750391010507190029F71500E0
:10039000250195F875018102C00631FF0974A1019C
:1003A0000975150026FF009520750881020976154C
:1003B0000026FF00952075089102C005010980A163
:1003C00001850216810026B7001A81002AB7007540
:1003D0001095018100C0050C0901A10185031601DA
:1003E00000269C021A01002A9C02751095018100CA
:1003F000C005010902A1010901A10005091901298E
:10040000051500250195057501810295017503818A
:10041000010501093009311581257F950275088193
:100420000609381581257F950175088106050C0A96
:1004300038021581257F950175088106C0C0050128
:100440000906A101050719E029E71500250195080E
:1004500075018102950175088101050819012905B9
:100460009505750191029501750391010507190024
:1004700029FF150026FF00950675088100C0636FEF
:100480006E73756D65723A20253034580A007379A1
:100490007374656D3A20253034580A000A002530FF
:1004A000325820006B6579626F6172643A20004CAB
:1004B00045443A20253032580A00253032583A2037
:1004C0002530386225730A00722F632030313233B1
:1004D000343536370A0064656C5F6B65795F626935
:1004E000743A2063616E27742064656C3A2025306D
:1004F00032580A006164645F6B65795F6269743ABF
:100500002063616E2774206164643A20253032587C
:100510000A004F6E6573686F743A2074696D656F79
:1005200075740A00290A002575002F002575005DE5
:100530002800256400200025640020002564002098
:10054000002564007C0025303258006D6F7573659E
:100550006B6579205B62746E7C78207920762068E8
:100560005D287265702F61636C293A205B006D6BAA
:100570005F776865656C5F74696D655F746F5F6DEB
:100580006178203D2025640A006D6B5F77686565A2
:100590006C5F6D61785F7370656564203D202564D4
:1005A0000A006D6B5F74696D655F746F5F6D617874
:1005B000203D2025640A006D6B5F6D61785F73706C
:1005C000656564203D2025640A006D6B5F696E746B
:1005D000657276616C203D2025640A006D6B5F6456
:1005E000656C6179203D2025640A006D6B5F77683A
:1005F00065656C5F74696D655F746F5F6D617820B0
:100600003D2025640A006D6B5F776865656C5F6DE2
:1006100061785F7370656564203D2025640A006D14
:100620006B5F74696D655F746F5F6D6178203D20ED
:1006300025640A006D6B5F6D61785F73706565643A
:10064000203D2025640A006D6B5F696E74657276CB
:10065000616C203D2025640A006D6B5F64656C61F0
:1006600079203D2025640A000A00257500363A20CD
:10067000776865656C5F74696D655F746F5F6D61E8
:10068000783A20000A00257500353A2077686565BC
:100690006C5F6D61785F73706565643A20000A0075
:1006A000257500343A2074696D655F746F5F6D6104
:1006B000783A20000A00257500333A206D61785F92
:1006C00073706565643A20000A00257500323A208F
:1006D000696E74657276616C286D73293A20000A20
:1006E00000257500313A2064656C6179282A313023
:1006F0006D73293A20000A092D2056616C756573C7
:10070000202D0A004D3E004D25643E20003F007321
:1007100065742064656661756C740A00433E200050
:1007200077686572652064656C74613A20637572E0
:10073000736F723D25642C20776865656C3D256478
:100740000A53656520687474703A2F2F656E2E7792
:10075000696B6970656469612E6F72672F77696B69
:10076000692F4D6F7573655F6B6579730A000A09B0
:100770002D204D6F7573656B6579202D0A455343A8
:100780002F713A09717569740A313A0964656C61AF
:1007900079282A31306D73290A323A09696E7465F5
:1007A0007276616C286D73290A333A096D61785F3E
:1007B00073706565640A343A0974696D655F746FB6
:1007C0005F6D61780A353A09776865656C5F6D61C0
:1007D000785F73706565640A363A09776865656C99
:1007E0005F74696D655F746F5F6D61780A0A703A56
:1007F000097072696E742076616C7565730A643A6B
:10080000097365742064656661756C74730A75702C
:100810003A092B310A646F776E3A092D310A7067F5
:1008200075703A092B31300A7067646F776E3A0938
:100830002D31300A0A7370656564203D2064656C53
:100840007461202A206D61785F7370656564202A69
:100850002028726570656174202F2074696D655F52
:10086000746F5F6D6178290A003F004D3E200043A0
:100870003E20004C25640A000A092D20436F6E7348
:100880006F6C65202D0A4553432F713A09717569C4
:10089000740A6D3A096D6F7573656B65790A000AA4
:1008A000092D204D61676963202D0A643A0964654A
:1008B0006275670A783A096465627567206D6174CC
:1008C0007269780A6B3A096465627567206B6579AD
:1008D000626F6172640A6D3A096465627567206DC2
:1008E0006F7573650A763A0976657273696F6E0A79
:1008F000733A097374617475730A633A09636F6EAE
:10090000736F6C65206D6F64650A302D343A096C25
:1009100061796572302D34284631302D4634290AEC
:10092000506175733A09626F6F746C6F61646572C0
:100930000A6E3A094E4B524F0A003F004E4B524F3F
:100940003A206F66660A004E4B524F3A206F6E0A8D
:100950000074696D65725F72656164333228293A8B
:10096000202530346C580A006B6579626F617264BF
:100970005F6E6B726F3A2025580A006B6579626F63
:100980006172645F69646C653A2025580A006B6582
:1009900079626F6172645F70726F746F636F6C3ACB
:1009A0002025580A00686F73745F6B6579626F6108
:1009B00072645F6C65647328293A2025580A000A1E
:1009C000092D20537461747573202D0A0047434329
:1009D0003A20342E382E31204156522D4C49424374
:1009E0003A20312E382E3073766E204156525F41B8
:1009F0005243483A20617672350A004F5054494FAD
:100A00004E533A204C554641204D4F5553454B458A
:100A1000592045585452414B455920434F4E534F4E
:100A20004C4520434F4D4D414E44204E4B524F209C
:100A3000343039360A004255494C443A20756E6BC1
:100A40006E6F776E202831383A34343A3335204689
:100A500065622032302032303137290A005649444D
:100A60003A2030784645454428742E6D2E6B2E2949
:100A7000205049443A203078434146452848484B65
:100A800042206D6F6429205645523A20307830312B
:100A900030340A00444553433A20742E6D2E6B2E99
:100AA000206B6579626F617264206669726D77612F
:100AB000726520666F722048484B42206D6F640A51
:100AC000000A092D2056657273696F6E202D0A0089
:100AD0000A6D6F7573653A206F66660A000A6D6F5E
:100AE0007573653A206F6E0A000A6B6579626F61F3
:100AF00072643A206F66660A000A6B6579626F61FC
:100B000072643A206F6E0A000A6D61747269783AF5
:100B1000206F66660A000A6D61747269783A206F08
:100B20006E0A000A64656275673A206F6E0A000AF1
:100B300064656275673A206F66660A000A0A626F2A
:100B40006F746C6F616465722E2E2E2000433E2000
:100B5000000011241FBECFEFDAE0DEBFCDBF04B628
:100B600003FE24C080910A0290910B02A0910C0216
:100B7000B0910D028730904BA740B04BB9F4109262
:100B80000A0210920B0210920C0210920D0214BE77
:100B900084B7877F84BF88E10FB6F89480936000A4
:100BA000109260000FBEE0E0F8E3099511E0A0E0CC
:100BB000B1E0ECE0FDE402C005900D92A833B1076E
:100BC000D9F722E0A8E3B1E001C01D92AA30B20734
:100BD000E1F70E94BA0A0C9484260C940000FF935B
:100BE000EF93E0913801F0913901309709F00995C0
:100BF000EF91FF910895FC018591803011F0EFDFB6
:100C0000FBCF0895FF27E0E230E247FF0CC041959B
:100C100097FF09C0EDE26095709580959095611DF4
:100C2000711D811D911D27FF02C0219530E350E207
:100C3000AA27660F771F881F991FAA1FA41710F0F5
:100C4000A41B63955A95A9F7AA3008F0A95FA05D87
:100C5000AF93F395611571058105910541F7ED326B
:100C600011F4EF93F395F21718F43F93F395FBCF3C
:100C70008F91B5DFFA95E1F70895E991F9918591A2
:100C8000803021F0853219F0AADFF9CF089520E0F5
:100C9000E89455915532C1F3503311F4689455914D
:100CA0005A3348F4505390F3220F022E220F220F92
:100CB000200D250FF4CF0EF421958991999153368B
:100CC00019F3533729F1533559F1BC018827992776
:100CD000E8945C3621F48991999168945591543641
:100CE00039F446EF7EF077FF0DC08FEF9FEF0AC01B
:100CF00055374AE039F0583540E121F0523642E0AC
:100D000009F00895FF93EF937DDFEF91FF91B7CF47
:100D1000FF93EF93FC0181918030B9F360DFFBCF4B
:100D2000FF93EF9368DFF1CFDF93CF93CDB7DEB7BB
:100D30002596A3DFCF91DF910895FC01613051F03A
:100D400018F0623069F012C08281882379F088EF50
:100D500090E008958281882349F083EF90E0089520
:100D60008281882331F08EEE90E0089580E090E05B
:100D700008958BEE90E008951F93CF93DF93EC01DD
:100D8000162F9A818091EC01992329F080FF09C0E8
:100D900089EE90E004C080FF04C087EE90E00E94DE
:100DA000FB058091EC0180FF0FC08D8182958F70D3
:100DB0001F928F9384EE90E09F938F930E949406EE
:100DC0000F900F900F900F908D8180FF08C0809141
:100DD000EC0180FF04C082EE90E00E94FB05809150
:100DE000EC0180FF04C080EE90E00E94FB05111131
:100DF00030C09A818D81992361F0982F92959F70D0
:100E000011F080FF26C082E0DF91CF911F910C94FA
:100E1000AF12982F92959F70B1F080FD14C082E0C0
:100E20000E94021C0E94351C86E20E94DD1186E2AF
:100E30000E94871282E00E94081C0E94351C8D814E
:100E40008F708D8306C082E0DF91CF911F910C944B
:100E5000B612DF91CF911F9108958FEF84B980E48E
:100E600085B957985F9A87B18F7387B988B1806CBD
:100E700088B92E9A2F98E2E4F1E0119281E0EA34E9
:100E8000F807D9F7EAE3F1E0119281E0E234F807DC
:100E9000D9F782E491E090934D0180934C018AE36D
:100EA00091E090934B0180934A0108950F931F9313
:100EB000CF93DF9380914A0190914B0120914C0197
:100EC00030914D0130934B0120934A0190934D0195
:100ED00080934C01C0E0D0E001E010E080E090E0C1
:100EE00045B1407C4C2B9C0153E0220F331F5A9597
:100EF000E1F7422B45B9EAE1EA95F1F700C0E0914C
:100F00004A01F0914B01EC0FFD1F208130E0082ECB
:100F100002C0359527950A94E2F720FD2F9AF5E354
:100F2000FA95F1F70000A6B52E982AE12A95F1F777
:100F300000C020914C0130914D014F9B0EC0A80183
:100F4000082E01C0440F0A94EAF74095F901EC0F0E
:100F5000FD1F5081542350830CC0F901EC0FFD1F7D
:100F60006081A801082E01C0440F0A94EAF7642B9F
:100F7000608346B56A2F70E04A1718F046B550E016
:100F800004C046B550E041505F4F461B570B4630FA
:100F9000510558F0E0914A01F0914B01EC0FFD1F13
:100FA0004081F901EC0FFD1F4083EAE1EA95F1F77A
:100FB00000C02F982E9AEBE2F1E03197F1F700C0D4
:100FC000000001968830910509F08ACFA0914C016C
:100FD000B0914D01AC0FBD1FE0914A01F0914B0162
:100FE000EC0FFD1F9C918081981751F00E94361DD7
:100FF00060934E0170934F01809350019093510183
:101000002196C830D10509F069CF80910102853061
:1010100021F080910102811111C060914E01709107
:101020004F0180915001909151010E946B1D6131DF
:1010300077428105910510F00E94B91C81E0DF9193
:10104000CF911F910F910895E0914C01F0914D01C6
:10105000E80FF11D8081089508950895569A81FF43
:1010600002C05E9A08955E98089580917601089571
:101070009FB7F894109255019FBF90910102943050
:1010800009F058C09091E9009F702091EC0020FF7A
:1010900002C020E801C020E0292B94E09093E900F1
:1010A0009091EB0090FF43C09091EE0097FF3FC0FE
:1010B00090915201992321F09091E80095FF37C05B
:1010C0001092520196E03091E80035FD15C0309144
:1010D0000102343061F53091EB0035FD28C09150AC
:1010E00021F481E08093520122C0EFE9FFE03197C3
:1010F000F1F700C00000E7CF8093F1008091E80095
:1011000085FD0AC08091E80080FFFCCF8091E80057
:101110008E778093E80006C08FB7F89491E09093A3
:1011200055018FBF2F702093E90080E008952F7044
:101130002093E9008FEF0895CF93DF9300D01F92A3
:10114000CDB7DEB720910102243019F523E02983C1
:101150009B838A832093E9008FEF9091E800815070
:1011600095FD06C095ED9A95F1F700008111F5CF38
:101170008091E80085FF0DC040E050E063E070E042
:10118000CE0101960E947A0B8091E8008E778093C1
:10119000E8000F900F900F90DF91CF910895CF93BB
:1011A000DF9300D01F92CDB7DEB72091010224302B
:1011B00021F522E029839B838A8383E08093E900E1
:1011C0008FEF9091E800815095FD06C095ED9A95BE
:1011D000F1F700008111F5CF8091E80085FF0DC087
:1011E00040E050E063E070E0CE0101960E947A0B8F
:1011F0008091E8008E778093E8000F900F900F9019
:10120000DF91CF910895209101022430F1F422E082
:101210002093E9002FEF3091E800215035FD06C002
:1012200035ED3A95F1F700002111F5CF2091E80056
:1012300025FF0BC040E050E065E070E00E947A0BB3
:101240008091E8008E778093E8000895CF93DF9334
:10125000EC0180910102843009F047C080910A01BD
:101260008823E1F080910B018823C1F085E0809311
:10127000E9008FEF9091E800815095FD06C095E15F
:101280009A95F1F700008111F5CF8091E80085FF74
:101290002CC040E050E060E270E017C081E0809335
:1012A000E9008FEF9091E800815095FD06C095ED23
:1012B0009A95F1F700008111F5CF8091E80085FF44
:1012C00014C040E050E068E070E0CE010E947A0B6C
:1012D0008091E8008E778093E80080E2FE01A6E529
:1012E000B1E001900D928A95E1F7DF91CF910895D9
:1012F00085E992E00E94FB0580910002811109C0FE
:101300000E940C0D0E94690D8091E2008460809320
:10131000E200089581E992E00E94FB05109200022C
:1013200008950895809153018F5F8093530162E384
:101330000E944A26911135C01092530180915501A7
:10134000882379F180910102843049F58091E90088
:101350008F709091EC0090FF02C090E801C090E087
:10136000982B84E08093E9008091EB0080FF14C00B
:101370008091EE0087FF10C08091E80085FF03C0D8
:101380001092F100F9CF8091E80080FF05C08091B4
:10139000E8008E778093E8009F709093E9001092A8
:1013A0005501089542E061EC81E00E94860C42E024
:1013B00061EC82E00E94860C42E061EC83E00E94D6
:1013C000860C42E261EC84E00E94860C42E261EC11
:1013D00085E00C94860C80910302833009F455C09B
:1013E00030F4813071F0823009F48EC008958A3073
:1013F00009F47AC08B3009F460C0893009F09CC0D0
:1014000020C080910202813A09F096C08091E800E4
:10141000877F8093E8008091060290910702892BD4
:1014200021F060E080E090E003C060E286E591E0BA
:1014300070E00E94C30B8091E8008B778093E800F6
:10144000089580910202813209F076C080910602EF
:1014500090910702009719F0049709F06DC08091F0
:10146000E800877F8093E8008091E80082FD05C056
:10147000809101028111F8CF5FC08091F1008093CB
:1014800076018091E8008B7753C080910202813A07
:1014900009F052C08091060290910702892B09F051
:1014A0004BC08091E800877F8093E8008091E8003E
:1014B00080FFFCCF80910A0136C080910202813208
:1014C000D9F58091060290910702892BA9F58091A8
:1014D000E800877F8093E8000E94BB0C80910402A3
:1014E00080930A010C94EE1580910202813221F55D
:1014F0008091E800877F8093E8000E94BB0C809178
:10150000050280937701089580910202813AA1F447
:101510008091E800877F8093E8008091E80080FF59
:10152000FCCF809177018093F1008091E8008E7765
:101530008093E8000C94BB0C089508950895809161
:101540007601809354011092760180E00E942E086B
:101550000E9465110C94EE150C949F0A0E94B91C10
:101560008091FF01882329F00E94DF1C81110C94D7
:10157000640B089584B7877F84BF88E10FB6F89421
:1015800080936000109260000FBE90E080E80FB67C
:10159000F89480936100909361000FBE88E398E017
:1015A0000E948E1C89E892E00E94FB050E949D0A21
:1015B0000E94A0100E940C0D0E94690D8091E20013
:1015C00084608093E2007894809101028430E1F796
:1015D00088E792E00E94FB050E94A21080E091E063
:1015E0000E94E30F87E692E00E94FB050E949E0A9C
:1015F00080910102853019F40E94AE0AF9CF0E9451
:10160000A610F6CF0E94F41C8091540180937601BD
:1016100008950C94020B292F332723303105A9F0AC
:101620006CF42130310509F442C02230310509F053
:1016300043C08DE890E021EC32E042C02132310518
:10164000C9F02232310519F137C09927813091054F
:1016500041F08230910541F0892B71F5EDEBF2E01C
:1016600005C0EDEAF2E002C0E9E9F2E0849190E021
:101670009F0126C0653000F5E62FF0E0EE0FFF1F5A
:10168000ED5DFE4F2081318189E090E019C0653029
:1016900098F4E62FF0E0DF01AA0FBB1FA75EBE4F54
:1016A0002D913C91EC5EFE4F808190E009C082E17B
:1016B00090E02EE433E004C080E090E020E030E0F1
:1016C000FA0131832083089580E189BD82E189BDDB
:1016D00009B400FEFDCF8091D8008F7D8093D800A3
:1016E0008091E00082608093E0008091E00081FDC5
:1016F000FCCF0895CF92DF92EF92FF920F931F934A
:10170000CF93DF937C018B01EA010E94DC0C8111F5
:1017100031C0209731F088819981081B190BE80EA0
:10172000F91EC12CD12C0115110519F18091E80089
:1017300085FD14C08091E8008E778093E8002097A3
:1017400041F0888199818C0D9D1D9983888385E066
:1017500011C00E94DC0C882331F30CC0F701819189
:101760007F018093F10001501109FFEFCF1ADF0ACA
:10177000DACF80E0DF91CF911F910F91FF90EF9032
:10178000DF90CF900895209108023091090226172A
:10179000370748F06115710539F42091E8002E777C
:1017A0002093E80001C0B901FC0120E0611571053A
:1017B000B9F180910102882309F440C0853009F411
:1017C0003FC08091E80083FD3DC08091E80082FF2A
:1017D00006C08091E80082FF26C080E008958091D5
:1017E000E80080FFE3CF2091F3008091F20090E0C9
:1017F000922B6115710551F08830910538F42191D3
:101800002093F100615071090196F3CF21E0089710
:1018100009F020E08091E8008E778093E800C6CF41
:101820002111C7CFD6CF80910102882339F08530AE
:1018300039F08091E80083FFCCCF04C082E00895A6
:1018400083E0089581E00895209108023091090213
:101850002617370748F06115710539F42091E80023
:101860002E772093E80001C0B901FC0120E061154A
:101870007105C1F180910102882309F441C08530CE
:1018800009F440C08091E80083FD3EC08091E800EB
:1018900082FF06C08091E80082FF27C080E00895A3
:1018A0008091E80080FFE3CF2091F3008091F20067
:1018B00090E0922B6115710559F08830910540F444
:1018C00024912093F1003196615071090196F2CF75
:1018D00021E0089709F020E08091E8008E7780935E
:1018E000E800C5CF2111C6CFD5CF80910102882352
:1018F00039F0853039F08091E80083FFCBCF04C008
:1019000082E0089583E0089581E00895982F97304C
:1019100058F59093E900981739F07091EC002091F8
:10192000ED005091F00003C0242F762F50E021FFEE
:1019300019C03091EB003E7F3093EB003091ED0009
:101940003D7F3093ED003091EB0031603093EB0040
:101950007093EC002093ED005093F0002091EE0086
:1019600027FF07C09F5FD3CF8F708093E90081E08E
:10197000089580E008958091020287FD05C080915E
:10198000E80080FF0EC012C08091E80082FD05C013
:10199000809101028111F8CF08958091E8008B7742
:1019A00008C0809101028111EACF08958091E8007A
:1019B0008E778093E80008958091E4009091E5008F
:1019C00045E62091EC0020FF21C02091E80020FD99
:1019D00021C020910102222389F0253089F0209135
:1019E000EB0025FD0FC02091E4003091E5002817A1
:1019F000390739F3415041F0C901E3CF82E008953E
:101A000083E0089581E0089584E008952091E8003E
:101A100022FFDFCF80E008950E947A0D0E94820DA0
:101A2000E0EEF0E0808181608083E8EDF0E080818D
:101A30008F77808319BCA7EDB0E08C918E7F8C935B
:101A400080818F7E80831092000208950F931F93F0
:101A5000CF93DF930E947A0D0E94820DC8EDD0E0F3
:101A600088818F77888388818068888388818F7D4B
:101A7000888319BC109201021092FD011092FF019F
:101A80001092FE0100EE10E0F80180818B7F8083D0
:101A900088818160888342E060E080E00E94860C5B
:101AA000E1EEF0E080818E7F8083E2EEF0E08081E5
:101AB00081608083808188608083F80180818E7F4F
:101AC0008083888180618883DF91CF911F910F91FE
:101AD0000895E8EDF0E080818F7E8083E7EDF0E00F
:101AE00080818160808384E082BF81E080930002F6
:101AF0000C94260DE8EDF0E080818E7F80831092BB
:101B0000E20008951092DA001092E10008951F9209
:101B10000F920FB60F9211242F933F934F935F9321
:101B20006F937F938F939F93AF93BF93EF93FF93A5
:101B30008091E10082FF0BC08091E20082FF07C02C
:101B40008091E1008B7F8093E1000E949209809157
:101B5000DA0080FF1FC08091D80080FF1BC08091F9
:101B6000DA008E7F8093DA008091D90080FF0DC06B
:101B700080E189BD82E189BD09B400FEFDCF81E02D
:101B8000809301020E94780905C019BC10920102DD
:101B90000E948A098091E10080FF19C08091E200D3
:101BA00080FF15C08091E2008E7F8093E2008091DB
:101BB000E20080618093E2008091D800806280938F
:101BC000D80019BC85E0809301020E94AC0A809184
:101BD000E10084FF30C08091E20084FF2CC080E1EE
:101BE00089BD82E189BD09B400FEFDCF8091D80096
:101BF0008F7D8093D8008091E1008F7E8093E100FB
:101C00008091E2008F7E8093E2008091E20081600B
:101C10008093E2008091FD01882311F084E007C0E9
:101C20008091E30087FF02C083E001C081E08093E0
:101C300001020E94090B8091E10083FF29C080917D
:101C4000E20083FF25C08091E100877F8093E1005F
:101C500082E0809301021092FD018091E1008E7F6D
:101C60008093E1008091E2008E7F8093E20080917A
:101C7000E20080618093E20042E060E080E00E9448
:101C8000860C8091F00088608093F0000E9491099A
:101C9000FF91EF91BF91AF919F918F917F916F9144
:101CA0005F914F913F912F910F900FBE0F901F901A
:101CB00018951F920F920FB60F9211242F933F93F6
:101CC0004F935F936F937F938F939F93AF93BF9344
:101CD000CF93EF93FF93C091E900CF708091EC0018
:101CE0001092E9008091F000877F8093F000789453
:101CF0000E94950E1092E9008091F0008860809318
:101D0000F000C093E900FF91EF91CF91BF91AF91A7
:101D10009F918F917F916F915F914F913F912F9103
:101D20000F900FBE0F901F9018951F93CF93DF93C6
:101D3000CDB7DEB7AA970FB6F894DEBF0FBECDBF02
:101D4000E2E0F2E08091F100819322E0EA30F207D4
:101D5000C9F70E94EB098091E80083FF1CC1209124
:101D6000020230910302832F90E08A30910508F03F
:101D700012C1FC01EA5AFF4F0C946A26203881F008
:101D8000223809F008C1809106028F708093E90023
:101D90008091EB0085FB882780F91092E90006C04E
:101DA0008091FE019091FF01911182609091E80075
:101DB000977F9093E8008093F1001092F100C5C0E6
:101DC000822F8D7F09F0E7C0222319F0223061F0C5
:101DD000E2C080910402813009F0DDC0333009F0A7
:101DE00080E08093FF0128C080910402811124C00B
:101DF000209106022F7009F4CEC02093E900809153
:101E0000EB0080FF19C08091EB00333011F4806249
:101E100011C080618093EB0081E090E0022E01C050
:101E2000880F0A94EAF78093EA001092EA00809102
:101E3000EB0088608093EB001092E9008091E8004D
:101E4000877F86C02111A7C0109104021F7780915F
:101E5000E3008078812B8093E3008091E800877F06
:101E60008093E8000E94BB0C8091E80080FFFCCFCB
:101E70008091E30080688093E300112311F083E0F8
:101E800001C082E08093010286C02058223008F011
:101E900082C080910402909105028C3D23E092075C
:101EA00079F583E08A838AE289834FB7F894DE016B
:101EB000139620E03EE051E2E32FF0E0509357000C
:101EC000E49120FF03C0E295EF703F5FEF708E2F2B
:101ED00090E0EA3010F0C79601C0C0968D939D93B4
:101EE0002F5F243149F74FBF8091E800877F8093AF
:101EF000E8006AE270E0CE0101960E94C30B14C0B4
:101F0000AE014F5F5F4F609106020E940B0B00977E
:101F100009F441C02091E800277F2093E800BC012C
:101F200089819A810E94240C8091E8008B778093AC
:101F3000E80031C0203879F58091E800877F8093F0
:101F4000E8008091FD018093F1008091E8008E7798
:101F50008093E8000E94BB0C1EC021111CC0909110
:101F600004029230C0F48091E800877F8093E800FB
:101F70009093FD010E94BB0C8091FD01811104C072
:101F80008091E30087FF02C084E001C081E080937C
:101F900001020E94D2098091E80083FF0AC080916B
:101FA000E800877F8093E8008091EB008062809357
:101FB000EB00AA960FB6F894DEBF0FBECDBFDF913F
:101FC000CF911F91089590937D0180937C01089596
:101FD000E0917C01F0917D01309721F00190F0813A
:101FE000E02D099480E00895FF920F931F93CF9303
:101FF000DF938C01E0917C01F0917D01309799F1A4
:102000000280F381E02D09958091EC0182FF2BC0C5
:1020100080FF04C084EA94E00E94FB05E80180E2AE
:10202000F82E0EE914E08091EC0180FF0BC088814E
:102030001F928F931F930F930E9494060F900F90FF
:102040000F900F90FA942196F110EDCF8091EC0152
:1020500080FF09C08CE994E0DF91CF911F910F912F
:10206000FF900C94FB05DF91CF911F910F91FF9092
:102070000895E0917C01F0917D01309721F004807A
:10208000F581E02D09940895CF93DF93EC018091C1
:102090007A0190917B01C817D90709F1D0937B0190
:1020A000C0937A01E0917C01F0917D013097B9F005
:1020B0000680F781E02DCE0109958091EC0182FF29
:1020C0000EC080FF0CC0DF93CF938EE894E09F9307
:1020D0008F930E9494060F900F900F900F90DF91B6
:1020E000CF910895CF93DF93EC0180917801909187
:1020F0007901C817D90709F1D0937901C093780104
:10210000E0917C01F0917D013097B9F00084F18578
:10211000E02DCE0109958091EC0182FF0EC080FF79
:102120000CC0DF93CF938EE794E09F938F930E9430
:1021300094060F900F900F900F90DF91CF9108951C
:102140000C9466110E94211D0C942D07CF92DF92F2
:10215000EF92FF920F931F93CF93DF9300D000D0A5
:1021600000D0CDB7DEB70E9456073FE7E32E31E03F
:10217000F32E00E010E0C02E802F0E942408F7010B
:10218000D1907F01D826B1F40F5F1F4F08301105A1
:1021900091F78FEF89838A831B820E942A1D8160B9
:1021A000782F9D838C8349815A816B818D810E9418
:1021B0009B1148C09091EC0191FF04C08E830E9456
:1021C00067118E8120E030E04D2D50E0922FBA0152
:1021D000022E02C0759567950A94E2F760FF2CC045
:1021E0002983CA82EE24E394F12C02C0EE0CFF1C7A
:1021F0009A95E2F790E08E219F2121E0892B09F446
:1022000020E02B830E942A1D8160782F9D838C8380
:1022100049815A816B818D810E949B1149815A812C
:102220006B817C818D810E94A61CF801E158FE4FD4
:1022300080818E25808306C02F5F3F4F2830310577
:1022400029F6A2CF0E94A51C0E94952010917E0124
:102250000E94E80F181741F10E94E80F80937E0159
:102260009091EC0192FF0EC090FF0CC01F928F93D3
:102270008FEA94E09F938F930E9494060F900F90A3
:102280000F900F9080917E0126960FB6F894DEBFD6
:102290000FBECDBFDF91CF911F910F91FF90EF90B7
:1022A000DF90CF900C94B71C26960FB6F894DEBF43
:1022B0000FBECDBFDF91CF911F910F91FF90EF9097
:1022C000DF90CF9008950C942E0808950895EF9212
:1022D000FF920F931F93CF93DF9388EC94E00E94BB
:1022E000FB05C0E0D0E08DE2E82E81E0F82E0AEB9D
:1022F00014E08C2F0E9424080E94931CFF92EF92FE
:102300001F928F93DF93CF931F930F930E94940696
:1023100021968DB79EB708960FB6F8949EBF0FBE54
:102320008DBFC830D10529F7DF91CF911F910F9153
:10233000FF90EF900895CF93DF93CDB7DEB72B9743
:102340000FB6F894DEBF0FBECDBF4F8358876987A5
:102350007A878B878A859B85892B31F05F3F11F0C7
:1023600080E003C04F3FE1F781E0811107C04F815A
:10237000588569857A858B850E94A61CDE01119699
:1023800086E0FD0111928A95E9F785E0FE01379616
:1023900001900D928A95E1F749815A816B817C8188
:1023A0008D819E810E94CC182B960FB6F894DEBFCB
:1023B0000FBECDBFDF91CF910895CF93C82F882353
:1023C00009F4A3C08CEF8C0F813A48F48C2F0E9443
:1023D000D62381119AC08C2F0E94491B0CC080E229
:1023E0008C0F883058F4C77081E001C0880FCA95FF
:1023F000EAF70E94EF1BCF910C94351C8BE58C0FF4
:10240000833078F4C53A29F0C63A31F482E890E096
:1024100005C081E890E002C083E890E0CF910C9481
:10242000441088E58C0F853108F06FC0C83A61F11F
:10243000C93A69F1CA3A71F1CB3A79F1CC3A81F1F2
:10244000CD3A89F1CE3A91F1CF3A99F1C13BA1F160
:10245000C03BA9F1C23BB1F1C33BB9F1C43BC1F1EF
:10246000C53BC9F1C63BD1F1C73BD9F1C83BE1F14E
:10247000C93BE9F1CA3BF1F1CB3BF9F1CC3B09F0A7
:102480003FC08AE292E03EC082EE90E03BC089EE1F
:1024900090E038C08AEE90E035C085EB90E032C025
:1024A00086EB90E02FC083EB90E02CC084EB90E0B3
:1024B00029C087EB90E026C08CEC90E023C08DEC27
:1024C00090E020C083E891E01DC08AE891E01AC046
:1024D00082E991E017C084E991E014C081E292E0C2
:1024E00011C083E292E00EC084E292E00BC085E26C
:1024F00092E008C086E292E005C087E292E002C066
:1025000080E090E0CF910C947210CF9108958823D1
:1025100029F19CEF980F913A18F40E949A1B0DC074
:1025200090E2980F983058F4877091E001C0990FAD
:102530008A95EAF7892F0E94F51B0C94351C9BE5C0
:10254000980F933020F480E090E00C944410885A67
:10255000853120F480E090E00C9472100895882377
:1025600021F00E94EF1B0C94351C0895882321F064
:102570000E94F51B0C94351C0895CF92DF92EF92C8
:10258000FF920F931F93CF93DF93CDB7DEB72897BA
:102590000FB6F894DEBF0FBECDBF8C0185E0F80109
:1025A000DE01119601900D928A95E1F7F8014081C4
:1025B0003181F280258122952F7083819481892B2E
:1025C00031F03F3F31F481E04F3F19F403C081E027
:1025D00001C080E080FDE1C249833A8389819A810C
:1025E0002F830E94071B9E8388870E94061B0E94E0
:1025F0002E1A4E81E42FE295EF70F0E0E05AFF4F83
:102600002F8168850C946A26842F807F142F1F7079
:10261000882311F01295107FFF2059F0112309F43F
:1026200071C2812F68870E94021C0E94351C688538
:1026300069C2862F0E948712112309F4AEC2812F2E
:102640000E94081C28960FB6F894DEBF0FBECDBFBF
:10265000DF91CF911F910F91FF90EF90DF90CF907E
:102660000C94351C842F807F942F9F70E92E80322C
:1026700019F0E29480EFE822662319F0613001F14D
:1026800029C0FF20A9F08E2D222349F1213039F5F0
:1026900028960FB6F894DEBF0FBECDBFDF91CF9165
:1026A0001F910F91FF90EF90DF90CF900C94121C30
:1026B000222319F0213009F470C20E941B1C2CC087
:1026C000FF20E9F0263008F068C20E94EC1B8E2142
:1026D00029F022C0FF20F1F0211115C08E2D28967F
:1026E0000FB6F894DEBF0FBECDBFDF91CF911F9123
:1026F0000F91FF90EF90DF90CF900C94AF122530A8
:1027000008F04BC209C0F801858180FFFBC18F70C2
:102710008583E4CF21110AC28E2D78C1242F2695FE
:102720002695237030E02115310521F02130310547
:10273000C9F033C2FF2021F0862F942F937002C07E
:1027400080E090E028960FB6F894DEBF0FBECDBFB4
:10275000DF91CF911F910F91FF90EF90DF90CF907D
:102760000C944410FF2021F0862F942F937002C008
:1027700080E090E028960FB6F894DEBF0FBECDBF84
:10278000DF91CF911F910F91FF90EF90DF90CF904D
:102790000C947210862FFF2019F00E941B1F02C09C
:1027A0000E94831F28960FB6F894DEBF0FBECDBFE0
:1027B000DF91CF911F910F91FF90EF90DF90CF901D
:1027C0000C940820842F837009F076C0F110E5C1C5
:1027D000262F229526952770220F220F862F8F7085
:1027E000C82ED12CE12CF12C022E04C0CC0CDD1C07
:1027F000EE1CFF1C0A94D2F764FF10C06FE070E07B
:1028000080E090E004C0660F771F881F991F2A950B
:10281000D2F7609570958095909503C060E070E068
:10282000CB01242F269526952370422F50E042306D
:102830005105D1F04330510559F16C297D298E297C
:102840009F294130510541F128960FB6F894DEBF1B
:102850000FBECDBFDF91CF911F910F91FF90EF90F1
:10286000DF90CF900C94431A6C297D298E299F29E3
:1028700028960FB6F894DEBF0FBECDBFDF91CF9183
:102880001F910F91FF90EF90DF90CF900C94551A0D
:102890000E94431AC701B60128960FB6F894DEBF0E
:1028A0000FBECDBFDF91CF911F910F91FF90EF90A1
:1028B000DF90CF900C94311AFF2019F0842F817093
:1028C00001C08695882309F468C1262F2295269594
:1028D0002770220F220F862F8F70C82ED12CE12C4B
:1028E000F12C022E04C0CC0CDD1CEE1CFF1C0A9443
:1028F000D2F764FF10C06FE070E080E090E004C0A9
:10290000660F771F881F991F2A95D2F760957095DB
:102910008095909503C060E070E0CB01242F269550
:1029200026952370422F50E042305105D1F04330BC
:10293000510559F16C297D298E299F294130510576
:1029400041F128960FB6F894DEBF0FBECDBFDF91E0
:10295000CF911F910F91FF90EF90DF90CF900C944B
:10296000E21A6C297D298E299F2928960FB6F894A2
:10297000DEBF0FBECDBFDF91CF911F910F91FF90B2
:10298000EF90DF90CF900C94F41A0E94E21AC701E6
:10299000B60128960FB6F894DEBF0FBECDBFDF910B
:1029A000CF911F910F91FF90EF90DF90CF900C94FB
:1029B000D01A603FD9F128F480E4860F803250F0BD
:1029C0009CC0623F09F461C008F44BC0633F09F446
:1029D00070C093C0162F1071842F8F716887FF20ED
:1029E00059F00E947B1A6885862F112319F0829571
:1029F000807F75CE8F7073CE0E94961A6885862F61
:102A0000112319F08295807F01C08F7028960FB630
:102A1000F894DEBF0FBECDBFDF91CF911F910F9114
:102A2000FF90EF90DF90CF900C94B612FF20A9F0AA
:102A3000253008F0B2C0842F8F7128960FB6F89415
:102A4000DEBF0FBECDBFDF91CF911F910F91FF90E1
:102A5000EF90DF90CF900C94B51A263008F09DC00F
:102A6000EACFFF20A1F0842F8F7128960FB6F8943B
:102A7000DEBF0FBECDBFDF91CF911F910F91FF90B1
:102A8000EF90DF90CF900C947B1AFF2061F3842F9E
:102A90008F7128960FB6F894DEBF0FBECDBFDF91C1
:102AA000CF911F910F91FF90EF90DF90CF900C94FA
:102AB000961AFF2091F0842F8F7128960FB6F89404
:102AC000DEBF0FBECDBFDF91CF911F910F91FF9061
:102AD000EF90DF90CF900C946C1A28960FB6F89474
:102AE000DEBF0FBECDBFDF91CF911F910F91FF9041
:102AF000EF90DF90CF900C94671AFF20A1F0222373
:102B000009F4B1CF862F28960FB6F894DEBF0FBE1A
:102B1000CDBFDF91CF911F910F91FF90EF90DF908C
:102B2000CF900C94DD11222309F4B1CF862F289683
:102B30000FB6F894DEBF0FBECDBFDF91CF911F91CE
:102B40000F91FF90EF90DF90CF900C9487124F7011
:102B5000C8010E949D0628960FB6F894DEBF0FBEEE
:102B6000CDBFDF91CF911F910F91FF90EF90DF903C
:102B7000CF900C9479194F70C80128960FB6F8942D
:102B8000DEBF0FBECDBFDF91CF911F910F91FF90A0
:102B9000EF90DF90CF900C94BC0628960FB6F89477
:102BA000DEBF0FBECDBFDF91CF911F910F91FF9080
:102BB000EF90DF90CF9008950E940F1C0E94DE1BC3
:102BC0000E94351C0E9436210E94082080E090E07F
:102BD0000E94441080E090E00C9472100E94FF1B51
:102BE0000C94DC150E94071B292F22952F7030E0D2
:102BF0002C3031054CF42A303105C4F4225031090F
:102C00002230310540F021C02C303105D1F02F3079
:102C10003105B9F01AC0853A28F48430C0F4823006
:102C200028F415C090E2980F983088F0883E30F470
:102C3000803E68F48450813A40F409C0803F29F412
:102C400006C093FB882780F9089580E0089581E00D
:102C50000895CF93DF9300D000D01F92CDB7DEB799
:102C60000F900F900F900F900F90DF91CF910895DC
:102C7000CF93DF9300D000D000D0CDB7DEB726963B
:102C80000FB6F894DEBF0FBECDBFDF91CF91089590
:102C90001F93CF93DF93C091870116E08091880145
:102CA000C81799F0D0E01C9FF0011D9FF00D112472
:102CB000E757FE4F40815181628173818481958104
:102CC0000E9438162196C770E9CFDF91CF911F91EE
:102CD00008954091B9015091BA016091BB01709182
:102CE000BC018091BD019091BE010C943816CF9328
:102CF0008091BE0182958F7009F05FC08091BB0109
:102D0000882309F45AC020918701A091880160911D
:102D1000B9017091BA018091BC019091BD0131E07F
:102D20006F3F09F030E0B32FC6E02A1709F445C021
:102D3000009721F07F3F21F44B2F03C041E001C0F9
:102D400040E030E040FD35C0C29FF001C39FF00D70
:102D50001124E757FE4F418174132BC04081641347
:102D600028C04281411125C0438154814817590729
:102D700010F441505109481B590B4C325140C8F4D2
:102D80008091BE018F7080618093BE0186E0829F3A
:102D9000F001839FF00D1124E257FE4F80818F7068
:102DA0008061808389EB91E00E94BD12CF910C94E9
:102DB00048162F5F3F4F2770B8CFCF910895CF921D
:102DC000DF92EF92FF920F931F93CF93DF93CDB7D4
:102DD000DEB762970FB6F894DEBF0FBECDBF8C0191
:102DE00085E0F801DE011D9601900D928A95E1F7CC
:102DF000D8014C9111965C91119712966C91129793
:102E00001396ED90FC9014977091B901E091BA017E
:102E10002091BC013091BD012115310531F0EF3F0A
:102E200031F481E07F3F19F403C081E001C080E00C
:102E3000B82FB170CB2E80FD6DC1D090BB01DD20CD
:102E400009F4F6C0F091BE01E216F30638F0C701AE
:102E5000821B930B8C32914048F09CC0209530959A
:102E60002E0D3F1D2C32314008F094C08F2F807FF3
:102E700009F053C0E51315C0741313C0D62E6111A9
:102E800010C0FF70F061F093BE010E94691689EBDB
:102E900091E00E94BD128091BE01D80115968C93DD
:102EA0006BC1EF2831F05F3F31F481E04F3F19F4FF
:102EB00003C081E001C080E080FD03C081E086277F
:102EC00001C080E0B82FB170FB2E80FF1CC0809144
:102ED00087012091880136E0821709F428C190E02B
:102EE000389FF001399FF00D1124E757FE4F718193
:102EF000571306C07081471303C07281671303C064
:102F000001968770E9CFD62E662309F435C18091EA
:102F1000BE0181608093BE0153C0E51308C07413E5
:102F200006C0611104C0D8011596FC93AEC04D8750
:102F30005E878D859E856A8B0E94F2156A8988233B
:102F400029F1D62E662311F12091BE01822F8295A0
:102F50008F7090E002970CF460C08091B90190915D
:102F6000BA0198878F831986FB86EA862C87CE0163
:102F7000079651C0E51731F14D875E878D859E8597
:102F80006A8B0E94F2156A8981112EC0C8010E94C5
:102F9000BD12A4C08F2F807F69F77E2DF98AE88A41
:102FA00089890E94291689EB91E00E94BD12E9EB04
:102FB000F1E086E0DF011D928A95E9F70E9469162B
:102FC000D12CDAC07413D8CF6111D6CFD8011596A1
:102FD000FC93C8010E94BD12E9EBF1E086E0DF013D
:102FE0001D928A95E9F7C8C0D62E662379F2209102
:102FF000BE01822F82958F7090E0029774F08091CD
:10300000B9019091BA019A8389831B82FD82EC8277
:103010002E83CE0101960E94BD1286E0F801A9EB35
:10302000B1E001900D928A95E1F70E9477166FC08A
:10303000E216F30640F0C701821B930B9C012C3271
:10304000314048F057C0209530952E0D3F1D2C3251
:10305000314008F04FC0D62E662309F497CFE51310
:1030600029C0741327C08091BE0180FD1AC0982F1B
:1030700092959F70B1F0F80185839F3031F09F5F8A
:103080009295907F8F70892B8583C8010E94BD1215
:1030900086E0F801A9EBB1E001900D928A95E1F785
:1030A00036C086E0F801A9EBB1E001900D928A9557
:1030B000E1F762C04D875E878D859E850E94F2157F
:1030C000882379F086E0F801A9EBB1E001900D9238
:1030D0008A95E1F70E9477160E946916DD24D39441
:1030E0004BC08091BE0181608093BE01C8010E94E7
:1030F000BD1242C07E2DF98AE88A89890E9429166C
:10310000E9EBF1E086E0DF011D928A95E9F70E9484
:10311000691632C0662309F439CF4D875E878D85E5
:103120009E850E94F215882309F430CFCBCF4D87BE
:103130005E878D859E850E94071B292F22952F7003
:1031400030E0223031052CF49F7041F0811106C02F
:103150000CC0243031052CF49F7049F4805E883017
:1031600020F0C8010E94BD12CF2CDC2C05C0F80154
:103170009581907F99F7F9CF8D2D62960FB6F894CF
:10318000DEBF0FBECDBFDF91CF911F910F91FF909A
:10319000EF90DF90CF9008951F93CF93DF93CDB73B
:1031A000DEB72C970FB6F894DEBF0FBECDBF4F83AE
:1031B000588769877A878B879C87CE0107960E94FC
:1031C000DF168823C1F02F8138858A859B85892B5E
:1031D00031F03F3F11F080E003C02F3FE1F781E085
:1031E000811147C04F81588569857A858B859C857B
:1031F0000E9438163EC086E0FE013796DE01119629
:1032000001900D928A95E1F7FF81E8854A855B85FB
:103210004115510531F0EF3F31F481E0FF3F19F4E2
:1032200003C081E001C080E080FD23C020918801BF
:1032300030E0C9010196877099276091870170E09D
:1032400086179707F1F1F983EA835D834C8396E053
:10325000929FD001939FB00D1124A757BE4FFE013E
:10326000319601900D929A95E1F7809388010E9422
:10327000481616E08091870190918801891779F1AD
:10328000189FC001112487579E4F0E94DF16882384
:1032900031F1E09187011E9FF0011124E757FE4FA5
:1032A0004081518162817381848195810E943816A9
:1032B0008091870190E0019687709927809387011C
:1032C000D9CF0E94EE151092880110928701E9EB88
:1032D000F1E086E0DF011D928A95E9F7CACF2C96CE
:1032E0000FB6F894DEBF0FBECDBFDF91CF911F9117
:1032F0000895DF92EF92FF920F931F93CF93DF9386
:10330000FC01009709F48AC0E12CF12CDD24D39450
:10331000EF0121968491853709F461C058F4843710
:1033200008F04EC0843008F06AC08130D1F082309D
:1033300071F174C0883709F45DC050F4863709F420
:1033400055C0873709F06AC08E2D0E94FC1B54C0FF
:103350009CE7980F903708F061C08F770E94871222
:1033600050C08F010E5F1F4FFE01849190E2980FB5
:10337000983050F48770FD2D01C0FF0F8A95EAF751
:103380008F2F0E94021C15C00E94DD1114C08F01F6
:103390000E5F1F4FFE01849190E2980F983068F401
:1033A0008770FD2D01C0FF0F8A95EAF78F2F0E94CD
:1033B000081C0E94351CE80124C00E948712FBCF24
:1033C0009F012E5F3F4FFE01C491CC2369F08FE92E
:1033D0009FE00197F1F700C00000C150F6CF9F01B8
:1033E0002E5F3F4FFE01F490E9010BC00E94EC1BE1
:1033F000E82E07C00E94FF1B0E94351C02C00E94DD
:10340000DD119F2D992341F0EFE9FFE03197F1F7AE
:1034100000C000009150F6CFFE017ACFDF91CF912E
:103420001F910F91FF90EF90DF9008956093C3017B
:103430007093C4018093C5019093C6010E94B51C8E
:103440000C94DC156093BF017093C0018093C1019F
:103450009093C2010E94B61C0C94DC1508950C9444
:10346000161A0F931F930091C3011091C40120916C
:10347000C5013091C601602B712B822B932B1F91BC
:103480000F910C94161A0F931F930091C301109182
:10349000C4012091C5013091C601602371238223AC
:1034A00093231F910F910C94161A0F931F93009161
:1034B000C3011091C4012091C5013091C60160275C
:1034C0007127822793271F910F910C94161A60E0A1
:1034D00070E0CB010C94221A41E050E060E070E013
:1034E00004C0440F551F661F771F8A95D2F7CB0182
:1034F000BA010C94221A41E050E060E070E004C090
:10350000440F551F661F771F8A95D2F78091BF0120
:103510009091C001A091C101B091C201482B592BDB
:103520006A2B7B2BCB01BA010C94221A41E050E0AC
:1035300060E070E004C0440F551F661F771F8A9536
:10354000D2F740955095609570958091BF0190910C
:10355000C001A091C101B091C201482359236A233F
:103560007B23CB01BA010C94221A41E050E060E0C9
:1035700070E004C0440F551F661F771F8A95D2F76D
:103580008091BF019091C001A091C101B091C20191
:10359000482759276A277B27CB01BA010C94221AA6
:1035A0000F931F930091BF011091C0012091C101A1
:1035B0003091C201602B712B822B932B1F910F91A5
:1035C0000C94221A0F931F930091BF011091C00118
:1035D0002091C1013091C201602371238223932382
:1035E0001F910F910C94221A0F931F930091BF010A
:1035F0001091C0012091C1013091C2016027712753
:10360000822793271F910F910C94221A0895CF922D
:10361000DF92EF92FF920F931F93CF93DF93EC0112
:10362000C090C301D090C401E090C501F090C601E4
:103630008091BF019091C001A091C101B091C201E0
:10364000C82AD92AEA2AFB2A0FE110E0B701A6010D
:10365000002E04C076956795579547950A94D2F742
:1036600040FF07C0BE01802F0E94FA1D81309105E6
:1036700039F40150110950F7BE0180E00E94FA1D93
:10368000DF91CF911F910F91FF90EF90DF90CF903E
:10369000089590910A01992361F190910B0199236A
:1036A00041F1982F9695969596959F3188F4E091E3
:1036B0000C01F0910D01E90FF11D877021E030E060
:1036C00001C0220F8A95EAF78181822B81830895B8
:1036D0009091EC0190FF2DC01F928F9384EF94E0A6
:1036E0009F938F930E9494060F900F900F900F90CE
:1036F000089540910C0150910D0120E030E09FEFC2
:10370000FA01E20FF31F6281681799F09F3F19F4E5
:10371000611101C0922F2F5F3F4F2E31310581F78C
:103720009F3F39F0FA01E90FF11D97FDFA95828369
:103730000895089590910A01992369F190910B01E0
:10374000992349F1982F9695969596959F3190F4E7
:10375000E0910C01F0910D01E90FF11D877021E05E
:1037600030E001C0220F8A95EAF720958181282355
:10377000218308959091EC0190FF1FC01F928F93B9
:1037800086ED94E09F938F930E9494060F900F9084
:103790000F900F90089540910C0150910D0120E081
:1037A00030E0FA01E20FF31F9281981301C01282F8
:1037B0002F5F3F4F2E313105A1F7089581E090E052
:1037C000E0910C01F0910D01E80FF91F10820196B4
:1037D00080329105A9F708958091EB0108959091A9
:1037E000EB01982B9093EB01089580959091EB015C
:1037F00098239093EB0108958093EB010895109224
:10380000EB0108959091EA01982B9093EA010895B5
:1038100080959091EA0198239093EA01089510927F
:10382000EA0108958093C9010E942A1D9093C8015E
:103830008093C70108951092C9011092C801109297
:10384000C701089540910C0150910D0120E030E036
:1038500080E0FA01E20FF31F918191118F5F2F5FDA
:103860003F4F2F313105A9F70895E0910C01F091F8
:103870000D018091EB018083E0910C01F0910D012D
:1038800080819091EA01892B80838091C9018823EE
:1038900009F43EC00E942A1D2091C7013091C80141
:1038A0008217930760F00E942A1D2091C701309172
:1038B000C801821B930B8C32914070F41BC00E9494
:1038C0002A1D2091C7013091C80120953095280FFD
:1038D000391F2C32314070F08091EC0180FF08C01C
:1038E00082E195E09F938F930E9494060F900F9032
:1038F0000E941B1CE0910C01F0910D0180819091C0
:10390000C901892B80830E94221C81110E941B1CEB
:1039100080910C0190910D010C94F40F909339015A
:103920008093380108958295982F9C7C9695969562
:10393000837344E0849F90011124922B892F8A7A0B
:1039400086959575990F892B08950895CF93DF93E8
:1039500000D000D01F92CDB7DEB70F900F900F9020
:103960000F900F90DF91CF910895089508950C94D2
:10397000631180910102843009F11092ED0120E47D
:1039800088E190E00FB6F894A895809360000FBE90
:103990002093600083B7817F846083BF83B7816099
:1039A00083BF7894889583B78E7F83BF88E10FB6F5
:1039B000F89480936000109260000FBE0895CF933A
:1039C0000E942C080E9456070E942D08C0E08C2FF0
:1039D0000E942408811105C0CF5FC830C1F780E084
:1039E00001C081E0CF9108950E9465110C94EE15FD
:1039F0001F920F920FB60F9211248F939F93AF9344
:103A0000BF938091ED01811113C08091EE019091DF
:103A1000EF01A091F001B091F1014196A11DB11DFE
:103A20008093EE019093EF01A093F001B093F10128
:103A3000BF91AF919F918F910F900FBE0F901F90EC
:103A4000189582E084BD93E095BD9AEF97BD809371
:103A50006E0008952FB7F8948091EE019091EF01D8
:103A6000A091F001B091F1012FBF08952FB7F89404
:103A70006091EE017091EF018091F0019091F10160
:103A80002FBF0895CF92DF92EF92FF920F931F9373
:103A90002FB7F8944091EE015091EF016091F00141
:103AA0007091F1012FBF6A017B01EE24FF248C018C
:103AB00020E030E0C016D106E206F30610F44150D3
:103AC0005109481B590BCA011F910F91FF90EF90AC
:103AD000DF90CF900895CF92DF92EF92FF920F93F5
:103AE0001F934FB7F8940091EE011091EF012091D0
:103AF000F0013091F1014FBF68017901C61AD70A70
:103B0000E80AF90A061717072807390718F0C70146
:103B1000B60106C0C701B60161507109810991095A
:103B20001F910F91FF90EF90DF90CF9008951F921B
:103B30000F920FB60F9211248F939F93AF93BF9361
:103B40008091EE019091EF01A091F001B091F1010F
:103B50000196A11DB11D8093EE019093EF01A093FA
:103B6000F001B093F101BF91AF919F918F910F90B0
:103B70000FBE0F901F9018950E940C0DF8942FEF18
:103B800087EA91E6215080409040E1F700C00000B4
:103B900087E090EBDC0180930A0290930B02A093E4
:103BA0000C02B0930D022CE088E190E00FB6F8947F
:103BB000A895809360000FBE20936000FFCFE72F91
:103BC000F0E098E0899FE00DF11D112483E0EE0FF5
:103BD000FF1F8A95E1F7E60FF11DE95DFE4F849125
:103BE0000895E82FF0E0EE0FFF1FEF56F0408591AB
:103BF000949108950E94DF1D90E4980F903218F47C
:103C00000E94F11D08958D3B60F4883AA0F5853A35
:103C100038F5843010F5813009F088C021E030E0BB
:103C200087C0883E98F4803EC0F48F3B09F07EC088
:103C30000E94EE152FEF80E792E0215080409040E7
:103C4000E1F700C000000E94BC1D70C0803F08F476
:103C50006DC0282F30E030656BC0282F30E068C081
:103C6000853A21F0863A21F492E803C091E801C038
:103C700093E880E458C0883A51F1893A51F18A3A80
:103C800051F18B3A51F18C3A51F18D3A51F18E3A12
:103C900051F18F3A51F1813B51F1803B51F1823B1F
:103CA00051F1833B51F1843B51F1853B51F1863B0E
:103CB00059F1873B59F1883B59F1893B59F18A3BCE
:103CC00059F18B3B59F18C3B61F59AE228C092EE99
:103CD00029C099EE27C09AEE25C095EB23C096EB3C
:103CE00021C093EB1FC094EB1DC097EB1BC09CEC55
:103CF00019C09DEC17C093E805C09AE803C092E98B
:103D000001C094E985E40FC091E209C093E207C0C5
:103D100094E205C095E203C096E201C097E286E412
:103D200002C090E084E4292F382F02C020E030E068
:103D3000C90108958091F40180FF0BC060911101C9
:103D400085E0689FB0011124759567957595679515
:103D50002AC081FF09C06091110185E0689FB00110
:103D60001124759567951FC082FF07C060911101EE
:103D700085E0689FB001112416C04091F5014423ED
:103D8000C9F060911001461788F72091110185E074
:103D9000289F90011124429FC001439F900D112440
:103DA00070E00E9456266038710540F46115710577
:103DB00039F002C065E070E0862F08958FE708951E
:103DC00081E008958091F40180FF08C060910F01A7
:103DD00070E0759567957595679521C081FF06C060
:103DE00060910F0170E07595679519C082FF04C05E
:103DF00060910F0170E010C08091F5018823C1F03F
:103E000060910E018617A0F790910F01989FC00155
:103E1000112470E00E9456266038710528F461155F
:103E2000710521F0862F08958FE7089581E00895A8
:103E300061E070E0F4CF803F21F40E949A1E8195EA
:103E400004C0813F29F40E949A1E8093F8010895CE
:103E5000823F21F40E949A1E819504C0833F29F479
:103E60000E949A1E8093F7010895893F19F40E94D9
:103E7000E21E05C08A3F31F40E94E21E81958093C4
:103E8000F90108958B3F21F40E94E21E819504C040
:103E90008C3F29F40E94E21E8093FA010895843F2A
:103EA00021F48091F601816017C0853F21F4809153
:103EB000F601826011C0863F21F48091F601846092
:103EC0000BC0873F21F48091F601886005C0883FD0
:103ED00031F48091F60180618093F60108958D3F61
:103EE00021F48091F40181600BC08E3F21F4809118
:103EF000F401826005C08F3F29F48091F401846051
:103F00008093F4010895803F39F48091F80187FF90
:103F10006CC01092F80169C0813F29F48091F801CA
:103F20001816BCF362C09091F701823F29F497FF05
:103F30005CC01092F70159C0833F19F41916CCF3F5
:103F400054C0893F41F48091F90118160CF04DC01E
:103F50001092F9014AC08A3F29F48091F90187FF44
:103F600044C0F6CF8B3F39F48091FA0187FF3DC002
:103F70001092FA013AC08C3F29F48091FA01181688
:103F8000BCF333C0843F21F48091F6018E7F17C0CB
:103F9000853F21F48091F6018D7F11C0863F21F489
:103FA0008091F6018B7F0BC0873F21F48091F60151
:103FB000877F05C0883F31F48091F6018F7E809322
:103FC000F60113C08D3F21F48091F4018E7F0BC068
:103FD0008E3F21F48091F4018D7F05C08F3F29F43D
:103FE0008091F4018B7F8093F4018091F70181111E
:103FF0000EC08091F80181110AC08091F9018111F0
:1040000006C08091FA01811102C01092F501089555
:104010008091EC0183FF7EC08BE495E00E94FB055C
:104020008091F6011F928F9386E495E09F938F9382
:104030000E94940684E495E00E94FB052091F7011C
:10404000822F992787FD90959F932F9381E495E088
:104050009F938F930E9494068FE395E00E94FB0547
:104060002091F801822F992787FD90959F932F9398
:104070008CE395E09F938F930E9494068AE395E0EA
:104080000E94FB052091F901822F992787FD9095C9
:104090009F932F9387E395E09F938F930E949406BD
:1040A00085E395E00E94FB052091FA01822F992774
:1040B00087FD90959F932F9382E395E09F938F9335
:1040C0000E9494068FE295E00E94FB058091F50125
:1040D0001F928F938CE295E09F938F930E9494069A
:1040E0008AE295E00E94FB058091F4011F928F9374
:1040F00087E295E09F938F930E94940684E295E077
:104100000E94FB058DB79EB74C960FB6F8949EBFE4
:104110000FBE8DBF86EF91E00E9439100E942A1DCC
:104120009093F3018093F20108951F93CF93DF934F
:104130008091F2019091F3010E94421D4091F5019E
:10414000442321F02091120130E006C02091130198
:104150005AE0259F900111248217930708F482C02A
:104160008091F7011091F801D091F901C091FA0105
:10417000811107C0111105C0D11103C0CC2309F46E
:1041800071C04F3F19F04F5F4093F501181624F4AA
:104190000E949A1E8093F7018091F70187FF05C066
:1041A0000E949A1E81958093F701111624F40E94B3
:1041B0009A1E8093F8018091F80187FF05C00E9444
:1041C0009A1E81958093F8016091F701662339F179
:1041D0001091F801112319F1772767FD7095872F4A
:1041E000972F0E945B2523E333E343E35FE30E94C1
:1041F000BF250E9428256093F701612F772767FD6F
:104200007095872F972F0E945B2523E333E343E3C9
:104210005FE30E94BF250E9428256093F8011D16C8
:1042200024F40E94E21E8093F9018091F90187FF36
:1042300005C00E94E21E81958093F9011C1624F4AA
:104240000E94E21E8093FA018091FA0187FF05C067
:104250000E94E21E81958093FA01DF91CF911F9118
:104260000C940820DF91CF911F910895E6EFF1E0C3
:1042700085E0DF011D928A95E9F71092F501109211
:10428000F40108958EE697E00E94FB051F9281E0FD
:104290008F931F9285E08F9380E297E09F938F9397
:1042A0000E9494060F900F900F900F900F900F9018
:1042B00008958330E9F128F4813061F0823009F10A
:1042C0000895853009F462C008F449C0863009F4C5
:1042D00074C0089520911301862F90E0820F911DE4
:1042E0008F3F910520F4620F6093130103C08FEF9D
:1042F00080931301809113011F928F9389E596E0BB
:1043000072C020911201862F90E0820F911D8F3F85
:10431000910520F4620F6093120103C08FEF809328
:104320001201809112011F928F9387E496E05BC087
:1043300020911101862F90E0820F911D8F3F9105F2
:1043400020F4620F6093110103C08FEF809311017D
:10435000809111011F928F9384E396E044C02091D5
:104360001001862F90E0820F911D8F3F910520F460
:10437000620F6093100103C08FEF80931001809152
:1043800010011F928F938FE196E02DC020910F01B5
:10439000862F90E0820F911D8F3F910520F4620FD0
:1043A00060930F0103C08FEF80930F0180910F0185
:1043B0001F928F9386E096E016C020910E01862F03
:1043C00090E0820F911D8F3F910520F4620F609362
:1043D0000E0103C08FEF80930E0180910E011F929A
:1043E0008F938BEE95E09F938F930E9494060F908E
:1043F0000F900F900F900895833081F128F4813051
:1044000059F08230D1F00895853009F449C0B8F1EF
:10441000863009F456C0089580911301681720F47E
:10442000861B8093130102C0109213018091130127
:104430001F928F938CED95E054C080911201681704
:1044400020F4861B8093120102C010921201809109
:1044500012011F928F938AEC95E043C08091110165
:10446000681720F4861B8093110102C0109211017D
:10447000809111011F928F9387EB95E032C080915C
:104480001001681720F4861B8093100102C010925F
:104490001001809110011F928F9382EA95E021C054
:1044A00080910F01681720F4861B80930F0102C0D2
:1044B00010920F0180910F011F928F9389E895E070
:1044C00010C080910E01681720F4861B80930E01A6
:1044D00002C010920E0180910E011F928F938EE602
:1044E00095E09F938F930E9494060F900F900F90EA
:1044F0000F900895CF93C82F1F928F9323E738E032
:104500003F932F930E94940661E070E080E090E07A
:1045100004C0660F771F881F991FCA95D2F70E94A3
:104520002F1A0F900F900F900F90CF910C94EE15C3
:10453000CF938732A8F58E3108F028C1803109F475
:104540009DC0F8F4873009F464C0A8F4863009F0FF
:1045500021C18091EC01817F8E7F8093EC0188E7FF
:1045600098E00E94FB058DE49BE00E94FB0581E042
:104570008093FC014CC08B30F1F18E3009F46BC09C
:1045800009C1863109F4ADC020F4813109F4EAC0D3
:1045900001C1893109F48EC08B3109F449C0FAC0D8
:1045A000883349F150F4893209F4EEC0853309F4B7
:1045B000EBC0873209F0EEC0E7C0833409F4E4C0F1
:1045C00028F48A3308F4E6C08953E1C0883409F03E
:1045D000E1C00E94EE158CE39BE00E94FB052FEFEB
:1045E00083ED90E3215080409040E1F700C000004F
:1045F0000E94BC1D0CC08FE998E059C083E29BE08B
:104600000E94FB058091EC0181608093EC01C1E088
:10461000C6C08091EC01C82FC17080FFEFCF8FE240
:104620009BE00E94FB058091EC01817F8E7F3AC068
:104630008091EC0181FBCC27C0F991E0C927C0FB38
:1046400081F98093EC01CC2319F086E19BE025C031
:1046500088E09BE02CC08091EC0182FBCC27C0F964
:1046600091E0C927C0FB82F98093EC01CC2319F0BB
:1046700089EF9AE012C089EE9AE019C08091EC01AE
:1046800083FBCC27C0F991E0C927C0FB83F9809355
:10469000EC01CC2351F08DED9AE00E94FB05809156
:1046A000EC0181608093EC017AC080ED9AE00E9479
:1046B000FB05ADCF81EC9AE00E94FB0584E99AE00E
:1046C0000E94FB058DE59AE00E94FB0586E39AE0D7
:1046D0000E94FB058BEF99E00E94FB058DEC99E0B1
:1046E000E6CF8FEB99E00E94FB050E94E80F1F9236
:1046F0008F9385EA99E09F938F930E94940680910F
:104700000A011F928F938EE899E09F938F930E94E6
:104710009406809177011F928F938BE799E09F9386
:104720008F930E94940680910B011F928F9388E6CD
:1047300099E09F938F930E9494060E94361D9F9349
:104740008F937F936F9381E599E09F938F930E945E
:1047500094068DB79EB746960FB6F8949EBF0FBECF
:104760008DBF55CF0E94EE15C0910B0181E0C82787
:10477000C0930B01CC2329F087E499E00E94FB054C
:104780000EC08CE399E093CF80E001C08D510E9470
:104790007A223DCF8AE399E00E94FB05C0E08C2F8E
:1047A000CF91089580E0089580E00895CF93C82FB9
:1047B0008091FC01813071F020F0823009F448C012
:1047C0003FC1A0910C01B0910D018C91823209F092
:1047D00039C107C0A0910C01B0910D018C918232BA
:1047E00049F48C2F0E94D22381112FC08C2F0E945C
:1047F00098222CC08C2F0E94D423811126C0C43152
:10480000E1F070F4CB3081F0C031D1F40E9442214C
:104810008BE698E00E94FB0582E08093FC0115C0C6
:10482000C93259F0C83361F488E798E00E94FB056B
:104830008FE698E00E94FB0508C01092FC0104C1BD
:1048400089E698E00E94FB05FFC081E08170FEC010
:10485000C43228F5CE3108F0C1C0CB30A1F1D0F47C
:10486000C73009F0D3C08EE18093130182E38093B7
:1048700012018AE08093110184E18093100188E0A5
:1048800080930F0188E280930E018FE097E00E94F1
:10489000FB05BFC0C33149F1C431C1F0B7C0CB344F
:1048A00009F4A9C028F4C93289F0C83361F0AEC058
:1048B000C13509F49EC0C23509F499C0CE3409F05F
:1048C000A5C06AE09EC00E944221A3C08091FB0166
:1048D000882319F01092FB019CC08CE197E00E94A4
:1048E000FB0581E08093FC01B1C086EF96E00E9459
:1048F000FB0584EE96E00E94FB05809113011F9258
:104900008F9381EE96E09F938F930E9494068FED94
:1049100096E00E94FB058DEC96E00E94FB058091DD
:1049200012011F928F938AEC96E09F938F930E94BF
:10493000940688EC96E00E94FB0589EB96E00E94C5
:10494000FB05809111011F928F9386EB96E09F9358
:104950008F930E94940684EB96E00E94FB0583EA05
:1049600096E00E94FB05809110011F928F9380EAD0
:1049700096E09F938F930E9494068EE996E00E94A2
:10498000FB0589E896E00E94FB0580910F011F92CC
:104990008F9386E896E09F938F930E94940684E815
:1049A00096E00E94FB058DE696E00E94FB05809153
:1049B0000E011F928F938AE696E09F938F930E9439
:1049C000940688E696E00E94FB058DB79EB7489650
:1049D0000FB6F8949EBF0FBE8DBF1BC0CE51EC2FFB
:1049E000F0E0E25DFE4F80818093FB0112C061E048
:1049F00003C061E006C06AE08091FB010E9459217A
:104A000008C08091FB010E94FC2103C08DE097E06B
:104A100013C08091FB01882369F01F928F9387E078
:104A200097E09F938F930E9494060F900F900F90A2
:104A30000F9004C084E097E00E94FB0581E006C06F
:104A40001092FC0180E002C080E000CFCF91089579
:104A500004D06894B1118DC0089570D088F09F572C
:104A600090F0B92F9927B751A0F0D1F0660F771FBA
:104A7000881F991F1AF0BA95C9F712C0B13081F09A
:104A800077D0B1E0089574C0672F782F8827B85F7A
:104A900039F0B93FCCF3869577956795B395D9F7FB
:104AA0003EF490958095709561957F4F8F4F9F4F05
:104AB0000895E89409C097FB3EF490958095709511
:104AC00061957F4F8F4F9F4F9923A9F0F92F96E95A
:104AD000BB279395F695879577956795B795F111CF
:104AE000F8CFFAF4BB0F11F460FF1BC06F5F7F4F6C
:104AF0008F4F9F4F16C0882311F096E911C077237E
:104B000021F09EE8872F762F05C0662371F096E886
:104B1000862F70E060E02AF09A95660F771F881F55
:104B2000DAF7880F9695879597F9089557FD90586D
:104B3000440F551F59F05F3F71F04795880F97FB61
:104B4000991F61F09F3F79F087950895121613061B
:104B50001406551FF2CF4695F1DF08C0161617064A
:104B60001806991FF1CF869571056105089408957F
:104B7000E894BB2766277727CB0197F908950BD0D8
:104B800078C069D028F06ED018F0952309F05AC08B
:104B90005FC01124EECFCADFA0F3959FD1F3950F2C
:104BA00050E0551F629FF001729FBB27F00DB11DB1
:104BB000639FAA27F00DB11DAA1F649F6627B00D41
:104BC000A11D661F829F2227B00DA11D621F739F2A
:104BD000B00DA11D621F839FA00D611D221F749F38
:104BE0003327A00D611D231F849F600D211D822F7F
:104BF000762F6A2F11249F5750408AF0E1F08823C6
:104C00004AF0EE0FFF1FBB1F661F771F881F9150D2
:104C10005040A9F79E3F510570F014C0AACF5F3FE6
:104C2000ECF3983EDCF3869577956795B795F79505
:104C3000E7959F5FC1F7FE2B880F911D969587958D
:104C400097F9089597F99F6780E870E060E008950C
:104C50009FEF80EC089500240A9416161706180694
:104C60000906089500240A94121613061406050670
:104C70000895092E0394000C11F4882352F0BB0F01
:104C800040F4BF2B11F460FF04C06F5F7F4F8F4F64
:104C90009F4F0895991B79E004C0991F961708F05B
:104CA000961B881F7A95C9F78095089597FB072E64
:104CB00016F4009407D077FD09D00E94702607FCF7
:104CC00005D03EF4909581959F4F0895709561951C
:104CD0007F4F0895EE0FFF1F0590F491E02D09948A
:104CE000AA1BBB1B51E107C0AA1FBB1FA617B70712
:104CF00010F0A61BB70B881F991F5A95A9F780952E
:0C4D00009095BC01CD010895F894FFCF00
:104D0C00350826090309CF089C080101CA012808A7
:104D1C00140A321E404D3622393E04F103BB03996E
:104D2C00036003D302EC0205031E033E03000102E1
:084D3C00030405060708090045
:00000001FF
